:100000000C942A000C9447000C9447000C94470071
:100010000C9447000C9447000C9447000C94700C0F
:100020000C94A30C0C94D60C0C94D2140C94470092
:100030000C9447000C94160B0C94500B0C94470036
:100040000C9447000C9447000C9447000C94470014
:100050000C94470011241FBECFE5D8E0DEBFCDBF12
:1000600011E0A0E6B0E0E2E4FFE202C005900D92EC
:10007000AC3CB107D9F711E0ACECB1E001C01D9286
:10008000AF3DB107E1F70E94AC160C949F170C949A
:100090000000EF92FF920F931F937B018C0120E0F1
:1000A00030E040E05FE40E94C50388238CF0C80183
:1000B000B70120E030E040E05FE40E94C1010E940F
:1000C000F5039B01AC01205030404040504806C031
:1000D000C801B7010E94F5039B01AC01B901CA0137
:1000E0001F910F91FF90EF900895A0E0B0E0EBE733
:1000F000F0E00C946817DC012B01FA019C9192301E
:1001000008F439C1EB018881823008F433C194309E
:1001100069F4843009F02FC111969C91119789815F
:10012000981709F428C1A3EBB0E025C1843009F485
:1001300021C18230A9F4923009F01DC19A01AD01AC
:1001400088E0EA010990AE01E90109929E0181501F
:10015000C1F7E201898111969C918923818308C1AD
:10016000923009F407C112962D903C901397EB0141
:100170008A819B811496AD90BD90CD90DC901797AD
:10018000EC80FD800E811F819101281B390BB90184
:1001900037FF04C066277727621B730B6032710537
:1001A0000CF061C0121613066CF537014801062EDB
:1001B00004C096948794779467940A94D2F721E0C8
:1001C00030E040E050E004C0220F331F441F551FB1
:1001D0006A95D2F721503040404050402E213F21B7
:1001E00040235123211531054105510521F021E01E
:1001F00030E040E050E079018A01E628F72808293C
:1002000019293CC0232BD1F1260E371E350146019A
:10021000062E04C096948794779467940A94D2F734
:1002200021E030E040E050E004C0220F331F441FC3
:10023000551F6A95D2F721503040404050402A2146
:100240003B214C215D21211531054105510521F04E
:1002500021E030E040E050E059016A01A628B728CB
:10026000C828D9280BC0821593052CF01C01AA249C
:10027000BB24650103C0EE24FF24870111969C91E5
:10028000D20111968C91981709F445C0992339F041
:10029000A80197012A193B094C095D0906C0A6016E
:1002A00095012E193F09400B510B57FD08C01182D3
:1002B0003382228224833583468357831DC081E0A5
:1002C00081833382228288279927DC01821B930B4A
:1002D000A40BB50B84839583A683B7830DC0220F2F
:1002E000331F441F551F24833583468357838281E0
:1002F000938101979383828324813581468157813D
:10030000DA01C9010197A109B1098F5F9F4FAF4F72
:10031000BF4328F30BC0918333822282EA0CFB1C7B
:100320000C1D1D1DE482F5820683178383E0808304
:10033000248135814681578157FF1AC0C901AA27F8
:1003400097FDA095BA2F81709070A070B0705695EF
:10035000479537952795822B932BA42BB52B848318
:100360009583A683B7838281938101969383828349
:10037000DF0101C0D201CD01CDB7DEB7E2E10C94BF
:100380008417A0E2B0E0E7ECF1E00C947417698305
:100390007A838B839C832D833E834F835887E9E048
:1003A000EE2EF12CEC0EFD1ECE010196B7010E943F
:1003B000E6058E010F5E1F4FCE010596B8010E9423
:1003C000E6058A8991E089278A8BC701B801AE01C9
:1003D000475E5F4F0E9475000E941105A096E6E0FF
:1003E0000C949017A0E2B0E0E8EFF1E00C947417E1
:1003F00069837A838B839C832D833E834F835887C5
:10040000F9E0EF2EF12CEC0EFD1ECE010196B701A6
:100410000E94E6058E010F5E1F4FCE010596B801C2
:100420000E94E605C701B801AE01475E5F4F0E941A
:1004300075000E941105A096E6E00C949017A0E2CA
:10044000B0E0E5E2F2E00C94681769837A838B836D
:100450009C832D833E834F835887CE010196BE0136
:10046000675F7F4F0E94E605CE010596BE016F5E75
:100470007F4F0E94E6059985923088F08989823005
:10048000C8F0943019F4823051F404C0843029F457
:10049000923081F483EB90E0C6C0923049F420E0C2
:1004A0009A858A89981321E02A87CE010996BBC0D4
:1004B000823049F420E09A858A89981321E02A8BBA
:1004C000CE014196B0C02D843E844F8458886D88FB
:1004D0007E888F88988CEE24FF248701AA24BB2471
:1004E000650140E050E060E070E0E0E0F0E0C10174
:1004F00081709070892BE9F0E60CF71C081D191D1E
:100500009A01AB012A0D3B1D4C1D5D1D80E090E062
:10051000A0E0B0E0E614F7040805190520F481E036
:1005200090E0A0E0B0E0BA01A901480F591F6A1F8E
:100530007B1FAA0CBB1CCC1CDD1C97FE08C081E0F5
:1005400090E0A0E0B0E0A82AB92ACA2ADB2A3196B6
:10055000E032F10549F0660C771C881C991C569412
:10056000479437942794C3CFFA85EA892B893C892D
:100570008B859C85280F391F2E5F3F4F17C0CA01FE
:1005800081709070892B61F016950795F794E79428
:1005900080E090E0A0E0B0E8E82AF92A0A2B1B2BC3
:1005A00076956795579547952F5F3F4F77FDE7CF36
:1005B0000CC0440F551F661F771F17FD4160EE0CDE
:1005C000FF1C001F111F21503040403090E05907A0
:1005D00090E0690790E4790760F32B8F3C8FDB0193
:1005E000CA018F779070A070B07080349105A1051A
:1005F000B10561F447FD0AC0E114F10401051105DC
:1006000029F0405C5F4F6F4F7F4F40781A8EFE1786
:1006100011F081E08A8F4D8F5E8F6F8F78A383E01A
:10062000898FCE0149960E941105A096E2E10C94B3
:100630008417A8E1B0E0EFE1F3E00C947017698350
:100640007A838B839C832D833E834F835887B9E0C5
:10065000EB2EF12CEC0EFD1ECE010196B7010E948F
:10066000E6058E010F5E1F4FCE010596B8010E9470
:10067000E6052985223008F47EC03989323010F42D
:10068000B8017CC08A859A8989278A87243011F02D
:10069000223031F4231709F06EC063EB70E06EC0B6
:1006A000343039F41D861E861F86188A1C861B86E8
:1006B00004C0323021F484E08987B7015FC02B8504
:1006C0003C858B899C89281B390B3C872B87ED84C3
:1006D000FE840F851889AD88BE88CF88D88CEA142F
:1006E000FB040C051D0540F4EE0CFF1C001F111F40
:1006F000215030403C872B8720E030E040E050E044
:1007000080E090E0A0E0B0E460E070E0EA14FB0478
:100710000C051D0540F0282B392B4A2B5B2BEA18C2
:10072000FB080C091D09B695A79597958795EE0CC2
:10073000FF1C001F111F6F5F7F4F6F31710531F775
:10074000DA01C9018F779070A070B0708034910584
:10075000A105B10561F427FD0AC0E114F10401050A
:10076000110529F0205C3F4F4F4F5F4F20782D87B8
:100770003E874F87588BBE01675F7F4FCB010E943A
:1007800011056896EAE00C948C17A8E1B0E0EBEC58
:10079000F3E00C94741769837A838B839C832D8395
:1007A0003E834F83588789E0E82EF12CEC0EFD1E26
:1007B000CE010196B7010E94E6058E010F5E1F4F24
:1007C000CE010596B8010E94E6058985823040F089
:1007D0008989823028F0C701B8010E945E0601C0F5
:1007E0008FEF6896E6E00C949017ACE0B0E0EBEF8A
:1007F000F3E00C94781769837A838B839C83CE0112
:100800000196BE016B5F7F4F0E94E6058D818230AD
:1008100061F1823050F1843021F48E81882351F1CE
:100820002EC02F81388537FD20C06E812F313105D4
:100830001CF06623F9F023C08EE190E0821B930B3D
:1008400029853A854B855C8504C056954795379533
:1008500027958A95D2F76623B1F05095409530954B
:1008600021953F4F4F4F5F4F0EC020E030E040E0FA
:1008700050E009C02FEF3FEF4FEF5FE704C020E0EB
:1008800030E040E050E8B901CA012C96E2E00C9457
:100890009417A8E0B0E0EFE4F4E00C9470177B014B
:1008A0008C01611571058105910519F482E0898338
:1008B00060C083E089838EE1C82ED12CDC82CB829C
:1008C000ED82FE820F831887C801B7010E94C2041F
:1008D000FC013197F7FF3BC0222733272E1B3F0B2C
:1008E00057016801022E04C0D694C794B794A79408
:1008F0000A94D2F740E050E060E070E081E090E0E0
:10090000A0E0B0E004C0880F991FAA1FBB1F2A9562
:10091000D2F70197A109B1098E219F21A023B1230C
:100920000097A105B10521F041E050E060E070E0E2
:100930004A295B296C297D294D835E836F837887E3
:100940008EE190E08E1B9F0B9C838B8312C03097AF
:1009500081F00E2E04C0EE0CFF1C001F111F0A9424
:10096000D2F7ED82FE820F831887CE1ADF0ADC826F
:10097000CB821A82CE0101960E9411052896EAE0E8
:100980000C948C17EF92FF920F931F937B018C01B5
:1009900080E0E81680E0F80681E0080780E01807AC
:1009A00088F48FEFE816F1040105110531F028F005
:1009B00088E090E0A0E0B0E017C080E090E0A0E028
:1009C000B0E012C080E0E81680E0F80680E008079A
:1009D00081E0180728F088E190E0A0E0B0E004C0D2
:1009E00080E190E0A0E0B0E020E230E040E050E0C4
:1009F000281B390B4A0B5B0B04C016950795F7941F
:100A0000E7948A95D2F7F701E554FF4F8081281BC0
:100A1000310941095109C9011F910F91FF90EF90D0
:100A20000895DF92EF92FF920F931F93FC01E480F1
:100A3000F58006811781D1808081823048F480E082
:100A400090E0A0E1B0E0E82AF92A0A2B1B2BA5C010
:100A5000843009F49FC0823021F4EE24FF24870102
:100A600005C0E114F1040105110519F4E0E0F0E01E
:100A700096C0628173819FEF623879070CF05BC08A
:100A800022E83FEF261B370B2A3131052CF020E0FE
:100A900030E040E050E02AC0B801A701022E04C0B7
:100AA00076956795579547950A94D2F781E090E03F
:100AB000A0E0B0E004C0880F991FAA1FBB1F2A95B1
:100AC000D2F70197A109B1098E219F21A023B1235B
:100AD0000097A105B10521F081E090E0A0E0B0E031
:100AE0009A01AB01282B392B4A2B5B2BDA01C90168
:100AF0008F779070A070B07080349105A105B1051A
:100B000039F427FF09C0205C3F4F4F4F5F4F04C0AF
:100B1000215C3F4F4F4F5F4FE0E0F0E02030A0E01E
:100B20003A07A0E04A07A0E45A0710F0E1E0F0E03D
:100B300079018A0127C06038710564F5FB01E1582D
:100B4000FF4FD801C7018F779070A070B0708034CC
:100B50009105A105B10539F4E7FE0DC080E490E0F0
:100B6000A0E0B0E004C08FE390E0A0E0B0E0E80EC9
:100B7000F91E0A1F1B1F17FF05C016950795F7944E
:100B8000E794319687E016950795F794E7948A9550
:100B9000D1F705C0EE24FF248701EFEFF0E06E2FC0
:100BA000679566276795902F9F77D794DD24D79414
:100BB0008E2F8695492F462B582F5D29B701CA01E4
:100BC0001F910F91FF90EF90DF900895FC01DB01E2
:100BD000408151812281622F6F7770E0221F22278E
:100BE000221F9381892F880F822B282F30E0991F95
:100BF0009927991F11969C93119721153105A9F5F5
:100C0000411551056105710511F482E037C082E894
:100C10009FEF13969C938E9312979A01AB0167E016
:100C2000220F331F441F551F6A95D1F783E08C9321
:100C30000DC0220F331F441F551F12968D919C919A
:100C40001397019713969C938E931297203080E010
:100C5000380780E0480780E4580758F314962D932E
:100C60003D934D935C93179708952F3F310579F489
:100C7000411551056105710519F484E08C930895BF
:100C800064FF03C081E08C9312C01C9210C02F57E8
:100C9000304013963C932E93129783E08C9387E019
:100CA000440F551F661F771F8A95D1F770641496FD
:100CB0004D935D936D937C93179708951F93DC017B
:100CC000FB019C91923008F447C08081823008F487
:100CD00043C0943051F411961C91843099F5818170
:100CE000682F70E0611B71093FC0843021F09230A1
:100CF00031F48230B9F18181882389F12DC01196B8
:100D00001C9111978230F1F081811817D9F4129655
:100D10002D913C911397828193818217930794F0D0
:100D200028173907BCF014968D919D910D90BC91B8
:100D3000A02D2481358146815781281739074A071C
:100D40005B0718F4112341F00AC082179307A40728
:100D5000B50740F4112319F061E070E005C06FEFB2
:100D60007FEF02C060E070E0CB011F910895DF9338
:100D7000CF93CDB7DEB729970FB6F894DEBF0FBE7D
:100D8000CDBF9F838E83798768871D821C821B82DB
:100D90001A828C818F5F8C838D818F5F8D838D8193
:100DA000282F30E08E819F81FC01E20FF31F8081AC
:100DB000882359F08D81282F30E08E819F81FC019E
:100DC000E20FF31F80818D3021F71D828B818F5FB1
:100DD0008B838D818F5F8D838D81282F30E0888577
:100DE0009985FC01E20FF31F8081882359F08D81E2
:100DF000282F30E088859985FC01E20FF31F808160
:100E00008D3021F71D829B818C81981701F51D8201
:100E10001AC08D81282F30E08E819F81FC01E20F66
:100E2000F31F40818D81282F30E088859985FC0152
:100E3000E20FF31F8081481751F48A818F5F8A8304
:100E40008D818F5F8D839D818C81981710F39C819C
:100E50008A81981731F48A81882319F081E0898387
:100E600001C01982898129960FB6F894DEBF0FBEA2
:100E7000CDBFCF91DF910895DF93CF93CDB7DEB78C
:100E800027970FB6F894DEBF0FBECDBF6C837D836E
:100E90008E839F8381E08B83A0E4B0E0E0E4F0E008
:100EA000808180688C93A0E4B0E0E0E4F0E0808191
:100EB0008F7B8C93ABE2B0E0EBE2F0E080818D7F42
:100EC0008C938C819D81AE81BF81880F991FAA1F51
:100ED000BB1F880F991FAA1FBB1F880F991FAA1F2E
:100EE000BB1F880F991FAA1FBB1F9C01AD0180E08B
:100EF00092E1AAE7B0E0BC01CD010E944617DA01F9
:100F0000C90101979A838983A0E4B0E0E0E4F0E0AE
:100F1000808182608C93A0E4B0E0E0E4F0E0808126
:100F200084608C93AAE2B0E0EAE2F0E080818B7FFB
:100F30008C93A0E4B0E0E0E4F0E080818F7E8C93BD
:100F4000A0E4B0E0E0E4F0E080818F7D8C93A0E449
:100F5000B0E0E0E4F0E08081877F8C93E9E2F0E0AC
:100F600089818083E0E4F0E089819A81892F992743
:100F70008083AAE2B0E0EAE2F0E0808180618C93B5
:100F8000AAE2B0E0EAE2F0E0808188608C938B8195
:100F9000813019F481E08093CC018B8127960FB6C4
:100FA000F894DEBF0FBECDBFCF91DF910895DF93E0
:100FB000CF9300D0CDB7DEB78A838091CC0181304A
:100FC00089F4EBE2F0E08081829586958770882F26
:100FD00090E0817090700097A1F3ECE2F0E08A81DC
:100FE000808302C088E0898389810F900F90CF9120
:100FF000DF9108950F931F93DF93CF93CDB7DEB7A3
:10100000CA57D0400FB6F894DEBF0FBECDBFFE0169
:10101000ED58FF4F608371838283938384E6FE01E2
:101020003F96DF01282F1D922A95E9F781E08F83F3
:10103000188619861A861B861C861D861E861D82AA
:10104000FE01ED58FF4F80819181A281B38100970D
:10105000A105B10509F05FC08D81282F30E0CE01D8
:101060000F96FC01E20FF31F80E380838D818F5F79
:101070008D8351C0FE01ED58FF4F80819181A28187
:10108000B3812AE030E040E050E0BC01CD010E9495
:101090004617DC01CB0189838D81A82FB0E0EA9649
:1010A000BFAFAEAFEA9789818A3038F08981B82F17
:1010B000B95AE896BFAFE89706C08981E82FE05D8E
:1010C000E896EFAFE897CE010F96EA96EEADFFAD4A
:1010D000EA97E80FF91FE8962FADE89720838D81F6
:1010E0008F5F8D838E010D581F4FFE01ED58FF4F0E
:1010F00080819181A281B3812AE030E040E050E01C
:10110000BC01CD010E944617DA01C901F8018083B4
:101110009183A283B383FE01ED58FF4F80819181BB
:10112000A281B3810097A105B10509F0A3CF8D81FC
:10113000282F30E0CE010F96FC01E20FF31F108242
:101140001C828D8181508B8328C08C81882F90E0F8
:10115000FE013F96E80FF91F80818A838C81882FDA
:1011600090E0DE011F96A80FB91F8B81882F90E0B9
:10117000FE013F96E80FF91F80818C938B81882FA9
:1011800090E0FE013F96E80FF91F8A8180838C81F1
:101190008F5F8C838B8181508B839C818B8198178F
:1011A000A0F2CE010F960E94E108C658DF4F0FB69D
:1011B000F894DEBF0FBECDBFCF91DF911F910F918D
:1011C0000895DF93CF9300D000D000D0CDB7DEB725
:1011D0009E838D8381E08C831A8219828091CC0159
:1011E0008130E1F48D819E810097A9F02D813E81AF
:1011F00089819A81F901E80FF91F80818B838B81A6
:101200000E94D70789819A8101969A8389838B816D
:10121000882361F705C087E08C8302C088E08C8357
:101220008C8126960FB6F894DEBF0FBECDBFCF914E
:10123000DF910895DF93CF9300D00F92CDB7DEB743
:101240009B838A8381E089838091CC01813099F4EA
:101250008A819B81009761F0EBE2F0E08081882336
:10126000DCF7ECE2F0E08081EA81FB81808305C05D
:1012700087E0898302C088E0898389810F900F907D
:101280000F90CF91DF910895EF92FF920F931F93EC
:10129000DF93CF93CDB7DEB766970FB6F894DEBF76
:1012A0000FBECDBF9D8B8C8B188681E090E0A0E0B7
:1012B000B0E08C839D83AE83BF83EC89FD8910826F
:1012C000118212821382CE0109960E94E3091B82C9
:1012D00003C088858F5F88878885282F30E0CE01FE
:1012E0000996FC01E20FF31F80818D3091F71A827D
:1012F00058C098858A81292F281B822F8150898385
:1013000015C08C819D81AE81BF812AE030E040E034
:1013100050E0BC01CD010E942717DC01CB018C837A
:101320009D83AE83BF83898181508983898188238E
:1013300041F7EC89FD89E080F180028113818B8186
:10134000282F30E0CE010996FC01E20FF31F8081C7
:10135000882F90E0C097AA2797FDA095BA2F2C81DF
:101360003D814E815F81BC01CD010E942717DC01C8
:10137000CB018E0D9F1DA01FB11FEC89FD898083BD
:101380009183A283B3838B818F5F8B8381E090E015
:10139000A0E0B0E08C839D83AE83BF838A818F5FA2
:1013A0008A839A818885981708F4A3CF66960FB62A
:1013B000F894DEBF0FBECDBFCF91DF911F910F918B
:1013C000FF90EF900895DF93CF9300D000D000D02E
:1013D000CDB7DEB79E838D8381E08B838D819E8127
:1013E0009A8389838091CC018130D9F48D819E814B
:1013F0000097A1F0CE0104960E941A098C81E98120
:10140000FA81808389819A8101969A8389838C816C
:101410008D3081F7E981FA81108205C087E08B83E6
:1014200002C088E08B838B8126960FB6F894DEBFCE
:101430000FBECDBFCF91DF910895DF93CF93CDB78E
:10144000DEB727970FB6F894DEBF0FBECDBF9E83E1
:101450008D836F8381E08B838D819E819A838983C5
:101460008091CC018130F1F48D819E810097B9F09B
:10147000CE0104960E941A098C81E981FA81808349
:1014800089819A8101969A8389838F8181508F8384
:101490008C818D3049F08F81882351F705C087E01A
:1014A0008B8302C088E08B838B8127960FB6F894DC
:1014B000DEBF0FBECDBFCF91DF910895DF93CF93F5
:1014C00000D00F92CDB7DEB79B838A8381E08983FA
:1014D0008091CC018130E1F48A819B810097A9F051
:1014E0008A819B819093CE018093CD01AAE2B0E0E6
:1014F000EAE2F0E0808180688C93AFE5B0E0EFE550
:10150000F0E0808180688C9305C087E0898302C009
:1015100088E0898389810F900F900F90CF91DF91A0
:101520000895DF93CF9300D00F92CDB7DEB79B83A2
:101530008A8381E089838091CC018130E1F48A81C2
:101540009B810097A9F08A819B819093D001809321
:10155000CF01AAE2B0E0EAE2F0E0808180648C93FF
:10156000AFE5B0E0EFE5F0E0808180688C9305C0E6
:1015700087E0898302C088E0898389810F900F907A
:101580000F90CF91DF910895DF93CF93CDB7DEB762
:101590001092CE011092CD01AAE2B0E0EAE2F0E0B2
:1015A00080818F778C93CF91DF910895DF93CF93D4
:1015B000CDB7DEB71092D0011092CF01AAE2B0E011
:1015C000EAE2F0E080818F7B8C93CF91DF910895E8
:1015D000DF93CF93CDB7DEB7AAE2B0E0EAE2F0E066
:1015E00080818F7E8C93AAE2B0E0EAE2F0E0808115
:1015F000877F8C931092D0011092CF011092CE0170
:101600001092CD01AAE2B0E0EAE2F0E080818F77AB
:101610008C93AAE2B0E0EAE2F0E080818F7B8C93C9
:1016200081E08093CC01CF91DF9108951F920F92BA
:101630000FB60F9211242F933F934F935F936F93A5
:101640007F938F939F93AF93BF93EF93FF93DF931A
:10165000CF930F92CDB7DEB78091CD019091CE019F
:10166000009731F0E091CD01F091CE01099504C0D1
:10167000ECE2F0E0808189830F90CF91DF91FF91C0
:10168000EF91BF91AF919F918F917F916F915F91FA
:101690004F913F912F910F900FBE0F901F90189573
:1016A0001F920F920FB60F9211242F933F934F93D7
:1016B0005F936F937F938F939F93AF93BF93EF93BA
:1016C000FF93DF93CF93CDB7DEB78091CF01909199
:1016D000D001009729F0E091CF01F091D001099558
:1016E000CF91DF91FF91EF91BF91AF919F918F913A
:1016F0007F916F915F914F913F912F910F900FBE0E
:101700000F901F901895DF93CF93CDB7DEB7EFE41E
:10171000F0E01082EEE4F0E0108281E0CF91DF9102
:101720000895DF93CF93CDB7DEB7AEE4B0E0EEE43B
:10173000F0E0808183608C93ECE4F0E080E09FEF48
:101740009183808381E0CF91DF910895DF93CF93E0
:1017500000D000D000D0CDB7DEB789837B836A8309
:101760008981282F30E03E832D838D819E810097D3
:1017700031F02D813E812130310551F012C0EAE473
:10178000F0E08A819B8180509140918380830BC0DF
:10179000E8E4F0E08A819B818050914091838083CE
:1017A00002C01C8202C031E03C838C8126960FB6B9
:1017B000F894DEBF0FBECDBFCF91DF910895DF93C8
:1017C000CF9300D000D000D0CDB7DEB789837B8324
:1017D0006A838A819B81009711F41E823DC08981B2
:1017E000282F30E03D832C838C819D81009731F040
:1017F0002C813D812130310579F01CC0A9E5B0E094
:10180000E9E5F0E0808180618C938A819B819093EF
:10181000D2018093D10110C0A9E5B0E0E9E5F0E084
:10182000808188608C938A819B819093D40180937E
:10183000D30102C01E8210C0A9E5B0E0E9E5F0E0E6
:10184000808184608C93AFE5B0E0EFE5F0E08081CB
:1018500080688C9331E03E838E8126960FB6F89493
:10186000DEBF0FBECDBFCF91DF910895DF93CF9341
:1018700000D000D0CDB7DEB789838981282F30E032
:101880003C832B838B819C81009731F02B813C81A1
:101890002130310569F018C0A9E5B0E0E9E5F0E0D4
:1018A00080818F7E8C931092D2011092D1010EC054
:1018B000A9E5B0E0E9E5F0E08081877F8C931092A4
:1018C000D4011092D30102C01A8202C031E03A83DF
:1018D0008A810F900F900F900F90CF91DF91089514
:1018E0001F920F920FB60F9211242F933F934F9395
:1018F0005F936F937F938F939F93AF93BF93EF9378
:10190000FF93DF93CF93CDB7DEB78091D101909154
:10191000D201009729F0E091D101F091D20109950F
:10192000CF91DF91FF91EF91BF91AF919F918F91F7
:101930007F916F915F914F913F912F910F900FBECB
:101940000F901F9018951F920F920FB60F921124AF
:101950002F933F934F935F936F937F938F939F93B7
:10196000AF93BF93EF93FF93DF93CF93CDB7DEB7E2
:101970008091D3019091D401009729F0E091D30197
:10198000F091D4010995CF91DF91FF91EF91BF9133
:10199000AF919F918F917F916F915F914F913F9107
:1019A0002F910F900FBE0F901F9018951F920F92BE
:1019B0000FB60F9211242F933F934F935F936F9322
:1019C0007F938F939F93AF93BF93EF93FF93DF9397
:1019D000CF93CDB7DEB7ECE4F0E080E09FEF9183EA
:1019E00080838091D1019091D201009729F0E091FC
:1019F000D101F091D20109958091D3019091D40148
:101A0000009729F0E091D301F091D4010995CF918D
:101A1000DF91FF91EF91BF91AF919F918F917F9156
:101A20006F915F914F913F912F910F900FBE0F904B
:101A30001F901895DF93CF93CDB7DEB78091D50176
:101A40009091D601692F0E94AB13CF91DF91089539
:101A5000DF93CF93CDB7DEB78091D7019091D801B6
:101A6000692F0E94AB13CF91DF910895DF93CF933D
:101A700000D000D000D0CDB7DEB789837B836A83E6
:101A80008981282F30E03E832D838D819E810097B0
:101A900031F02D813E812130310551F012C0EA81B3
:101AA000FB81808191819093D6018093D5010BC0F9
:101AB000EA81FB81808191819093D8018093D70145
:101AC00002C01C8203C00E94830B8C838C812696EB
:101AD0000FB6F894DEBF0FBECDBFCF91DF91089552
:101AE000DF93CF93CDB7DEB72C970FB6F894DEBF58
:101AF0000FBECDBF8D834E835F83688779876E81EC
:101B00007F81888599850E944904DC01CB01BC0155
:101B1000CD0120E030E040E853E40E941F02DC01E8
:101B2000CB01BC01CD0120E030E048EC52E40E9442
:101B30001903DC01CB01BC01CD010E944900DC018D
:101B4000CB0189839A83AB83BC838D81282F30E0BE
:101B50003C872B878B859C85009731F02B853C85B6
:101B600021303105C9F030C08091D5019091D60166
:101B7000692F41E00E943D108D810E94360C298121
:101B80003A818D81B9010E94A60B2AE13DE08D8149
:101B9000B9010E94DF0B1AC08091D7019091D80142
:101BA000692F41E00E943D108D810E94360C2981F1
:101BB0003A818D81B9010E94A60B28E23DE08D811A
:101BC000B9010E94DF0B02C01A8603C00E94910B6C
:101BD0008A878A852C960FB6F894DEBF0FBECDBFDC
:101BE000CF91DF910895DF93CF93CDB7DEB72E97D6
:101BF0000FB6F894DEBF0FBECDBF8A836B834C83D4
:101C000081E089838B81883008F02CC28A818430FE
:101C100008F028C28A81282F30E03E872D878D85E5
:101C20009E858130910509F498C02D853E8522302E
:101C300031052CF48D859E85009771F011C22D859C
:101C40003E852230310509F409C18D859E8583309A
:101C5000910509F484C104C28C81282F30E03C87AF
:101C60002B878B859C858130910599F12B853C854F
:101C70002230310509F45BC08B859C85009709F003
:101C80006AC0AAE3B0E0EAE3F0E08081482F8B81EC
:101C9000282F30E081E090E002C0880F991F2A953C
:101CA000E2F7809584238C93ABE3B0E0EBE3F0E0C4
:101CB0008081482F8B81282F30E081E090E0022E38
:101CC00002C0880F991F0A94E2F7809584238C93B1
:101CD000CAC1A0E5B0E0E0E5F0E080818B7F8C93A5
:101CE000AAE3B0E0EAE3F0E08081482F8B81282F5F
:101CF00030E081E090E002C0880F991F2A95E2F75A
:101D0000809584238C93ABE3B0E0EBE3F0E080813B
:101D1000482F8B81282F30E081E090E0022E02C016
:101D2000880F991F0A94E2F7842B8C939CC1AAE335
:101D3000B0E0EAE3F0E08081482F8B81282F30E08B
:101D400081E090E0022E02C0880F991F0A94E2F70A
:101D5000842B8C9388C1198286C18C81282F30E016
:101D60003A87298789859A858130910599F1298556
:101D70003A852230310509F45BC089859A85009740
:101D800009F06AC0A7E3B0E0E7E3F0E08081482F04
:101D90008B81282F30E081E090E002C0880F991FEE
:101DA0002A95E2F7809584238C93A8E3B0E0E8E3DA
:101DB000F0E08081482F8B81282F30E081E090E097
:101DC000022E02C0880F991F0A94E2F7809584239F
:101DD0008C9349C1A0E5B0E0E0E5F0E080818B7F25
:101DE0008C93A7E3B0E0E7E3F0E08081482F8B819C
:101DF000282F30E081E090E002C0880F991F2A95DB
:101E0000E2F7809584238C93A8E3B0E0E8E3F0E068
:101E10008081482F8B81282F30E081E090E0022ED6
:101E200002C0880F991F0A94E2F7842B8C931BC180
:101E3000A7E3B0E0E7E3F0E08081482F8B81282F13
:101E400030E081E090E0022E02C0880F991F0A94D2
:101E5000E2F7842B8C9307C1198205C18C81282F4E
:101E600030E038872F838F8198858130910599F1F3
:101E70002F8138852230310509F45BC08F81988528
:101E8000009709F06AC0A4E3B0E0E4E3F0E08081E9
:101E9000482F8B81282F30E081E090E002C0880F2E
:101EA000991F2A95E2F7809584238C93A5E3B0E0EF
:101EB000E5E3F0E08081482F8B81282F30E081E03E
:101EC00090E0022E02C0880F991F0A94E2F78095D5
:101ED00084238C93C8C0A0E5B0E0E0E5F0E0808109
:101EE0008B7F8C93A4E3B0E0E4E3F0E08081482FA3
:101EF0008B81282F30E081E090E002C0880F991F8D
:101F00002A95E2F7809584238C93A5E3B0E0E5E37E
:101F1000F0E08081482F8B81282F30E081E090E035
:101F2000022E02C0880F991F0A94E2F7842B8C932B
:101F30009AC0A4E3B0E0E4E3F0E08081482F8B8115
:101F4000282F30E081E090E0022E02C0880F991F18
:101F50000A94E2F7842B8C9386C0198284C08C810A
:101F6000282F30E03E832D838D819E818130910525
:101F700099F12D813E812230310509F45BC08D81BC
:101F80009E81009709F06AC0A1E3B0E0E1E3F0E0D0
:101F90008081482F8B81282F30E081E090E002C0C3
:101FA000880F991F2A95E2F7809584238C93ABE3E1
:101FB000B0E0EBE3F0E08081482F8B81282F30E008
:101FC00081E090E0022E02C0880F991F0A94E2F788
:101FD000809584238C9347C0A0E5B0E0E0E5F0E075
:101FE00080818B7F8C93A1E3B0E0E1E3F0E080811E
:101FF000482F8B81282F30E081E090E002C0880FCD
:10200000991F2A95E2F7809584238C93A2E3B0E090
:10201000E2E3F0E08081482F8B81282F30E081E0DF
:1020200090E0022E02C0880F991F0A94E2F7842BD9
:102030008C9319C0A1E3B0E0E1E3F0E08081482F88
:102040008B81282F30E081E090E0022E02C0880FC3
:10205000991F0A94E2F7842B8C9305C0198203C060
:10206000198201C0198289812E960FB6F894DEBFBD
:102070000FBECDBFCF91DF910895DF93CF93CDB742
:10208000DEB72E970FB6F894DEBF0FBECDBF8A83A2
:102090006B834C8381E089838B81883008F006C193
:1020A0008A81282F30E03E872D878D859E8581305F
:1020B000910509F450C02D853E85223031052CF460
:1020C0008D859E85009771F0F2C02D853E8522306A
:1020D000310509F479C08D859E858330910509F419
:1020E000ACC0E5C08C81282F30E03C872B878B85E6
:1020F0009C850097C9F02B853C852130310549F539
:10210000ABE3B0E0EBE3F0E08081482F8B81282F38
:1021100030E081E090E0022E02C0880F991F0A94FF
:10212000E2F7842B8C93C3C0ABE3B0E0EBE3F0E0C9
:102130008081482F8B81282F30E081E090E0022EB3
:1021400002C0880F991F0A94E2F7809584238C932C
:10215000AEC01982ACC08C81282F30E03A87298725
:1021600089859A850097C9F029853A8521303105FE
:1021700049F5A8E3B0E0E8E3F0E08081482F8B81E7
:10218000282F30E081E090E0022E02C0880F991FD6
:102190000A94E2F7842B8C938AC0A8E3B0E0E8E3CA
:1021A000F0E08081482F8B81282F30E081E090E0A3
:1021B000022E02C0880F991F0A94E2F780958423AB
:1021C0008C9375C0198273C08C81282F30E03887BA
:1021D0002F838F8198850097C9F02F813885213012
:1021E000310549F5A5E3B0E0E5E3F0E08081482F53
:1021F0008B81282F30E081E090E0022E02C0880F12
:10220000991F0A94E2F7842B8C9351C0A5E3B0E0A8
:10221000E5E3F0E08081482F8B81282F30E081E0DA
:1022200090E0022E02C0880F991F0A94E2F7809571
:1022300084238C933CC019823AC08C81282F30E0D3
:102240003E832D838D819E810097C9F02D813E8133
:102250002130310549F5A2E3B0E0E2E3F0E080810E
:10226000482F8B81282F30E081E090E0022E02C0C1
:10227000880F991F0A94E2F7842B8C9318C0A2E36D
:10228000B0E0E2E3F0E08081482F8B81282F30E03E
:1022900081E090E0022E02C0880F991F0A94E2F7B5
:1022A000809584238C9303C0198201C0198289818F
:1022B0002E960FB6F894DEBF0FBECDBFCF91DF9143
:1022C0000895DF93CF93CDB7DEB727970FB6F89475
:1022D000DEBF0FBECDBF8A836B835D834C8381E0FD
:1022E00089838B81883008F078C08C819D8100972C
:1022F00009F473C08A81282F30E03F832E834E81FA
:102300005F814130510559F18E819F818230910565
:1023100034F42E813F812115310569F05CC04E8176
:102320005F814230510579F18E819F818330910523
:1023300009F43DC050C0E9E3F0E08081282F30E08F
:102340008B81882F90E0A90102C0559547958A9509
:10235000E2F7CA018170EC81FD8180833FC0E6E332
:10236000F0E08081282F30E08B81882F90E0A90158
:1023700002C0559547958A95E2F7CA018170EC81B4
:10238000FD8180832BC0E3E3F0E08081282F30E0E3
:102390008B81882F90E0A90102C0559547958A95B9
:1023A000E2F7CA018170EC81FD81808317C0E0E310
:1023B000F0E08081282F30E08B81882F90E0A90108
:1023C00002C0559547958A95E2F7CA018170EC8164
:1023D000FD81808303C0198201C0198289812796FB
:1023E0000FB6F894DEBF0FBECDBFCF91DF91089539
:1023F000DF93CF93CDB7DEB72D970FB6F894DEBF3E
:102400000FBECDBF8A836B8381E089838A81282FA9
:1024100030E03D872C878C859D858130910509F4BE
:102420004BC02C853D85223031052CF48C859D8553
:10243000009771F0DDC02C853D852230310509F40F
:102440006FC08C859D858330910509F49DC0D0C0F7
:102450008B81282F30E03B872A878A859B858130B6
:102460009105A1F02A853B8522303105F1F08A855E
:102470009B850097F9F4EAE3F0E01082A0E5B0E074
:10248000E0E5F0E0808184608C93B3C0A0E5B0E02B
:10249000E0E5F0E080818B7F8C93EAE3F0E010824E
:1024A000EBE3F0E08FEF8083A4C0EAE3F0E08FEF8E
:1024B00080839FC019829DC08B81282F30E039878F
:1024C00028878885998581309105A1F028853985EF
:1024D00022303105F1F0888599850097F9F4E7E31A
:1024E000F0E01082A0E5B0E0E0E5F0E080818460FB
:1024F0008C937FC0A0E5B0E0E0E5F0E080818B7FC9
:102500008C93E7E3F0E01082E8E3F0E08FEF808364
:1025100070C0E7E3F0E08FEF80836BC0198269C081
:102520008B81282F30E03F832E838E819F818130E5
:102530009105A1F02E813F8122303105F1F08E818D
:102540009F810097F9F4E4E3F0E01082A0E5B0E0A9
:10255000E0E5F0E0808184608C934BC0A0E5B0E0C2
:10256000E0E5F0E080818B7F8C93E4E3F0E0108283
:10257000E5E3F0E08FEF80833CC0E4E3F0E08FEF31
:10258000808337C0198235C08B81282F30E03D838E
:102590002C838C819D8181309105A1F02C813D811E
:1025A00022303105F1F08C819D810097F9F4E1E34F
:1025B000F0E01082A0E5B0E0E0E5F0E0808184602A
:1025C0008C9317C0A0E5B0E0E0E5F0E080818B7F60
:1025D0008C93E1E3F0E01082E2E3F0E08FEF8083A0
:1025E00008C0E1E3F0E08FEF808303C0198201C0EF
:1025F000198289812D960FB6F894DEBF0FBECDBF2C
:10260000CF91DF910895DF93CF9300D000D00F9248
:10261000CDB7DEB78A836B8381E089838B818F3F5F
:1026200019F08B818823A9F58A81282F30E03D831A
:102630002C838C819D8181309105D1F02C813D814D
:10264000223031052CF48C819D81009761F01FC0F0
:102650002C813D812230310581F08C819D81833038
:10266000910581F014C0EBE3F0E08B81808312C010
:10267000E8E3F0E08B8180830DC0E5E3F0E08B813F
:10268000808308C0E2E3F0E08B81808303C019827D
:1026900001C0198289810F900F900F900F900F90B9
:1026A000CF91DF910895DF93CF9300D000D000D079
:1026B000CDB7DEB78A837C836B8381E089838B818E
:1026C0009C810097E9F18A81282F30E03E832D8399
:1026D0008D819E8181309105E1F02D813E812230F6
:1026E00031052CF48D819E81009761F027C02D81EA
:1026F0003E8122303105A1F08D819E81833091058C
:10270000B1F01CC0EBE3F0E08081EB81FC818083C1
:1027100018C0E8E3F0E08081EB81FC81808311C088
:10272000E5E3F0E08081EB81FC8180830AC0E2E395
:10273000F0E08081EB81FC81808303C0198201C0BD
:102740001982898126960FB6F894DEBF0FBECDBFE1
:10275000CF91DF910895DF93CF9300D000D00F92F7
:10276000CDB7DEB78A836B8381E089838A81282F86
:1027700030E03D832C838C819D818130910549F12E
:102780002C813D81223031052CF48C819D81009774
:1027900061F05BC02C813D812230310571F18C816B
:1027A0009D8183309105E9F150C0ABE3B0E0EBE3EC
:1027B000F0E08081482F8B81282F30E081E090E08D
:1027C000022E02C0880F991F0A94E2F784278C9387
:1027D0003DC0A8E3B0E0E8E3F0E08081482F8B81C2
:1027E000282F30E081E090E0022E02C0880F991F70
:1027F0000A94E2F784278C9329C0A5E3B0E0E5E3CF
:10280000F0E08081482F8B81282F30E081E090E03C
:10281000022E02C0880F991F0A94E2F784278C9336
:1028200015C0A2E3B0E0E2E3F0E08081482F8B81A5
:10283000282F30E081E090E0022E02C0880F991F1F
:102840000A94E2F784278C9301C0198289810F9042
:102850000F900F900F900F90CF91DF910895DF931D
:10286000CF93CDB7DEB7E3E5F0E08BE0808381E086
:10287000CF91DF910895DF93CF9300D000D00F92D6
:10288000CDB7DEB79A8389837C836B838091BB014C
:10289000823021F48091BB018D8329C082E0809336
:1028A000BB0189819A819093DA018093D9018B8150
:1028B0009C810097D9F08B819C819093DE0180935D
:1028C000DD01ECE5F0E08DE78083A9E5B0E0E9E526
:1028D000F0E0808182608C93AFE5B0E0EFE5F0E05E
:1028E000808180688C9381E08D8301C01D828D8101
:1028F0000F900F900F900F900F90CF91DF91089550
:10290000DF93CF9300D00F92CDB7DEB79A83898340
:102910008091BB01823021F48091BB018B833BC04D
:1029200082E08093BB011092DC011092DB0189816F
:102930009A819093DA018093D9010E942F14E2E5E5
:10294000F0E01082ECE5F0E08DE78083A9E5B0E0EF
:10295000E9E5F0E0808182608C93AFE5B0E0EFE5DF
:10296000F0E0808180688C932091DB013091DC0164
:102970008091D9019091DA0182179307A8F7A9E510
:10298000B0E0E9E5F0E080818D7F8C9381E0809379
:10299000BB0181E08B838B810F900F900F90CF91C3
:1029A000DF9108951F920F920FB60F9211242F936B
:1029B0003F934F935F936F937F938F939F93AF93C7
:1029C000BF93EF93FF93DF93CF93CDB7DEB78091A3
:1029D000DB019091DC0101969093DC018093DB0197
:1029E0002091DB013091DC018091D9019091DA01D5
:1029F00028173907C9F48091DD019091DE01009715
:102A000099F01092DC011092DB01A9E5B0E0E9E554
:102A1000F0E080818D7F8C9381E08093BB01E09119
:102A2000DD01F091DE010995CF91DF91FF91EF91EA
:102A3000BF91AF919F918F917F916F915F914F91D6
:102A40003F912F910F900FBE0F901F901895DF931D
:102A5000CF9300D0CDB7DEB79A838983E981FA811D
:102A60008081E981FA819181692F42E00E94F30D12
:102A70000F900F90CF91DF910895DF93CF9300D007
:102A8000CDB7DEB79A838983E981FA818081E981B4
:102A9000FA819181692F41E00E943D100F900F90C3
:102AA000CF91DF910895DF93CF9300D0CDB7DEB7FC
:102AB0009A838983E981FA818081E981FA81918110
:102AC000692F40E00E943D100F900F90CF91DF9151
:102AD0000895DF93CF9300D0CDB7DEB79A83898373
:102AE000E981FA818081E981FA819181692F0E94CF
:102AF000AB130F900F90CF91DF910895DF93CF9399
:102B00000F92CDB7DEB782E062E042E00E94F30DA3
:102B100082E063E042E00E94F30D82E064E042E084
:102B20000E94F30D82E065E042E00E94F30D83E035
:102B300062E041E00E94F30D83E063E041E00E9427
:102B4000F30D83E064E041E00E94F30D83E065E073
:102B500041E00E94F30D82E062E041E00E943D10FE
:102B600082E063E041E00E943D1082E064E041E0E9
:102B70000E943D1082E065E041E00E943D100F9010
:102B8000CF91DF910895DF93CF93CDB7DEB76C97E8
:102B90000FB6F894DEBF0FBECDBF9F8B8E8B81E04A
:102BA0008C838FEF8B83CE010696998F888FECEB09
:102BB000F1E0FB8FEA8FF0E1FC8FEA8DFB8D008066
:102BC0008A8D9B8D01969B8F8A8FE88DF98D00826F
:102BD000888D998D0196998F888F9C8D91509C8FAF
:102BE000EC8DEE2351F78E899F89009709F44BC035
:102BF00082E08A833FC082E06A8140E00E943D100B
:102C000082E089832CC09E012B5F3F4F83E0698166
:102C1000A9010E9461118D818823F1F48981882F97
:102C200090E09C01225030408A81882F90E0AC01D6
:102C300042505040220F331F220F331FCE01019606
:102C4000820F931F840F951FFC01359680818B8323
:102C50008CE291E00E94801489818F5F8983898151
:102C6000863088F282E06A8141E00E943D108A81CC
:102C70008F5F8A838A81863008F4BDCFEE89FF8911
:102C80008B81808301C01C828C816C960FB6F89476
:102C9000DEBF0FBECDBFCF91DF910895DF93CF93FD
:102CA00000D00F92CDB7DEB79B838A8381E0898302
:102CB0008A819B81692F41E00E94F30D898389817C
:102CC0000F900F900F90CF91DF910895DF93CF93E6
:102CD00000D000D000D0CDB7DEB79C838B837E833D
:102CE0006D8381E089838D819E81009751F18B8175
:102CF0009C819E012E5F3F4F692FA9010E946111A7
:102D00008A818130C9F48FE090E00E9480148B8129
:102D10009C819E012E5F3F4F692FA9010E94611186
:102D20008A81813029F48A81ED81FE8180830AC005
:102D3000ED81FE81108206C08A81ED81FE81808353
:102D400001C01982898126960FB6F894DEBF0FBEA6
:102D5000CDBFCF91DF910895DF93CF93CDB7DEB78D
:102D600060970FB6F894DEBF0FBECDBF1B8686E01E
:102D70008C871D8683E08E871F86188ACE010B966E
:102D80000E942715CE010D960E942715CE010F96A1
:102D90000E94271560E875E280E090E00E943C0701
:102DA000CE0101960E94E30920E630E0CE010196B3
:102DB000B9010E94B706882389F0CE010B960E94C4
:102DC0003D15CE010F960E945315CE010D960E941F
:102DD000531586E690E00E94E108E2CF28E730E054
:102DE000CE010196B9010E94B706882389F0CE0171
:102DF0000B960E945315CE010F960E945315CE01DB
:102E00000D960E943D158DE790E00E94E108C8CF25
:102E100020E930E0CE010196B9010E94B70688236F
:102E200089F0CE010B960E945315CE010F960E9499
:102E30003D15CE010D960E94531585E990E00E9444
:102E4000E108AECF85EA90E00E94E108A9CF629F39
:102E5000D001739FF001829FE00DF11D649FE00D92
:102E6000F11D929FF00D839FF00D749FF00D659FF3
:102E7000F00D9927729FB00DE11DF91F639FB00DF2
:102E8000E11DF91FBD01CF0111240895A1E21A2E01
:102E9000AA1BBB1BFD010DC0AA1FBB1FEE1FFF1FFE
:102EA000A217B307E407F50720F0A21BB30BE40B4E
:102EB000F50B661F771F881F991F1A9469F7609595
:102EC0007095809590959B01AC01BD01CF0108954F
:102ED0002F923F924F925F926F927F928F929F922A
:102EE000AF92BF92CF92DF92EF92FF920F931F9318
:102EF000CF93DF93CDB7DEB7CA1BDB0B0FB6F894C9
:102F0000DEBF0FBECDBF09942A88398848885F8408
:102F10006E847D848C849B84AA84B984C884DF8079
:102F2000EE80FD800C811B81AA81B981CE0FD11D5D
:102F30000FB6F894DEBF0FBECDBFED010895F89433
:022F4000FFCFC1
:102F4200535441525400477265656E204C454420EB
:102F52006973206F6E0D0A00574149540059656C20
:102F62006C6F77204C4544206973206F6E0D0A0008
:102F720053544F5000524544204C4544206973201D
:102F82006F6E0D0A0057726F6E6720496E7075740E
:102F92000D0A000000000000000000000102020310
:102FA20003030304040404040404040505050505DD
:102FB20005050505050505050505050606060606BA
:102FC200060606060606060606060606060606069F
:102FD200060606060606060606060607070707078A
:102FE200070707070707070707070707070707076F
:102FF200070707070707070707070707070707075F
:10300200070707070707070707070707070707074E
:103012000707070707070707070707080808080839
:10302200080808080808080808080808080808081E
:10303200080808080808080808080808080808080E
:1030420008080808080808080808080808080808FE
:1030520008080808080808080808080808080808EE
:1030620008080808080808080808080808080808DE
:1030720008080808080808080808080808080808CE
:1030820008080808080808080808080808080808BE
:103092000808080808080808080808010708092D90
:0C30A2000405062A0102032F63002E45DE
:00000001FF
