:100000000C942A000C9447000C9447000C94470071
:100010000C9447000C9447000C9447000C94470044
:100020000C9447000C9447000C9401100C9447006A
:100030000C94CC060C94A7040C94E1040C94470097
:100040000C9447000C9447000C9447000C948E08C5
:100050000C94470011241FBECFE5D8E0DEBFCDBF12
:1000600010E0A0E6B0E0EEECF6E202C005900D92E2
:10007000A03FB107D9F711E0A0EFB0E001C01D9299
:10008000A030B107E1F70E9491120C9465130C9413
:100090000000DF93CF93CDB7DEB729970FB6F89462
:1000A000DEBF0FBECDBF9F838E83798768871D8299
:1000B0001C821B821A828C818F5F8C838D818F5F63
:1000C0008D838D81282F30E08E819F81FC01E20F8E
:1000D000F31F8081882359F08D81282F30E08E8195
:1000E0009F81FC01E20FF31F80818D3021F71D827B
:1000F0008B818F5F8B838D818F5F8D838D81282F87
:1001000030E088859985FC01E20FF31F8081882308
:1001100059F08D81282F30E088859985FC01E20F08
:10012000F31F80818D3021F71D829B818C81981770
:1001300001F51D821AC08D81282F30E08E819F81AC
:10014000FC01E20FF31F40818D81282F30E088856C
:100150009985FC01E20FF31F8081481751F48A81D1
:100160008F5F8A838D818F5F8D839D818C819817AE
:1001700010F39C818A81981731F48A81882319F0C1
:1001800081E0898301C01982898129960FB6F8948C
:10019000DEBF0FBECDBFCF91DF910895DF93CF9328
:1001A00000D000D00F92CDB7DEB79D838C831B8229
:1001B0001A82198222C08981282F30E08C819D818A
:1001C000FC01E20FF31F8081882F90E09C012053F7
:1001D00030408981882F90E0A90102C0440F551F4B
:1001E0008A95E2F7CA019C018A819B81822B932B1D
:1001F0009B838A8389818F5F898389818131D8F24A
:100200008A810F900F900F900F900F90CF91DF91F8
:100210000895DF93CF9300D000D00F92CDB7DEB713
:100220009D838C8381E08B83A0E4B0E0E0E4F0E088
:10023000808180688C93A0E4B0E0E0E4F0E080810D
:100240008F7B8C93ABE2B0E0EBE2F0E080818D7FBE
:100250008C938C819D81CC01A0E0B0E0880F991F28
:10026000AA1FBB1F880F991FAA1FBB1F880F991FAA
:10027000AA1FBB1F880F991FAA1FBB1F9C01AD019E
:1002800080E092E1AAE7B0E0BC01CD010E944313F7
:10029000DA01C90101979A838983A0E4B0E0E0E420
:1002A000F0E0808182608C93A0E4B0E0E0E4F0E0D4
:1002B000808184608C93AAE2B0E0EAE2F0E0808181
:1002C0008B7F8C93A0E4B0E0E0E4F0E080818F7E4F
:1002D0008C93A0E4B0E0E0E4F0E080818F7D8C932B
:1002E000A0E4B0E0E0E4F0E08081877F8C93E9E275
:1002F000F0E089818083E0E4F0E089819A81892FB0
:1003000099278083AAE2B0E0EAE2F0E08081806190
:100310008C93AAE2B0E0EAE2F0E0808188608C93FE
:100320008B81813019F481E08093F0008B810F90F4
:100330000F900F900F900F90CF91DF910895DF9362
:10034000CF9300D0CDB7DEB78A838091F0008130A3
:1003500089F4EBE2F0E08081829586958770882FA2
:1003600090E0817090700097A1F3ECE2F0E08A8158
:10037000808302C088E0898389810F900F90CF919C
:10038000DF9108950F931F93DF93CF93CDB7DEB71F
:10039000C857D0400FB6F894DEBF0FBECDBFFE01E8
:1003A000ED58FF4F9183808384E6FE013F96DF0185
:1003B000282F1D922A95E9F781E08F8318861986E8
:1003C0001A861B861C861D861E861D82FE01ED5820
:1003D000FF4F80819181009709F051C08D81282FB6
:1003E00030E0CE010F96FC01E20FF31F80E3808323
:1003F0008D818F5F8D8343C0FE01ED58FF4F80815B
:1004000091812AE030E0B9010E942F1389838D8108
:10041000A82FB0E0E896BFAFAEAFE89789818A30E9
:1004200038F08981B82FB95AE696BFAFE69706C073
:100430008981E82FE05DE696EFAFE697CE010F9653
:10044000E896EEADFFADE897E80FF91FE6962FAD01
:10045000E69720838D818F5F8D838E010D581F4F0E
:10046000FE01ED58FF4F808191812AE030E0B90113
:100470000E942F13CB01D80111969C938E93FE01FD
:10048000ED58FF4F80819181009709F0B5CF8D81A4
:10049000282F30E0CE010F96FC01E20FF31F1082EF
:1004A0001C828D8181508B8328C08C81882F90E0A5
:1004B000FE013F96E80FF91F80818A838C81882F87
:1004C00090E0DE011F96A80FB91F8B81882F90E066
:1004D000FE013F96E80FF91F80818C938B81882F56
:1004E00090E0FE013F96E80FF91F8A8180838C819E
:1004F0008F5F8C838B8181508B839C818B8198173C
:10050000A0F2CE010F960E949102C858DF4F0FB69D
:10051000F894DEBF0FBECDBFCF91DF911F910F9139
:100520000895DF93CF9300D000D000D0CDB7DEB7D1
:100530009E838D8381E08C831A8219828091F000E2
:100540008130E1F48D819E810097A9F02D813E815B
:1005500089819A81F901E80FF91F80818B838B8152
:100560000E949F0189819A8101969A8389838B8158
:10057000882361F705C087E08C8302C088E08C8304
:100580008C8126960FB6F894DEBF0FBECDBFCF91FB
:10059000DF910895DF93CF9300D00F92CDB7DEB7F0
:1005A0009B838A8381E089838091F000813099F474
:1005B0008A819B81009761F0EBE2F0E080818823E3
:1005C000DCF7ECE2F0E08081EA81FB81808305C00A
:1005D00087E0898302C088E0898389810F900F902A
:1005E0000F90CF91DF910895DF93CF93CDB7DEB712
:1005F00064970FB6F894DEBF0FBECDBF9B8B8A8B7E
:100600001E8281E090E09D838C83EA89FB891182C0
:100610001082CE0107960E9474031B8203C08E8154
:100620008F5F8E838E81282F30E0CE010796FC01EC
:10063000E20FF31F80818D3091F71A8247C09E81AF
:100640008A81292F281B822F8150898311C08C8198
:100650009D819C01220F331FC901880F991F880FAC
:10066000991F820F931F9D838C8389818150898379
:100670008981882361F7EA89FB89408151818B81D7
:10068000282F30E0CE010796FC01E20FF31F808196
:10069000882F90E0C0979C018C819D81BC01269F92
:1006A000C001279F900D369F900D1124840F951F38
:1006B000EA89FB89918380838B818F5F8B8381E0C3
:1006C00090E09D838C838A818F5F8A839A818E815B
:1006D000981708F4B4CF64960FB6F894DEBF0FBE37
:1006E000CDBFCF91DF910895DF93CF9300D000D09D
:1006F00000D0CDB7DEB79E838D8381E08B838D8163
:100700009E819A8389838091F0008130D9F48D8114
:100710009E810097A1F0CE0104960E94CA028C81AE
:10072000E981FA81808389819A8101969A838983FC
:100730008C818D3081F7E981FA81108205C087E0D4
:100740008B8302C088E08B838B8126960FB6F8944A
:10075000DEBF0FBECDBFCF91DF910895DF93CF9362
:10076000CDB7DEB727970FB6F894DEBF0FBECDBF6B
:100770009E838D836F8381E08B838D819E819A839D
:1007800089838091F0008130F1F48D819E81009702
:10079000B9F0CE0104960E94CA028C81E981FA81E7
:1007A000808389819A8101969A8389838F81815080
:1007B0008F838C818D3049F08F81882351F705C05C
:1007C00087E08B8302C088E08B838B8127960FB6EE
:1007D000F894DEBF0FBECDBFCF91DF910895DF93B8
:1007E000CF9300D00F92CDB7DEB79B838A8381E091
:1007F00089838091F0008130E1F48A819B810097A8
:10080000A9F08A819B819093F2008093F100AAE283
:10081000B0E0EAE2F0E0808180688C93AFE5B0E080
:10082000EFE5F0E0808180688C9305C087E08983E4
:1008300002C088E0898389810F900F900F90CF913B
:10084000DF910895DF93CF9300D00F92CDB7DEB73D
:100850009B838A8381E089838091F0008130E1F479
:100860008A819B810097A9F08A819B819093F400F3
:100870008093F300AAE2B0E0EAE2F0E080818064D5
:100880008C93AFE5B0E0EFE5F0E0808180688C9379
:1008900005C087E0898302C088E0898389810F9041
:1008A0000F900F90CF91DF910895DF93CF93CDB745
:1008B000DEB71092F2001092F100AAE2B0E0EAE294
:1008C000F0E080818F778C93CF91DF910895DF9353
:1008D000CF93CDB7DEB71092F4001092F300AAE2E6
:1008E000B0E0EAE2F0E080818F7B8C93CF91DF91E2
:1008F0000895DF93CF93CDB7DEB7AAE2B0E0EAE286
:10090000F0E080818F7E8C93AAE2B0E0EAE2F0E032
:100910008081877F8C931092F4001092F3001092E4
:10092000F2001092F100AAE2B0E0EAE2F0E0808189
:100930008F778C93AAE2B0E0EAE2F0E080818F7BCF
:100940008C9381E08093F000CF91DF9108951F9206
:100950000F920FB60F9211242F933F934F935F93F3
:100960006F937F938F939F93AF93BF93EF93FF9377
:10097000DF93CF930F92CDB7DEB78091F1009091C6
:10098000F200009731F0E091F100F091F20009954A
:1009900004C0ECE2F0E0808189830F90CF91DF9179
:1009A000FF91EF91BF91AF919F918F917F916F9147
:1009B0005F914F913F912F910F900FBE0F901F901D
:1009C00018951F920F920FB60F9211242F933F93F9
:1009D0004F935F936F937F938F939F93AF93BF9347
:1009E000EF93FF93DF93CF93CDB7DEB78091F30002
:1009F0009091F400009729F0E091F300F091F40059
:100A00000995CF91DF91FF91EF91BF91AF919F91A8
:100A10008F917F916F915F914F913F912F910F90A7
:100A20000FBE0F901F901895DF93CF9300D0CDB7D6
:100A3000DEB78A8381E0898389EE90E00E945610B8
:100A4000ADE2B0E0EDE2F0E080818E7F8C93ADE22C
:100A5000B0E0EDE2F0E080818D7F8C93AEE2B0E01B
:100A6000EEE2F0E080818E7F8C93ADE2B0E0EDE2CB
:100A7000F0E080818B7F8C93ADE2B0E0EDE2F0E0BE
:100A80008081877F8C93ADE2B0E0EDE2F0E0808181
:100A900080628C938A81813021F5ADE2B0E0EDE295
:100AA000F0E0808180618C93A7E3B0E0E7E3F0E0C1
:100AB000808180628C93A7E3B0E0E7E3F0E080817F
:100AC00080618C93A8E3B0E0E8E3F0E0808180618E
:100AD0008C93A7E3B0E0E7E3F0E0808180688C933B
:100AE00014C08A81823079F4ADE2B0E0EDE2F0E04A
:100AF00080818F7E8C93A7E3B0E0E7E3F0E0808114
:100B000080648C9302C085E089838981813051F4AF
:100B1000ADE2B0E0EDE2F0E0808180648C938A8108
:100B20008093F50089810F900F90CF91DF91089508
:100B3000DF93CF9300D00F92CDB7DEB78B8381E0E8
:100B40008A838091F5008823A9F0A8E3B0E0E8E368
:100B5000F0E080818F7E8C93EFE2F0E08B818083E8
:100B6000EEE2F0E080818823DCF7EFE2F0E08081C4
:100B7000898302C086E08A838A810F900F900F904C
:100B8000CF91DF910895DF93CF9300D000D0CDB700
:100B9000DEB79C838B8381E08A8319828091F50084
:100BA000882329F18B819C810097F1F00EC0898107
:100BB000282F30E08B819C81FC01E20FF31F8081A4
:100BC0000E94980589818F5F89838981282F30E071
:100BD0008B819C81FC01E20FF31F8081882339F710
:100BE00080E00E94980505C087E08A8302C086E005
:100BF0008A838A810F900F900F900F90CF91DF9191
:100C00000895DF93CF9300D00F92CDB7DEB79B83CB
:100C10008A8381E089838091F500882399F08A8115
:100C20009B81009761F0EEE2F0E080818823DCF7A1
:100C3000EFE2F0E08081EA81FB81808305C087E0FC
:100C4000898302C086E0898389810F900F900F907D
:100C5000CF91DF910895DF93CF9300D000D00F9212
:100C6000CDB7DEB79D838C8381E08A831982809122
:100C7000F500882331F18C819D810097F9F0CE0138
:100C800003960E9401068981282F30E08C819D8186
:100C9000FC01E20FF31F8B81808389818F5F898341
:100CA0008B81882361F78981282F30E08C819D8199
:100CB000FC01E20FF31F8B81808305C087E08A83EC
:100CC00002C086E08A838A810F900F900F900F9068
:100CD0000F90CF91DF910895DF93CF9300D00F92C3
:100CE000CDB7DEB79B838A8381E089838091F5004D
:100CF0008823E1F08A819B810097A9F08A819B81FA
:100D00009093F7008093F600ADE2B0E0EDE2F0E002
:100D1000808180688C93AFE5B0E0EFE5F0E0808102
:100D200080688C9305C087E0898302C086E0898350
:100D300089810F900F900F90CF91DF910895DF93ED
:100D4000CF93CDB7DEB71092F7001092F600ADE268
:100D5000B0E0EDE2F0E080818F778C93CF91DF916E
:100D60000895DF93CF93CDB7DEB7ADE2B0E0EDE20B
:100D7000F0E080818F7B8C931092F7001092F60048
:100D8000ADE2B0E0EDE2F0E080818F778C931092DD
:100D9000F500CF91DF910895DF93CF93CDB7DEB704
:100DA0008091F6009091F700009729F0E091F6000D
:100DB000F091F7000995CF91DF910895DF93CF93DC
:100DC0000F92CDB7DEB781E08983E0E2F0E088E4FE
:100DD0008083E2E2F0E082E08083A6E5B0E0E6E531
:100DE000F0E0808180648C93A6E5B0E0E6E5F0E079
:100DF000808181608C93AFE5B0E0EFE5F0E0808129
:100E000080688C93A6E5B0E0E6E5F0E08081846040
:100E10008C9388EF90E00E9456108BEE90E00E9439
:100E2000561089810F90CF91DF910895DF93CF9372
:100E3000CDB7DEB7E1E2F0E08081887FCF91DF912E
:100E40000895DF93CF9300D00F92CDB7DEB78A839A
:100E50006B8381E08983E6E5F0E080818823DCF71D
:100E60008091ED00883021F08091ED00803171F4A7
:100E7000E3E2F0E09A818B81892B8083A6E5B0E0E4
:100E8000E6E5F0E080818F7080688C93E6E5F0E025
:100E900080818823DCF789810F900F900F90CF918C
:100EA000DF910895DF93CF9300D0CDB7DEB78A836B
:100EB00081E08983E3E2F0E08A818083A6E5B0E007
:100EC000E6E5F0E080818F7080688C93E6E5F0E0E5
:100ED00080818823DCF789810F900F90CF91DF917B
:100EE0000895DF93CF930F92CDB7DEB781E089836A
:100EF0008091ED00883F69F4A6E5B0E0E6E5F0E01A
:100F0000808180628C93E6E5F0E080818823DCF7C5
:100F100002C086E0898389810F90CF91DF91089587
:100F2000DF93CF930F92CDB7DEB781E08983E6E5FB
:100F3000F0E080818823DCF78091ED00883221F099
:100F40008091ED00803349F4A6E5B0E0E6E5F0E0FD
:100F500080818F70806A8C9302C085E0898389814B
:100F60000F90CF91DF910895DF93CF9300D00F9230
:100F7000CDB7DEB79B838A8381E08983E6E5F0E025
:100F800080818823DCF78091ED00803421F080910E
:100F9000ED008035C1F488EF90E00E946C10A6E56A
:100FA000B0E0E6E5F0E080818F70806C8C93E6E540
:100FB000F0E080818823DCF7E3E2F0E08081EA81E1
:100FC000FB8180830EC08091ED00883451F487E06E
:100FD0008983A6E5B0E0E6E5F0E080818F70806966
:100FE0008C9389810F900F900F90CF91DF9108958E
:100FF000DF93CF9300D00F92CDB7DEB79B838A8368
:1010000081E08983E6E5F0E080818823DCF7809148
:10101000ED00803421F08091ED008035A1F4A6E54B
:10102000B0E0E6E5F0E080818F7080688C93E6E5C3
:10103000F0E080818823DCF7E3E2F0E08081EA8160
:10104000FB8180830EC08091ED00883451F487E0ED
:101050008983A6E5B0E0E6E5F0E080818F708069E5
:101060008C9389810F900F900F90CF91DF9108950D
:10107000DF93CF930F92CDB7DEB781E08983809164
:10108000ED00883021F48091ED00803149F4A6E52F
:10109000B0E0E6E5F0E080818F7080698C9302C05B
:1010A00085E0898388EF8093ED0089810F90CF914F
:1010B000DF910895DF93CF9300D00F92CDB7DEB7C5
:1010C0009A838983E6E5F0E080818823DCF7A6E552
:1010D000B0E0E6E5F0E080818F70806C8C938091C9
:1010E000ED00803821F08091ED008838C1F7A6E549
:1010F000B0E0E6E5F0E080818F70806C8C9388EF43
:101100008093ED00E3E2F0E08081E981FA81808361
:101110000F900F900F90CF91DF9108951F920F9233
:101120000FB60F9211248F93EF93FF93DF93CF931A
:10113000CDB7DEB7E1E2F0E08081887F8093ED00FB
:10114000CF91DF91FF91EF918F910F900FBE0F9094
:101150001F901895DF93CF93CDB7DEB72E970FB6BC
:10116000F894DEBF0FBECDBF8A836B834C8381E0D2
:1011700089838B81883008F02CC28A81843008F002
:1011800028C28A81282F30E03E872D878D859E8555
:101190008130910509F498C02D853E8522303105B6
:1011A0002CF48D859E85009771F011C22D853E85AA
:1011B0002230310509F409C18D859E858330910562
:1011C00009F484C104C28C81282F30E03C872B872E
:1011D0008B859C858130910599F12B853C8522304A
:1011E000310509F45BC08B859C85009709F06AC0C6
:1011F000AAE3B0E0EAE3F0E08081482F8B81282F5A
:1012000030E081E090E002C0880F991F2A95E2F754
:10121000809584238C93ABE3B0E0EBE3F0E0808136
:10122000482F8B81282F30E081E090E0022E02C011
:10123000880F991F0A94E2F7809584238C93CAC182
:10124000A0E5B0E0E0E5F0E080818B7F8C93AAE33D
:10125000B0E0EAE3F0E08081482F8B81282F30E076
:1012600081E090E002C0880F991F2A95E2F78095EF
:1012700084238C93ABE3B0E0EBE3F0E08081482F74
:101280008B81282F30E081E090E0022E02C0880F91
:10129000991F0A94E2F7842B8C939CC1AAE3B0E0D7
:1012A000EAE3F0E08081482F8B81282F30E081E055
:1012B00090E0022E02C0880F991F0A94E2F7842B57
:1012C0008C9388C1198286C18C81282F30E03A879F
:1012D000298789859A858130910599F129853A85F3
:1012E0002230310509F45BC089859A85009709F0A1
:1012F0006AC0A7E3B0E0E7E3F0E08081482F8B818C
:10130000282F30E081E090E002C0880F991F2A95D5
:10131000E2F7809584238C93A8E3B0E0E8E3F0E063
:101320008081482F8B81282F30E081E090E0022ED1
:1013300002C0880F991F0A94E2F7809584238C934A
:1013400049C1A0E5B0E0E0E5F0E080818B7F8C93BF
:10135000A7E3B0E0E7E3F0E08081482F8B81282FFE
:1013600030E081E090E002C0880F991F2A95E2F7F3
:10137000809584238C93A8E3B0E0E8E3F0E08081DB
:10138000482F8B81282F30E081E090E0022E02C0B0
:10139000880F991F0A94E2F7842B8C931BC1A7E353
:1013A000B0E0E7E3F0E08081482F8B81282F30E028
:1013B00081E090E0022E02C0880F991F0A94E2F7A4
:1013C000842B8C9307C1198205C18C81282F30E0B2
:1013D00038872F838F8198858130910599F12F81EE
:1013E00038852230310509F45BC08F8198850097DC
:1013F00009F06AC0A4E3B0E0E4E3F0E08081482FA4
:101400008B81282F30E081E090E002C0880F991F87
:101410002A95E2F7809584238C93A5E3B0E0E5E379
:10142000F0E08081482F8B81282F30E081E090E030
:10143000022E02C0880F991F0A94E2F78095842338
:101440008C93C8C0A0E5B0E0E0E5F0E080818B7F40
:101450008C93A4E3B0E0E4E3F0E08081482F8B813B
:10146000282F30E081E090E002C0880F991F2A9574
:10147000E2F7809584238C93A5E3B0E0E5E3F0E008
:101480008081482F8B81282F30E081E090E0022E70
:1014900002C0880F991F0A94E2F7842B8C939AC09C
:1014A000A4E3B0E0E4E3F0E08081482F8B81282FB3
:1014B00030E081E090E0022E02C0880F991F0A946C
:1014C000E2F7842B8C9386C0198284C08C81282FEC
:1014D00030E03E832D838D819E818130910599F18D
:1014E0002D813E812230310509F45BC08D819E81C2
:1014F000009709F06AC0A1E3B0E0E1E3F0E0808189
:10150000482F8B81282F30E081E090E002C0880FC7
:10151000991F2A95E2F7809584238C93ABE3B0E082
:10152000EBE3F0E08081482F8B81282F30E081E0D1
:1015300090E0022E02C0880F991F0A94E2F780956E
:1015400084238C9347C0A0E5B0E0E0E5F0E0808123
:101550008B7F8C93A1E3B0E0E1E3F0E08081482F42
:101560008B81282F30E081E090E002C0880F991F26
:101570002A95E2F7809584238C93A2E3B0E0E2E31E
:10158000F0E08081482F8B81282F30E081E090E0CF
:10159000022E02C0880F991F0A94E2F7842B8C93C5
:1015A00019C0A1E3B0E0E1E3F0E08081482F8B8136
:1015B000282F30E081E090E0022E02C0880F991FB2
:1015C0000A94E2F7842B8C9305C0198203C0198218
:1015D00001C0198289812E960FB6F894DEBF0FBE26
:1015E000CDBFCF91DF910895DF93CF93CDB7DEB715
:1015F0002E970FB6F894DEBF0FBECDBF8A836B83E4
:101600004C8381E089838B81883008F006C18A8110
:10161000282F30E03E872D878D859E85813091056E
:1016200009F450C02D853E85223031052CF48D857E
:101630009E85009771F0F2C02D853E8522303105E0
:1016400009F479C08D859E858330910509F4ACC07D
:10165000E5C08C81282F30E03C872B878B859C85CB
:101660000097C9F02B853C852130310549F5ABE366
:10167000B0E0EBE3F0E08081482F8B81282F30E051
:1016800081E090E0022E02C0880F991F0A94E2F7D1
:10169000842B8C93C3C0ABE3B0E0EBE3F0E080813C
:1016A000482F8B81282F30E081E090E0022E02C08D
:1016B000880F991F0A94E2F7809584238C93AEC01B
:1016C0001982ACC08C81282F30E03A872987898520
:1016D0009A850097C9F029853A852130310549F569
:1016E000A8E3B0E0E8E3F0E08081482F8B81282F69
:1016F00030E081E090E0022E02C0880F991F0A942A
:10170000E2F7842B8C938AC0A8E3B0E0E8E3F0E032
:101710008081482F8B81282F30E081E090E0022EDD
:1017200002C0880F991F0A94E2F7809584238C9356
:1017300075C0198273C08C81282F30E038872F83C1
:101740008F8198850097C9F02F8138852130310528
:1017500049F5A5E3B0E0E5E3F0E08081482F8B8117
:10176000282F30E081E090E0022E02C0880F991F00
:101770000A94E2F7842B8C9351C0A5E3B0E0E5E333
:10178000F0E08081482F8B81282F30E081E090E0CD
:10179000022E02C0880F991F0A94E2F780958423D5
:1017A0008C933CC019823AC08C81282F30E03E8354
:1017B0002D838D819E810097C9F02D813E8121303E
:1017C000310549F5A2E3B0E0E2E3F0E08081482F83
:1017D0008B81282F30E081E090E0022E02C0880F3C
:1017E000991F0A94E2F7842B8C9318C0A2E3B0E00F
:1017F000E2E3F0E08081482F8B81282F30E081E008
:1018000090E0022E02C0880F991F0A94E2F780959B
:1018100084238C9303C0198201C0198289812E967A
:101820000FB6F894DEBF0FBECDBFCF91DF91089504
:10183000DF93CF93CDB7DEB727970FB6F894DEBF0F
:101840000FBECDBF8A836B835D834C8381E0898328
:101850008B81883008F078C08C819D81009709F4D5
:1018600073C08A81282F30E03F832E834E815F81B1
:101870004130510559F18E819F818230910534F4B8
:101880002E813F812115310569F05CC04E815F8159
:101890004230510579F18E819F818330910509F4A1
:1018A0003DC050C0E9E3F0E08081282F30E08B811B
:1018B000882F90E0A90102C0559547958A95E2F7D7
:1018C000CA018170EC81FD8180833FC0E6E3F0E0D6
:1018D0008081282F30E08B81882F90E0A90102C001
:1018E000559547958A95E2F7CA018170EC81FD8193
:1018F00080832BC0E3E3F0E08081282F30E08B81F0
:10190000882F90E0A90102C0559547958A95E2F786
:10191000CA018170EC81FD81808317C0E0E3F0E0B3
:101920008081282F30E08B81882F90E0A90102C0B0
:10193000559547958A95E2F7CA018170EC81FD8142
:10194000808303C0198201C01982898127960FB64E
:10195000F894DEBF0FBECDBFCF91DF910895DF9326
:10196000CF93CDB7DEB72D970FB6F894DEBF0FBE7D
:10197000CDBF8A836B8381E089838A81282F30E001
:101980003D872C878C859D858130910509F44BC05E
:101990002C853D85223031052CF48C859D85009762
:1019A00071F0DDC02C853D852230310509F46FC012
:1019B0008C859D858330910509F49DC0D0C08B81B5
:1019C000282F30E03B872A878A859B8581309105C7
:1019D000A1F02A853B8522303105F1F08A859B856F
:1019E0000097F9F4EAE3F0E01082A0E5B0E0E0E56A
:1019F000F0E0808184608C93B3C0A0E5B0E0E0E5C6
:101A0000F0E080818B7F8C93EAE3F0E01082EBE3DF
:101A1000F0E08FEF8083A4C0EAE3F0E08FEF8083F3
:101A20009FC019829DC08B81282F30E0398728877D
:101A30008885998581309105A1F0288539852230E6
:101A40003105F1F0888599850097F9F4E7E3F0E036
:101A50001082A0E5B0E0E0E5F0E0808184608C9346
:101A60007FC0A0E5B0E0E0E5F0E080818B7F8C9363
:101A7000E7E3F0E01082E8E3F0E08FEF808370C0EE
:101A8000E7E3F0E08FEF80836BC0198269C08B8140
:101A9000282F30E03F832E838E819F8181309105F6
:101AA000A1F02E813F8122303105F1F08E819F819E
:101AB0000097F9F4E4E3F0E01082A0E5B0E0E0E59F
:101AC000F0E0808184608C934BC0A0E5B0E0E0E55D
:101AD000F0E080818B7F8C93E4E3F0E01082E5E31B
:101AE000F0E08FEF80833CC0E4E3F0E08FEF808391
:101AF00037C0198235C08B81282F30E03D832C837D
:101B00008C819D8181309105A1F02C813D81223015
:101B10003105F1F08C819D810097F9F4E1E3F0E06B
:101B20001082A0E5B0E0E0E5F0E0808184608C9375
:101B300017C0A0E5B0E0E0E5F0E080818B7F8C93FA
:101B4000E1E3F0E01082E2E3F0E08FEF808308C091
:101B5000E1E3F0E08FEF808303C0198201C01982B6
:101B600089812D960FB6F894DEBF0FBECDBFCF9101
:101B7000DF910895DF93CF9300D000D00F92CDB7BF
:101B8000DEB78A836B8381E089838B818F3F19F075
:101B90008B818823A9F58A81282F30E03D832C830F
:101BA0008C819D8181309105D1F02C813D81223045
:101BB00031052CF48C819D81009761F01FC02C8130
:101BC0003D812230310581F08C819D8183309105EA
:101BD00081F014C0EBE3F0E08B81808312C0E8E376
:101BE000F0E08B8180830DC0E5E3F0E08B818083A2
:101BF00008C0E2E3F0E08B81808303C0198201C05A
:101C0000198289810F900F900F900F900F90CF91B4
:101C1000DF910895DF93CF9300D000D000D0CDB7EF
:101C2000DEB78A837C836B8381E089838B819C818F
:101C30000097E9F18A81282F30E03E832D838D8142
:101C40009E8181309105E1F02D813E812230310568
:101C50002CF48D819E81009761F027C02D813E81FB
:101C600022303105A1F08D819E8183309105B1F044
:101C70001CC0EBE3F0E08081EB81FC81808318C025
:101C8000E8E3F0E08081EB81FC81808311C0E5E333
:101C9000F0E08081EB81FC8180830AC0E2E3F0E028
:101CA0008081EB81FC81808303C0198201C019828D
:101CB000898126960FB6F894DEBF0FBECDBFCF91B7
:101CC000DF910895DF93CF9300D000D00F92CDB76E
:101CD000DEB78A836B8381E089838A81282F30E095
:101CE0003D832C838C819D818130910549F12C812C
:101CF0003D81223031052CF48C819D81009761F06B
:101D00005BC02C813D812230310571F18C819D8138
:101D100083309105E9F150C0ABE3B0E0EBE3F0E0D4
:101D20008081482F8B81282F30E081E090E0022EC7
:101D300002C0880F991F0A94E2F784278C933DC054
:101D4000A8E3B0E0E8E3F0E08081482F8B81282F02
:101D500030E081E090E0022E02C0880F991F0A94C3
:101D6000E2F784278C9329C0A5E3B0E0E5E3F0E037
:101D70008081482F8B81282F30E081E090E0022E77
:101D800002C0880F991F0A94E2F784278C9315C02C
:101D9000A2E3B0E0E2E3F0E08081482F8B81282FBE
:101DA00030E081E090E0022E02C0880F991F0A9473
:101DB000E2F784278C9301C0198289810F900F90DC
:101DC0000F900F900F90CF91DF910895DF93CF93F5
:101DD00000D000D00F92CDB7DEB78A836B8381E04D
:101DE00089838A81282F30E03D832C838C819D81DB
:101DF0008130910531F12C813D81223031052CF467
:101E00008C819D81009761F04FC02C813D812230F3
:101E1000310541F18C819D8183309105A1F144C050
:101E2000ABE3B0E0EBE3F0E0808187788C93ABE349
:101E3000B0E0EBE3F0E090818B818695892B8C9369
:101E400034C0A8E3B0E0E8E3F0E0808187788C93C9
:101E5000A8E3B0E0E8E3F0E090818B818695892BE0
:101E60008C9323C0A5E3B0E0E5E3F0E080818778C0
:101E70008C93A5E3B0E0E5E3F0E090818B8186955B
:101E8000892B8C9312C0A2E3B0E0E2E3F0E0808102
:101E900087788C93A2E3B0E0E2E3F0E090818B815D
:101EA0008695892B8C9301C0198289810F900F90A0
:101EB0000F900F900F90CF91DF910895DF93CF9304
:101EC000CDB7DEB7E3E5F0E08BE0808381E0CF9132
:101ED000DF910895DF93CF9300D000D00F92CDB75C
:101EE000DEB79A8389837C836B838091EE00823096
:101EF00021F48091EE008D8329C082E08093EE0072
:101F000089819A819093FB008093FA008B819C8158
:101F10000097D9F08B819C819093FF008093FE0005
:101F2000ECE5F0E08DE78083A9E5B0E0E9E5F0E0DD
:101F3000808182608C93AFE5B0E0EFE5F0E08081D6
:101F400080688C9381E08D8301C01D828D810F900C
:101F50000F900F900F900F90CF91DF910895DF9326
:101F6000CF9300D00F92CDB7DEB79A83898380914B
:101F7000EE00823021F48091EE008B833BC082E042
:101F80008093EE001092FD001092FC0089819A81EE
:101F90009093FB008093FA000E945E0FE2E5F0E070
:101FA0001082ECE5F0E08DE78083A9E5B0E0E9E59B
:101FB000F0E0808182608C93AFE5B0E0EFE5F0E087
:101FC000808180688C932091FC003091FD0080918D
:101FD000FA009091FB0082179307A8F7A9E5B0E0FB
:101FE000E9E5F0E080818D7F8C9381E08093EE00C5
:101FF00081E08B838B810F900F900F90CF91DF91B9
:1020000008951F920F920FB60F9211242F933F93B2
:102010004F935F936F937F938F939F93AF93BF93F0
:10202000EF93FF93DF93CF93CDB7DEB78091FC00A2
:102030009091FD0001969093FD008093FC0020910B
:10204000FC003091FD008091FA009091FB00281770
:102050003907C9F48091FE009091FF00009799F034
:102060001092FD001092FC00A9E5B0E0E9E5F0E077
:1020700080818D7F8C9381E08093EE00E091FE0063
:10208000F091FF000995CF91DF91FF91EF91BF9102
:10209000AF919F918F917F916F915F914F913F9100
:1020A0002F910F900FBE0F901F901895DF93CF9335
:1020B00000D0CDB7DEB79A838983E981FA81808128
:1020C000E981FA819181692F42E00E94AA080F906C
:1020D0000F90CF91DF910895DF93CF9300D0CDB7CC
:1020E000DEB79A838983E981FA818081E981FA8167
:1020F0009181692F41E00E94F40A0F900F90CF91D7
:10210000DF910895DF93CF9300D0CDB7DEB79A83E8
:102110008983E981FA818081E981FA819181692F3E
:1021200040E00E94F40A0F900F90CF91DF91089544
:10213000DF93CF9300D0CDB7DEB79A838983E9814F
:10214000FA818081E981FA819181692F0E94620E72
:102150000F900F90CF91DF910895DF93CF93CDB77C
:10216000DEB70E94DE06CF91DF910895DF93CF9313
:10217000CDB7DEB728970FB6F894DEBF0FBECDBF40
:102180008C837E836D834F838C81882F90E0880FB2
:10219000991F806A8B838D819E81892F99278A83DD
:1021A0008D8189830E9471078B8160E00E942107E5
:1021B0008A810E94520789810E9452078F810E9462
:1021C00052070E94380828960FB6F894DEBF0FBE5B
:1021D000CDBFCF91DF910895DF93CF93CDB7DEB719
:1021E00029970FB6F894DEBF0FBECDBF8C837E83D8
:1021F0006D8358874F838C81882F90E0880F991FBB
:10220000806A8B838D819E81892F99278A838D8116
:1022100089830E9471078B8160E00E9421078A8177
:102220000E94520789810E9452070E9490078B8169
:1022300061E00E9421078F8198850E94F8070E9423
:10224000380829960FB6F894DEBF0FBECDBFCF91E8
:10225000DF910895DF93CF93CDB7DEB72A970FB6FE
:10226000F894DEBF0FBECDBF8D837F836E83598709
:1022700048878D81882F90E0880F991F806A8C8312
:102280008E819F81892F99278B838E818A831982E2
:102290000E9471078C8160E00E9421078B810E945F
:1022A00052078A810E9452070EC08981282F30E090
:1022B00088859985FC01E20FF31F80810E945207F7
:1022C00089818F5F89838981282F30E0888599856E
:1022D000FC01E20FF31F8081882319F089818F337D
:1022E00021F780E00E9452070E9438082A960FB614
:1022F000F894DEBF0FBECDBFCF91DF910895DF937D
:10230000CF93CDB7DEB72B970FB6F894DEBF0FBED5
:10231000CDBF8E8378876F835A8749878E81882FB8
:1023200090E0880F991F806A8C838F819885892F10
:1023300099278B838F818A8319820E9471078C81F0
:1023400060E00E9421078B810E9452078A810E94CF
:1023500052070E9490078C8161E00E9421078981C9
:10236000282F30E089859A85820F931F0E94B40739
:1023700089818F5F89838981882F90E09C0121501A
:10238000304089859A85FC01E20FF31F8081882304
:1023900031F7CE0105960E94F8070E9438082B9667
:1023A0000FB6F894DEBF0FBECDBFCF91DF91089579
:1023B000DF93CF93CDB7DEB72A970FB6F894DEBF81
:1023C0000FBECDBF8D837F836E83598748878885F5
:1023D00099859A8389839C812E813F818D81B90162
:1023E000492F0E94B6108AE090E00E94AF0F8E81C4
:1023F0009F819C012F5F3F4F9B818D81B901492FA8
:102400000E94B6108AE090E00E94AF0F8E819F81FB
:102410009C012E5F3F4F9A818D81B901492F0E9407
:10242000B6108AE090E00E94AF0F8E819F819C01E0
:102430002D5F3F4F99818D81B901492F0E94B610C0
:102440008AE090E00E94AF0F2A960FB6F894DEBFA4
:102450000FBECDBFCF91DF910895DF93CF93CDB75E
:10246000DEB72E970FB6F894DEBF0FBECDBF8987BB
:102470007B876A875D874C874A855B85CE01059699
:102480009C012D5F3F4F8985BA01A9010E94EC1084
:102490008AE090E00E94AF0F8A859B85AC014F5F78
:1024A0005F4FCE0105969C012E5F3F4F8985BA0193
:1024B000A9010E94EC108AE090E00E94AF0F8A858B
:1024C0009B85AC014E5F5F4FCE0105969C012F5F4F
:1024D0003F4F8985BA01A9010E94EC108AE090E083
:1024E0000E94AF0F8A859B859C012D5F3F4FAE01F7
:1024F0004B5F5F4F8985B9010E94EC108AE090E044
:102500000E94AF0F8D819E81EC85FD859183808334
:102510002E960FB6F894DEBF0FBECDBFCF91DF91E0
:102520000895DF93CF93CDB7DEB7C258D0400FB632
:10253000F894DEBF0FBECDBF0E94DE0680E895E2B4
:102540000E94090180E690E00E949102CE0103966C
:102550000E947403CE01039625E730E0B9010E9482
:1025600049008823D1F18BE790E00E949102CE01CF
:102570000D9660E10E94AE03CE010D960E94CE0042
:102580009A8389838DE00E949F0182E990E00E94F6
:10259000910289819A810E94C2018DE00E949F016F
:1025A00082EA90E00E949102CE014F960E9474034D
:1025B00086EB90E00E949102CE014F960E9491021C
:1025C0008DE00E949F0129813A81AE01415E5F4FFB
:1025D00080E0B9010E942A113FC0CE01039623EC8E
:1025E00030E0B9010E944900882391F18BE790E027
:1025F0000E949102CE010D9660E10E94AE03CE01D1
:102600000D960E94CE009A8389838DE00E949F01DF
:1026100082E990E00E94910289819A810E94C20120
:102620008DE00E949F0129813A81AE01415E5F4F9A
:1026300080E0B9010E947F1188EC90E00E94910235
:10264000CE014F960E9491028DE00E949F0104C02E
:102650008DED90E00E9491020E94380873CFAA1B72
:10266000BB1B51E107C0AA1FBB1FA617B70710F07D
:10267000A61BB70B881F991F5A95A9F780959095AF
:10268000BC01CD010895A1E21A2EAA1BBB1BFD01BE
:102690000DC0AA1FBB1FEE1FFF1FA217B307E40741
:1026A000F50720F0A21BB30BE40BF50B661F771F99
:1026B000881F991F1A9469F7609570958095909579
:0E26C0009B01AC01BD01CF010895F894FFCF3E
:1026CE00456E74657220596F757220436F6D6D6122
:1026DE006E643A2000575249544500456E74657237
:1026EE0020454550524F4D20416464726573730D01
:1026FE000A004F4B20416464726573732069733A0C
:10270E002000456E74657220454550524F4D204451
:10271E006174610D0A004F4B20446174612069732E
:10272E003A2000524541440054686520446174616A
:10273E002053746F7265642069733A200057726F6C
:10274E006E6720496E7075740000070001F8010075
:00000001FF
