:100000000C942A000C9447000C9447000C94470071
:100010000C9447000C9447000C9447000C94470044
:100020000C9447000C9447000C9447000C94470034
:100030000C947C040C9457020C9491020C9447008D
:100040000C9447000C9447000C9447000C943E0617
:100050000C94470011241FBECFE5D8E0DEBFCDBF12
:1000600010E0A0E6B0E0E8E4FBE102C005900D92EC
:10007000A636B107D9F710E0A6E6B0E001C01D92A0
:10008000A037B107E1F70E94650D0C94A20D0C9406
:100090000000DF93CF9300D000D00F92CDB7DEB732
:1000A0009D838C8381E08B83A0E4B0E0E0E4F0E00A
:1000B000808180688C93A0E4B0E0E0E4F0E080818F
:1000C0008F7B8C93ABE2B0E0EBE2F0E080818D7F40
:1000D0008C938C819D81CC01A0E0B0E0880F991FAA
:1000E000AA1FBB1F880F991FAA1FBB1F880F991F2C
:1000F000AA1FBB1F880F991FAA1FBB1F9C01AD0120
:1001000080E092E1AAE7B0E0BC01CD010E94800D41
:10011000DA01C90101979A838983A0E4B0E0E0E4A1
:10012000F0E0808182608C93A0E4B0E0E0E4F0E055
:10013000808184608C93AAE2B0E0EAE2F0E0808102
:100140008B7F8C93A0E4B0E0E0E4F0E080818F7ED0
:100150008C93A0E4B0E0E0E4F0E080818F7D8C93AC
:10016000A0E4B0E0E0E4F0E08081877F8C93E9E2F6
:10017000F0E089818083E0E4F0E089819A81892F31
:1001800099278083AAE2B0E0EAE2F0E08081806112
:100190008C93AAE2B0E0EAE2F0E0808188608C9380
:1001A0008B81813019F481E0809366008B810F9000
:1001B0000F900F900F900F90CF91DF910895DF93E4
:1001C000CF9300D0CDB7DEB78A83809166008130AF
:1001D00089F4EBE2F0E08081829586958770882F24
:1001E00090E0817090700097A1F3ECE2F0E08A81DA
:1001F000808302C088E0898389810F900F90CF911E
:10020000DF910895DF93CF9300D000D000D0CDB719
:10021000DEB79E838D8381E08C831A821982809160
:1002200066008130F9F48D819E810097C1F02D81A7
:100230003E8189819A81F901E80FF91F80818B83C2
:100240008B810E94DF0089819A8101969A8389833C
:100250008B81882361F78DE00E94DF0005C087E075
:100260008C8302C088E08C838C8126960FB6F8942C
:10027000DEBF0FBECDBFCF91DF910895DF93CF9347
:1002800000D00F92CDB7DEB79B838A8381E089834C
:1002900080916600813099F48A819B81009761F09A
:1002A000EBE2F0E080818823DCF7ECE2F0E0808193
:1002B000EA81FB81808305C087E0898302C088E0F2
:1002C000898389810F900F900F90CF91DF910895CE
:1002D000DF93CF9300D000D000D0CDB7DEB79E83A0
:1002E0008D8381E08B838D819E819A838983809128
:1002F00066008130C1F48D819E81009789F0CE0126
:1003000004960E943E018C81E981FA818083898173
:100310009A8101969A8389838C818D3081F705C0FB
:1003200087E08B8302C088E08B838B8126960FB693
:10033000F894DEBF0FBECDBFCF91DF910895DF935C
:10034000CF9300D00F92CDB7DEB79B838A8381E035
:100350008983809166008130E1F48A819B810097D6
:10036000A9F08A819B819093680080936700AAE23C
:10037000B0E0EAE2F0E0808180688C93AFE5B0E025
:10038000EFE5F0E0808180688C9305C087E0898389
:1003900002C088E0898389810F900F900F90CF91E0
:1003A000DF910895DF93CF9300D00F92CDB7DEB7E2
:1003B0009B838A8381E08983809166008130E1F4A8
:1003C0008A819B810097A9F08A819B8190936A0022
:1003D00080936900AAE2B0E0EAE2F0E08081806404
:1003E0008C93AFE5B0E0EFE5F0E0808180688C931E
:1003F00005C087E0898302C088E0898389810F90E6
:100400000F900F90CF91DF910895DF93CF93CDB7E9
:10041000DEB71092680010926700AAE2B0E0EAE24C
:10042000F0E080818F778C93CF91DF910895DF93F7
:10043000CF93CDB7DEB710926A0010926900AAE29E
:10044000B0E0EAE2F0E080818F7B8C93CF91DF9186
:100450000895DF93CF93CDB7DEB7AAE2B0E0EAE22A
:10046000F0E080818F7E8C93AAE2B0E0EAE2F0E0D7
:100470008081877F8C9310926A001092690010929D
:10048000680010926700AAE2B0E0EAE2F0E0808142
:100490008F778C93AAE2B0E0EAE2F0E080818F7B74
:1004A0008C9381E080936600CF91DF9108951F9235
:1004B0000F920FB60F9211242F933F934F935F9398
:1004C0006F937F938F939F93AF93BF93EF93FF931C
:1004D000DF93CF930F92CDB7DEB7809167009091F5
:1004E0006800009731F0E0916700F091680009958D
:1004F00004C0ECE2F0E0808189830F90CF91DF911E
:10050000FF91EF91BF91AF919F918F917F916F91EB
:100510005F914F913F912F910F900FBE0F901F90C1
:1005200018951F920F920FB60F9211242F933F939D
:100530004F935F936F937F938F939F93AF93BF93EB
:10054000EF93FF93DF93CF93CDB7DEB78091690030
:1005500090916A00009729F0E0916900F0916A009B
:100560000995CF91DF91FF91EF91BF91AF919F914D
:100570008F917F916F915F914F913F912F910F904C
:100580000FBE0F901F901895DF93CF9300D0CDB77B
:10059000DEB78A8381E0898380E690E00E940E0DB9
:1005A000ADE2B0E0EDE2F0E080818E7F8C93ADE2D1
:1005B000B0E0EDE2F0E080818D7F8C93AEE2B0E0C0
:1005C000EEE2F0E080818E7F8C93ADE2B0E0EDE270
:1005D000F0E080818B7F8C93ADE2B0E0EDE2F0E063
:1005E0008081877F8C93ADE2B0E0EDE2F0E0808126
:1005F00080628C938A81813021F5ADE2B0E0EDE23A
:10060000F0E0808180618C93A7E3B0E0E7E3F0E065
:10061000808180628C93A7E3B0E0E7E3F0E0808123
:1006200080618C93A8E3B0E0E8E3F0E08081806132
:100630008C93A7E3B0E0E7E3F0E0808180688C93DF
:1006400014C08A81823079F4ADE2B0E0EDE2F0E0EE
:1006500080818F7E8C93A7E3B0E0E7E3F0E08081B8
:1006600080648C9302C085E089838981813051F454
:10067000ADE2B0E0EDE2F0E0808180648C938A81AD
:1006800080936B0089810F900F90CF91DF91089537
:10069000DF93CF9300D00F92CDB7DEB78B8381E08D
:1006A0008A8380916B008823A9F0A8E3B0E0E8E397
:1006B000F0E080818F7E8C93EFE2F0E08B8180838D
:1006C000EEE2F0E080818823DCF7EFE2F0E0808169
:1006D000898302C086E08A838A810F900F900F90F1
:1006E000CF91DF910895DF93CF9300D000D0CDB7A5
:1006F000DEB79C838B8381E08A83198280916B00B3
:10070000882329F18B819C810097F1F00EC08981AB
:10071000282F30E08B819C81FC01E20FF31F808148
:100720000E94480389818F5F89838981282F30E067
:100730008B819C81FC01E20FF31F8081882339F7B4
:1007400080E00E94480305C087E08A8302C086E0FB
:100750008A838A810F900F900F900F90CF91DF9135
:100760000895DF93CF9300D00F92CDB7DEB79B8370
:100770008A8381E0898380916B00882399F08A8144
:100780009B81009761F0EEE2F0E080818823DCF746
:10079000EFE2F0E08081EA81FB81808305C087E0A1
:1007A000898302C086E0898389810F900F900F9022
:1007B000CF91DF910895DF93CF9300D000D00F92B7
:1007C000CDB7DEB79D838C8381E08A8319828091C7
:1007D0006B00882331F18C819D810097F9F0CE0167
:1007E00003960E94B1038981282F30E08C819D817E
:1007F000FC01E20FF31F8B81808389818F5F8983E6
:100800008B81882361F78981282F30E08C819D813D
:10081000FC01E20FF31F8B81808305C087E08A8390
:1008200002C086E08A838A810F900F900F900F900C
:100830000F90CF91DF910895DF93CF9300D00F9267
:10084000CDB7DEB79B838A8381E0898380916B007B
:100850008823E1F08A819B810097A9F08A819B819E
:1008600090936D0080936C00ADE2B0E0EDE2F0E0BB
:10087000808180688C93AFE5B0E0EFE5F0E08081A7
:1008800080688C9305C087E0898302C086E08983F5
:1008900089810F900F900F90CF91DF910895DF9392
:1008A000CF93CDB7DEB710926D0010926C00ADE221
:1008B000B0E0EDE2F0E080818F778C93CF91DF9113
:1008C0000895DF93CF93CDB7DEB7ADE2B0E0EDE2B0
:1008D000F0E080818F7B8C9310926D0010926C0001
:1008E000ADE2B0E0EDE2F0E080818F778C93109282
:1008F0006B00CF91DF910895DF93CF93CDB7DEB733
:1009000080916C0090916D00009729F0E0916C004F
:10091000F0916D000995CF91DF910895DF93CF930A
:100920000F92CDB7DEB781E08983E0E2F0E088E4A2
:100930008083E2E2F0E082E08083A6E5B0E0E6E5D5
:10094000F0E0808180648C93A6E5B0E0E6E5F0E01D
:10095000808181608C93AFE5B0E0EFE5F0E08081CD
:1009600080688C93A6E5B0E0E6E5F0E080818460E5
:100970008C938EE690E00E940E0D82E690E00E943D
:100980000E0D89810F90CF91DF910895DF93CF9362
:10099000CDB7DEB7E1E2F0E08081887FCF91DF91D3
:1009A0000895DF93CF9300D00F92CDB7DEB78A833F
:1009B0006B8381E08983E6E5F0E080818823DCF7C2
:1009C00080916400883021F080916400803171F45E
:1009D000E3E2F0E09A818B81892B8083A6E5B0E089
:1009E000E6E5F0E080818F7080688C93E6E5F0E0CA
:1009F00080818823DCF789810F900F900F90CF9131
:100A0000DF910895DF93CF9300D0CDB7DEB78A830F
:100A100081E08983E3E2F0E08A818083A6E5B0E0AB
:100A2000E6E5F0E080818F7080688C93E6E5F0E089
:100A300080818823DCF789810F900F90CF91DF911F
:100A40000895DF93CF930F92CDB7DEB781E089830E
:100A500080916400883F69F4A6E5B0E0E6E5F0E047
:100A6000808180628C93E6E5F0E080818823DCF76A
:100A700002C086E0898389810F90CF91DF9108952C
:100A8000DF93CF930F92CDB7DEB781E08983E6E5A0
:100A9000F0E080818823DCF780916400883221F0C7
:100AA00080916400803349F4A6E5B0E0E6E5F0E02B
:100AB00080818F70806A8C9302C085E089838981F0
:100AC0000F90CF91DF910895DF93CF9300D00F92D5
:100AD000CDB7DEB79B838A8381E08983E6E5F0E0CA
:100AE00080818823DCF780916400803421F080913C
:100AF00064008035C1F48EE690E00E94240DA6E5E6
:100B0000B0E0E6E5F0E080818F70806C8C93E6E5E4
:100B1000F0E080818823DCF7E3E2F0E08081EA8185
:100B2000FB8180830EC080916400883451F487E09B
:100B30008983A6E5B0E0E6E5F0E080818F7080690A
:100B40008C9389810F900F900F90CF91DF91089532
:100B5000DF93CF9300D00F92CDB7DEB79B838A830C
:100B600081E08983E6E5F0E080818823DCF78091ED
:100B70006400803421F0809164008035A1F4A6E502
:100B8000B0E0E6E5F0E080818F7080688C93E6E568
:100B9000F0E080818823DCF7E3E2F0E08081EA8105
:100BA000FB8180830EC080916400883451F487E01B
:100BB0008983A6E5B0E0E6E5F0E080818F7080698A
:100BC0008C9389810F900F900F90CF91DF910895B2
:100BD000DF93CF930F92CDB7DEB781E08983809109
:100BE0006400883021F480916400803149F4A6E5E6
:100BF000B0E0E6E5F0E080818F7080698C9302C000
:100C000085E0898388EF8093640089810F90CF917C
:100C1000DF910895DF93CF9300D00F92CDB7DEB769
:100C20009A838983E6E5F0E080818823DCF7A6E5F6
:100C3000B0E0E6E5F0E080818F70806C8C9380916D
:100C40006400803821F0809164008838C1F7A6E5FF
:100C5000B0E0E6E5F0E080818F70806C8C9388EFE7
:100C600080936400E3E2F0E08081E981FA8180838F
:100C70000F900F900F90CF91DF9108951F920F92D8
:100C80000FB60F9211248F93EF93FF93DF93CF93BF
:100C9000CDB7DEB7E1E2F0E08081887F8093640029
:100CA000CF91DF91FF91EF918F910F900FBE0F9039
:100CB0001F901895DF93CF93CDB7DEB72E970FB661
:100CC000F894DEBF0FBECDBF8A836B834C8381E077
:100CD00089838B81883008F02CC28A81843008F0A7
:100CE00028C28A81282F30E03E872D878D859E85FA
:100CF0008130910509F498C02D853E85223031055B
:100D00002CF48D859E85009771F011C22D853E854E
:100D10002230310509F409C18D859E858330910506
:100D200009F484C104C28C81282F30E03C872B87D2
:100D30008B859C858130910599F12B853C852230EE
:100D4000310509F45BC08B859C85009709F06AC06A
:100D5000AAE3B0E0EAE3F0E08081482F8B81282FFE
:100D600030E081E090E002C0880F991F2A95E2F7F9
:100D7000809584238C93ABE3B0E0EBE3F0E08081DB
:100D8000482F8B81282F30E081E090E0022E02C0B6
:100D9000880F991F0A94E2F7809584238C93CAC127
:100DA000A0E5B0E0E0E5F0E080818B7F8C93AAE3E2
:100DB000B0E0EAE3F0E08081482F8B81282F30E01B
:100DC00081E090E002C0880F991F2A95E2F7809594
:100DD00084238C93ABE3B0E0EBE3F0E08081482F19
:100DE0008B81282F30E081E090E0022E02C0880F36
:100DF000991F0A94E2F7842B8C939CC1AAE3B0E07C
:100E0000EAE3F0E08081482F8B81282F30E081E0F9
:100E100090E0022E02C0880F991F0A94E2F7842BFB
:100E20008C9388C1198286C18C81282F30E03A8743
:100E3000298789859A858130910599F129853A8597
:100E40002230310509F45BC089859A85009709F045
:100E50006AC0A7E3B0E0E7E3F0E08081482F8B8130
:100E6000282F30E081E090E002C0880F991F2A957A
:100E7000E2F7809584238C93A8E3B0E0E8E3F0E008
:100E80008081482F8B81282F30E081E090E0022E76
:100E900002C0880F991F0A94E2F7809584238C93EF
:100EA00049C1A0E5B0E0E0E5F0E080818B7F8C9364
:100EB000A7E3B0E0E7E3F0E08081482F8B81282FA3
:100EC00030E081E090E002C0880F991F2A95E2F798
:100ED000809584238C93A8E3B0E0E8E3F0E0808180
:100EE000482F8B81282F30E081E090E0022E02C055
:100EF000880F991F0A94E2F7842B8C931BC1A7E3F8
:100F0000B0E0E7E3F0E08081482F8B81282F30E0CC
:100F100081E090E0022E02C0880F991F0A94E2F748
:100F2000842B8C9307C1198205C18C81282F30E056
:100F300038872F838F8198858130910599F12F8192
:100F400038852230310509F45BC08F819885009780
:100F500009F06AC0A4E3B0E0E4E3F0E08081482F48
:100F60008B81282F30E081E090E002C0880F991F2C
:100F70002A95E2F7809584238C93A5E3B0E0E5E31E
:100F8000F0E08081482F8B81282F30E081E090E0D5
:100F9000022E02C0880F991F0A94E2F780958423DD
:100FA0008C93C8C0A0E5B0E0E0E5F0E080818B7FE5
:100FB0008C93A4E3B0E0E4E3F0E08081482F8B81E0
:100FC000282F30E081E090E002C0880F991F2A9519
:100FD000E2F7809584238C93A5E3B0E0E5E3F0E0AD
:100FE0008081482F8B81282F30E081E090E0022E15
:100FF00002C0880F991F0A94E2F7842B8C939AC041
:10100000A4E3B0E0E4E3F0E08081482F8B81282F57
:1010100030E081E090E0022E02C0880F991F0A9410
:10102000E2F7842B8C9386C0198284C08C81282F90
:1010300030E03E832D838D819E818130910599F131
:101040002D813E812230310509F45BC08D819E8166
:10105000009709F06AC0A1E3B0E0E1E3F0E080812D
:10106000482F8B81282F30E081E090E002C0880F6C
:10107000991F2A95E2F7809584238C93ABE3B0E027
:10108000EBE3F0E08081482F8B81282F30E081E076
:1010900090E0022E02C0880F991F0A94E2F7809513
:1010A00084238C9347C0A0E5B0E0E0E5F0E08081C8
:1010B0008B7F8C93A1E3B0E0E1E3F0E08081482FE7
:1010C0008B81282F30E081E090E002C0880F991FCB
:1010D0002A95E2F7809584238C93A2E3B0E0E2E3C3
:1010E000F0E08081482F8B81282F30E081E090E074
:1010F000022E02C0880F991F0A94E2F7842B8C936A
:1011000019C0A1E3B0E0E1E3F0E08081482F8B81DA
:10111000282F30E081E090E0022E02C0880F991F56
:101120000A94E2F7842B8C9305C0198203C01982BC
:1011300001C0198289812E960FB6F894DEBF0FBECA
:10114000CDBFCF91DF910895DF93CF93CDB7DEB7B9
:101150002E970FB6F894DEBF0FBECDBF8A836B8388
:101160004C8381E089838B81883008F006C18A81B5
:10117000282F30E03E872D878D859E858130910513
:1011800009F450C02D853E85223031052CF48D8523
:101190009E85009771F0F2C02D853E852230310585
:1011A00009F479C08D859E858330910509F4ACC022
:1011B000E5C08C81282F30E03C872B878B859C8570
:1011C0000097C9F02B853C852130310549F5ABE30B
:1011D000B0E0EBE3F0E08081482F8B81282F30E0F6
:1011E00081E090E0022E02C0880F991F0A94E2F776
:1011F000842B8C93C3C0ABE3B0E0EBE3F0E08081E1
:10120000482F8B81282F30E081E090E0022E02C031
:10121000880F991F0A94E2F7809584238C93AEC0BF
:101220001982ACC08C81282F30E03A8729878985C4
:101230009A850097C9F029853A852130310549F50D
:10124000A8E3B0E0E8E3F0E08081482F8B81282F0D
:1012500030E081E090E0022E02C0880F991F0A94CE
:10126000E2F7842B8C938AC0A8E3B0E0E8E3F0E0D7
:101270008081482F8B81282F30E081E090E0022E82
:1012800002C0880F991F0A94E2F7809584238C93FB
:1012900075C0198273C08C81282F30E038872F8366
:1012A0008F8198850097C9F02F81388521303105CD
:1012B00049F5A5E3B0E0E5E3F0E08081482F8B81BC
:1012C000282F30E081E090E0022E02C0880F991FA5
:1012D0000A94E2F7842B8C9351C0A5E3B0E0E5E3D8
:1012E000F0E08081482F8B81282F30E081E090E072
:1012F000022E02C0880F991F0A94E2F7809584237A
:101300008C933CC019823AC08C81282F30E03E83F8
:101310002D838D819E810097C9F02D813E812130E2
:10132000310549F5A2E3B0E0E2E3F0E08081482F27
:101330008B81282F30E081E090E0022E02C0880FE0
:10134000991F0A94E2F7842B8C9318C0A2E3B0E0B3
:10135000E2E3F0E08081482F8B81282F30E081E0AC
:1013600090E0022E02C0880F991F0A94E2F7809540
:1013700084238C9303C0198201C0198289812E961F
:101380000FB6F894DEBF0FBECDBFCF91DF910895A9
:10139000DF93CF93CDB7DEB727970FB6F894DEBFB4
:1013A0000FBECDBF8A836B835D834C8381E08983CD
:1013B0008B81883008F078C08C819D81009709F47A
:1013C00073C08A81282F30E03F832E834E815F8156
:1013D0004130510559F18E819F818230910534F45D
:1013E0002E813F812115310569F05CC04E815F81FE
:1013F0004230510579F18E819F818330910509F446
:101400003DC050C0E9E3F0E08081282F30E08B81BF
:10141000882F90E0A90102C0559547958A95E2F77B
:10142000CA018170EC81FD8180833FC0E6E3F0E07A
:101430008081282F30E08B81882F90E0A90102C0A5
:10144000559547958A95E2F7CA018170EC81FD8137
:1014500080832BC0E3E3F0E08081282F30E08B8194
:10146000882F90E0A90102C0559547958A95E2F72B
:10147000CA018170EC81FD81808317C0E0E3F0E058
:101480008081282F30E08B81882F90E0A90102C055
:10149000559547958A95E2F7CA018170EC81FD81E7
:1014A000808303C0198201C01982898127960FB6F3
:1014B000F894DEBF0FBECDBFCF91DF910895DF93CB
:1014C000CF93CDB7DEB72D970FB6F894DEBF0FBE22
:1014D000CDBF8A836B8381E089838A81282F30E0A6
:1014E0003D872C878C859D858130910509F44BC003
:1014F0002C853D85223031052CF48C859D85009707
:1015000071F0DDC02C853D852230310509F46FC0B6
:101510008C859D858330910509F49DC0D0C08B8159
:10152000282F30E03B872A878A859B85813091056B
:10153000A1F02A853B8522303105F1F08A859B8513
:101540000097F9F4EAE3F0E01082A0E5B0E0E0E50E
:10155000F0E0808184608C93B3C0A0E5B0E0E0E56A
:10156000F0E080818B7F8C93EAE3F0E01082EBE384
:10157000F0E08FEF8083A4C0EAE3F0E08FEF808398
:101580009FC019829DC08B81282F30E03987288722
:101590008885998581309105A1F02885398522308B
:1015A0003105F1F0888599850097F9F4E7E3F0E0DB
:1015B0001082A0E5B0E0E0E5F0E0808184608C93EB
:1015C0007FC0A0E5B0E0E0E5F0E080818B7F8C9308
:1015D000E7E3F0E01082E8E3F0E08FEF808370C093
:1015E000E7E3F0E08FEF80836BC0198269C08B81E5
:1015F000282F30E03F832E838E819F81813091059B
:10160000A1F02E813F8122303105F1F08E819F8142
:101610000097F9F4E4E3F0E01082A0E5B0E0E0E543
:10162000F0E0808184608C934BC0A0E5B0E0E0E501
:10163000F0E080818B7F8C93E4E3F0E01082E5E3BF
:10164000F0E08FEF80833CC0E4E3F0E08FEF808335
:1016500037C0198235C08B81282F30E03D832C8321
:101660008C819D8181309105A1F02C813D812230BA
:101670003105F1F08C819D810097F9F4E1E3F0E010
:101680001082A0E5B0E0E0E5F0E0808184608C931A
:1016900017C0A0E5B0E0E0E5F0E080818B7F8C939F
:1016A000E1E3F0E01082E2E3F0E08FEF808308C036
:1016B000E1E3F0E08FEF808303C0198201C019825B
:1016C00089812D960FB6F894DEBF0FBECDBFCF91A6
:1016D000DF910895DF93CF9300D000D00F92CDB764
:1016E000DEB78A836B8381E089838B818F3F19F01A
:1016F0008B818823A9F58A81282F30E03D832C83B4
:101700008C819D8181309105D1F02C813D812230E9
:1017100031052CF48C819D81009761F01FC02C81D4
:101720003D812230310581F08C819D81833091058E
:1017300081F014C0EBE3F0E08B81808312C0E8E31A
:10174000F0E08B8180830DC0E5E3F0E08B81808346
:1017500008C0E2E3F0E08B81808303C0198201C0FE
:10176000198289810F900F900F900F900F90CF9159
:10177000DF910895DF93CF9300D000D000D0CDB794
:10178000DEB78A837C836B8381E089838B819C8134
:101790000097E9F18A81282F30E03E832D838D81E7
:1017A0009E8181309105E1F02D813E81223031050D
:1017B0002CF48D819E81009761F027C02D813E81A0
:1017C00022303105A1F08D819E8183309105B1F0E9
:1017D0001CC0EBE3F0E08081EB81FC81808318C0CA
:1017E000E8E3F0E08081EB81FC81808311C0E5E3D8
:1017F000F0E08081EB81FC8180830AC0E2E3F0E0CD
:101800008081EB81FC81808303C0198201C0198231
:10181000898126960FB6F894DEBF0FBECDBFCF915B
:10182000DF910895DF93CF9300D000D00F92CDB712
:10183000DEB78A836B8381E089838A81282F30E039
:101840003D832C838C819D818130910549F12C81D0
:101850003D81223031052CF48C819D81009761F00F
:101860005BC02C813D812230310571F18C819D81DD
:1018700083309105E9F150C0ABE3B0E0EBE3F0E079
:101880008081482F8B81282F30E081E090E0022E6C
:1018900002C0880F991F0A94E2F784278C933DC0F9
:1018A000A8E3B0E0E8E3F0E08081482F8B81282FA7
:1018B00030E081E090E0022E02C0880F991F0A9468
:1018C000E2F784278C9329C0A5E3B0E0E5E3F0E0DC
:1018D0008081482F8B81282F30E081E090E0022E1C
:1018E00002C0880F991F0A94E2F784278C9315C0D1
:1018F000A2E3B0E0E2E3F0E08081482F8B81282F63
:1019000030E081E090E0022E02C0880F991F0A9417
:10191000E2F784278C9301C0198289810F900F9080
:101920000F900F900F90CF91DF910895DF93CF9399
:1019300000D000D00F92CDB7DEB78A836B8381E0F1
:1019400089838A81282F30E03D832C838C819D817F
:101950008130910531F12C813D81223031052CF40B
:101960008C819D81009761F04FC02C813D81223098
:10197000310541F18C819D8183309105A1F144C0F5
:10198000ABE3B0E0EBE3F0E0808187788C93ABE3EE
:10199000B0E0EBE3F0E090818B818695892B8C930E
:1019A00034C0A8E3B0E0E8E3F0E0808187788C936E
:1019B000A8E3B0E0E8E3F0E090818B818695892B85
:1019C0008C9323C0A5E3B0E0E5E3F0E08081877865
:1019D0008C93A5E3B0E0E5E3F0E090818B81869500
:1019E000892B8C9312C0A2E3B0E0E2E3F0E08081A7
:1019F00087788C93A2E3B0E0E2E3F0E090818B8102
:101A00008695892B8C9301C0198289810F900F9044
:101A10000F900F900F90CF91DF910895DF93CF93A8
:101A200000D0CDB7DEB79A838983E981FA818081BE
:101A3000E981FA819181692F42E00E945A060F9054
:101A40000F90CF91DF910895DF93CF9300D0CDB762
:101A5000DEB79A838983E981FA818081E981FA81FD
:101A60009181692F41E00E94A4080F900F90CF91BF
:101A7000DF910895DF93CF9300D0CDB7DEB79A837F
:101A80008983E981FA818081E981FA819181692FD5
:101A900040E00E94A4080F900F90CF91DF9108952D
:101AA000DF93CF9300D0CDB7DEB79A838983E981E6
:101AB000FA818081E981FA819181692F0E94120C5B
:101AC0000F900F90CF91DF910895DF93CF930F92F6
:101AD000CDB7DEB70E948E0480E895E20E944900EF
:101AE000CE0101960E943E010E94210582E060E045
:101AF0000E94D10489810E9402050E94E805F0CF6E
:101B0000A1E21A2EAA1BBB1BFD010DC0AA1FBB1F01
:101B1000EE1FFF1FA217B307E407F50720F0A21B73
:101B2000B30BE40BF50B661F771F881F991F1A94E0
:101B300069F760957095809590959B01AC01BD010A
:081B4000CF010895F894FFCFD6
:061B480000070001F80097
:00000001FF
