:100000000C942A000C9447000C9447000C94470071
:100010000C9447000C9447000C9447000C949809EA
:100020000C94CB090C94FE090C9467110C944700B6
:100030000C9447000C9447000C9447000C94470024
:100040000C9447000C9447000C9447000C94470014
:100050000C94470011241FBECFE5D8E0DEBFCDBF12
:1000600011E0A0E6B0E0E6EDF8E202C005900D92E6
:10007000A438B107D9F711E0A4E8B1E001C01D929E
:10008000A039B107E1F70E94E3130C9469140C94B2
:100090000000EF92FF920F931F937B018C0120E0F1
:1000A00030E040E05FE40E94C50388238CF0C80183
:1000B000B70120E030E040E05FE40E94C1010E940F
:1000C000F5039B01AC01205030404040504806C031
:1000D000C801B7010E94F5039B01AC01B901CA0137
:1000E0001F910F91FF90EF900895A0E0B0E0EBE733
:1000F000F0E00C943214DC012B01FA019C91923057
:1001000008F439C1EB018881823008F433C194309E
:1001100069F4843009F02FC111969C91119789815F
:10012000981709F428C1A0E6B0E025C1843009F48D
:1001300021C18230A9F4923009F01DC19A01AD01AC
:1001400088E0EA010990AE01E90109929E0181501F
:10015000C1F7E201898111969C918923818308C1AD
:10016000923009F407C112962D903C901397EB0141
:100170008A819B811496AD90BD90CD90DC901797AD
:10018000EC80FD800E811F819101281B390BB90184
:1001900037FF04C066277727621B730B6032710537
:1001A0000CF061C0121613066CF537014801062EDB
:1001B00004C096948794779467940A94D2F721E0C8
:1001C00030E040E050E004C0220F331F441F551FB1
:1001D0006A95D2F721503040404050402E213F21B7
:1001E00040235123211531054105510521F021E01E
:1001F00030E040E050E079018A01E628F72808293C
:1002000019293CC0232BD1F1260E371E350146019A
:10021000062E04C096948794779467940A94D2F734
:1002200021E030E040E050E004C0220F331F441FC3
:10023000551F6A95D2F721503040404050402A2146
:100240003B214C215D21211531054105510521F04E
:1002500021E030E040E050E059016A01A628B728CB
:10026000C828D9280BC0821593052CF01C01AA249C
:10027000BB24650103C0EE24FF24870111969C91E5
:10028000D20111968C91981709F445C0992339F041
:10029000A80197012A193B094C095D0906C0A6016E
:1002A00095012E193F09400B510B57FD08C01182D3
:1002B0003382228224833583468357831DC081E0A5
:1002C00081833382228288279927DC01821B930B4A
:1002D000A40BB50B84839583A683B7830DC0220F2F
:1002E000331F441F551F24833583468357838281E0
:1002F000938101979383828324813581468157813D
:10030000DA01C9010197A109B1098F5F9F4FAF4F72
:10031000BF4328F30BC0918333822282EA0CFB1C7B
:100320000C1D1D1DE482F5820683178383E0808304
:10033000248135814681578157FF1AC0C901AA27F8
:1003400097FDA095BA2F81709070A070B0705695EF
:10035000479537952795822B932BA42BB52B848318
:100360009583A683B7838281938101969383828349
:10037000DF0101C0D201CD01CDB7DEB7E2E10C94BF
:100380004E14A0E2B0E0E7ECF1E00C943E14698377
:100390007A838B839C832D833E834F835887E9E048
:1003A000EE2EF12CEC0EFD1ECE010196B7010E943F
:1003B000E6058E010F5E1F4FCE010596B8010E9423
:1003C000E6058A8991E089278A8BC701B801AE01C9
:1003D000475E5F4F0E9475000E941105A096E6E0FF
:1003E0000C945A14A0E2B0E0E8EFF1E00C943E1453
:1003F00069837A838B839C832D833E834F835887C5
:10040000F9E0EF2EF12CEC0EFD1ECE010196B701A6
:100410000E94E6058E010F5E1F4FCE010596B801C2
:100420000E94E605C701B801AE01475E5F4F0E941A
:1004300075000E941105A096E6E00C945A14A0E203
:10044000B0E0E5E2F2E00C94321469837A838B83A6
:100450009C832D833E834F835887CE010196BE0136
:10046000675F7F4F0E94E605CE010596BE016F5E75
:100470007F4F0E94E6059985923088F08989823005
:10048000C8F0943019F4823051F404C0843029F457
:10049000923081F480E690E0C6C0923049F420E0CA
:1004A0009A858A89981321E02A87CE010996BBC0D4
:1004B000823049F420E09A858A89981321E02A8BBA
:1004C000CE014196B0C02D843E844F8458886D88FB
:1004D0007E888F88988CEE24FF248701AA24BB2471
:1004E000650140E050E060E070E0E0E0F0E0C10174
:1004F00081709070892BE9F0E60CF71C081D191D1E
:100500009A01AB012A0D3B1D4C1D5D1D80E090E062
:10051000A0E0B0E0E614F7040805190520F481E036
:1005200090E0A0E0B0E0BA01A901480F591F6A1F8E
:100530007B1FAA0CBB1CCC1CDD1C97FE08C081E0F5
:1005400090E0A0E0B0E0A82AB92ACA2ADB2A3196B6
:10055000E032F10549F0660C771C881C991C569412
:10056000479437942794C3CFFA85EA892B893C892D
:100570008B859C85280F391F2E5F3F4F17C0CA01FE
:1005800081709070892B61F016950795F794E79428
:1005900080E090E0A0E0B0E8E82AF92A0A2B1B2BC3
:1005A00076956795579547952F5F3F4F77FDE7CF36
:1005B0000CC0440F551F661F771F17FD4160EE0CDE
:1005C000FF1C001F111F21503040403090E05907A0
:1005D00090E0690790E4790760F32B8F3C8FDB0193
:1005E000CA018F779070A070B07080349105A1051A
:1005F000B10561F447FD0AC0E114F10401051105DC
:1006000029F0405C5F4F6F4F7F4F40781A8EFE1786
:1006100011F081E08A8F4D8F5E8F6F8F78A383E01A
:10062000898FCE0149960E941105A096E2E10C94B3
:100630004E14A8E1B0E0EFE1F3E00C943A146983C2
:100640007A838B839C832D833E834F835887B9E0C5
:10065000EB2EF12CEC0EFD1ECE010196B7010E948F
:10066000E6058E010F5E1F4FCE010596B8010E9470
:10067000E6052985223008F47EC03989323010F42D
:10068000B8017CC08A859A8989278A87243011F02D
:10069000223031F4231709F06EC060E670E06EC0BE
:1006A000343039F41D861E861F86188A1C861B86E8
:1006B00004C0323021F484E08987B7015FC02B8504
:1006C0003C858B899C89281B390B3C872B87ED84C3
:1006D000FE840F851889AD88BE88CF88D88CEA142F
:1006E000FB040C051D0540F4EE0CFF1C001F111F40
:1006F000215030403C872B8720E030E040E050E044
:1007000080E090E0A0E0B0E460E070E0EA14FB0478
:100710000C051D0540F0282B392B4A2B5B2BEA18C2
:10072000FB080C091D09B695A79597958795EE0CC2
:10073000FF1C001F111F6F5F7F4F6F31710531F775
:10074000DA01C9018F779070A070B0708034910584
:10075000A105B10561F427FD0AC0E114F10401050A
:10076000110529F0205C3F4F4F4F5F4F20782D87B8
:100770003E874F87588BBE01675F7F4FCB010E943A
:1007800011056896EAE00C945614A8E1B0E0EBEC91
:10079000F3E00C943E1469837A838B839C832D83CE
:1007A0003E834F83588789E0E82EF12CEC0EFD1E26
:1007B000CE010196B7010E94E6058E010F5E1F4F24
:1007C000CE010596B8010E94E6058985823040F089
:1007D0008989823028F0C701B8010E945E0601C0F5
:1007E0008FEF6896E6E00C945A14ACE0B0E0EBEFC3
:1007F000F3E00C94421469837A838B839C83CE014B
:100800000196BE016B5F7F4F0E94E6058D818230AD
:1008100061F1823050F1843021F48E81882351F1CE
:100820002EC02F81388537FD20C06E812F313105D4
:100830001CF06623F9F023C08EE190E0821B930B3D
:1008400029853A854B855C8504C056954795379533
:1008500027958A95D2F76623B1F05095409530954B
:1008600021953F4F4F4F5F4F0EC020E030E040E0FA
:1008700050E009C02FEF3FEF4FEF5FE704C020E0EB
:1008800030E040E050E8B901CA012C96E2E00C9457
:100890005E14A8E0B0E0EFE4F4E00C943A147B01BD
:1008A0008C01611571058105910519F482E0898338
:1008B00060C083E089838EE1C82ED12CDC82CB829C
:1008C000ED82FE820F831887C801B7010E94C2041F
:1008D000FC013197F7FF3BC0222733272E1B3F0B2C
:1008E00057016801022E04C0D694C794B794A79408
:1008F0000A94D2F740E050E060E070E081E090E0E0
:10090000A0E0B0E004C0880F991FAA1FBB1F2A9562
:10091000D2F70197A109B1098E219F21A023B1230C
:100920000097A105B10521F041E050E060E070E0E2
:100930004A295B296C297D294D835E836F837887E3
:100940008EE190E08E1B9F0B9C838B8312C03097AF
:1009500081F00E2E04C0EE0CFF1C001F111F0A9424
:10096000D2F7ED82FE820F831887CE1ADF0ADC826F
:10097000CB821A82CE0101960E9411052896EAE0E8
:100980000C945614EF92FF920F931F937B018C01EE
:1009900080E0E81680E0F80681E0080780E01807AC
:1009A00088F48FEFE816F1040105110531F028F005
:1009B00088E090E0A0E0B0E017C080E090E0A0E028
:1009C000B0E012C080E0E81680E0F80680E008079A
:1009D00081E0180728F088E190E0A0E0B0E004C0D2
:1009E00080E190E0A0E0B0E020E230E040E050E0C4
:1009F000281B390B4A0B5B0B04C016950795F7941F
:100A0000E7948A95D2F7F701E859FF4F8081281BB8
:100A1000310941095109C9011F910F91FF90EF90D0
:100A20000895DF92EF92FF920F931F93FC01E480F1
:100A3000F58006811781D1808081823048F480E082
:100A400090E0A0E1B0E0E82AF92A0A2B1B2BA5C010
:100A5000843009F49FC0823021F4EE24FF24870102
:100A600005C0E114F1040105110519F4E0E0F0E01E
:100A700096C0628173819FEF623879070CF05BC08A
:100A800022E83FEF261B370B2A3131052CF020E0FE
:100A900030E040E050E02AC0B801A701022E04C0B7
:100AA00076956795579547950A94D2F781E090E03F
:100AB000A0E0B0E004C0880F991FAA1FBB1F2A95B1
:100AC000D2F70197A109B1098E219F21A023B1235B
:100AD0000097A105B10521F081E090E0A0E0B0E031
:100AE0009A01AB01282B392B4A2B5B2BDA01C90168
:100AF0008F779070A070B07080349105A105B1051A
:100B000039F427FF09C0205C3F4F4F4F5F4F04C0AF
:100B1000215C3F4F4F4F5F4FE0E0F0E02030A0E01E
:100B20003A07A0E04A07A0E45A0710F0E1E0F0E03D
:100B300079018A0127C06038710564F5FB01E1582D
:100B4000FF4FD801C7018F779070A070B0708034CC
:100B50009105A105B10539F4E7FE0DC080E490E0F0
:100B6000A0E0B0E004C08FE390E0A0E0B0E0E80EC9
:100B7000F91E0A1F1B1F17FF05C016950795F7944E
:100B8000E794319687E016950795F794E7948A9550
:100B9000D1F705C0EE24FF248701EFEFF0E06E2FC0
:100BA000679566276795902F9F77D794DD24D79414
:100BB0008E2F8695492F462B582F5D29B701CA01E4
:100BC0001F910F91FF90EF90DF900895FC01DB01E2
:100BD000408151812281622F6F7770E0221F22278E
:100BE000221F9381892F880F822B282F30E0991F95
:100BF0009927991F11969C93119721153105A9F5F5
:100C0000411551056105710511F482E037C082E894
:100C10009FEF13969C938E9312979A01AB0167E016
:100C2000220F331F441F551F6A95D1F783E08C9321
:100C30000DC0220F331F441F551F12968D919C919A
:100C40001397019713969C938E931297203080E010
:100C5000380780E0480780E4580758F314962D932E
:100C60003D934D935C93179708952F3F310579F489
:100C7000411551056105710519F484E08C930895BF
:100C800064FF03C081E08C9312C01C9210C02F57E8
:100C9000304013963C932E93129783E08C9387E019
:100CA000440F551F661F771F8A95D1F770641496FD
:100CB0004D935D936D937C93179708951F93DC017B
:100CC000FB019C91923008F447C08081823008F487
:100CD00043C0943051F411961C91843099F5818170
:100CE000682F70E0611B71093FC0843021F09230A1
:100CF00031F48230B9F18181882389F12DC01196B8
:100D00001C9111978230F1F081811817D9F4129655
:100D10002D913C911397828193818217930794F0D0
:100D200028173907BCF014968D919D910D90BC91B8
:100D3000A02D2481358146815781281739074A071C
:100D40005B0718F4112341F00AC082179307A40728
:100D5000B50740F4112319F061E070E005C06FEFB2
:100D60007FEF02C060E070E0CB011F910895DF9338
:100D7000CF930F92CDB7DEB781E089838091680170
:100D8000909169010E94721280916A0190916B01A9
:100D90000E94721280916C0190916D010E947212FA
:100DA00080916E0190916F010E9472120E94B9129F
:100DB00089810F90CF91DF910895DF93CF9300D079
:100DC0000F92CDB7DEB79B838A8381E089838A81C6
:100DD0009B810E94EF12898389810F900F900F9061
:100DE000CF91DF910895DF93CF9300D000D0CDB79E
:100DF000DEB78A8381E089838091680190916901DF
:100E00000E94961280916A0190916B010E94961245
:100E100080916C0190916D010E94961280916E01FB
:100E200090916F010E9496128A81282F30E03C83B6
:100E30002B838B819C818230910509F12B813C8130
:100E40002330310554F48B819C81009769F12B810B
:100E50003C812130310561F040C08B819C81833021
:100E60009105A1F02B813C8124303105B1F035C0D2
:100E700080916801909169010E9484122FC0809135
:100E80006A0190916B010E94841228C080916C01CC
:100E900090916D010E94841221C080916E01909109
:100EA0006F010E9484121AC08091680190916901BB
:100EB0000E94841280916A0190916B010E948412B9
:100EC00080916C0190916D010E94841280916E015D
:100ED00090916F010E94841201C0198289810F9044
:100EE0000F900F900F90CF91DF910895DF93CF93E4
:100EF00000D0CDB7DEB781E0898380E791E00E9422
:100F0000841189838981882319F489818A830DC09A
:100F100085E791E00E94841189838981882319F4EF
:100F200089818A8302C081E08A838A810F900F9031
:100F3000CF91DF910895DF93CF9300D0CDB7DEB787
:100F400081E0898380E791E06EE141E00E94D01169
:100F500089838981882319F489818A830FC085E771
:100F600091E06EE140E00E94D0118983898188235D
:100F700019F489818A8302C081E08A838A810F9073
:100F80000F90CF91DF910895DF93CF9300D0CDB72D
:100F9000DEB781E0898385E791E06EE141E00E9460
:100FA000D01189838981882319F489818A830FC0AC
:100FB00080E791E06EE140E00E94D0118983898151
:100FC000882319F489818A8302C081E08A838A8117
:100FD0000F900F90CF91DF910895DF93CF9300D0C2
:100FE00000D000D0CDB7DEB78A8381E089838A81C3
:100FF000282F30E03D832C838C819D8182309105A8
:1010000009F44EC02C813D812330310554F48C818C
:101010009D81009799F02C813D812130310529F186
:101020008DC08C819D818330910509F453C02C8142
:101030003D812430310509F467C080C085E791E027
:101040000E94471289838981882319F439813B835F
:1010500076C080E791E00E944712898389818823C6
:1010600009F06CC089818B836AC085E791E06EE1ED
:1010700040E00E94D01189838981882319F49981E5
:101080009B835DC080E791E06EE140E00E94D0115B
:1010900089838981882309F051C029812B834FC01E
:1010A00085E791E06CE340E00E94D011898389815B
:1010B000882319F439813B8342C080E791E06CE3D7
:1010C00040E00E94D011898389818823B9F5898104
:1010D0008B8335C085E791E06AE540E00E94D0113E
:1010E00089838981882319F499819B8328C080E7AB
:1010F00091E06AE540E00E94D011898389818823CC
:10110000E9F429812B831BC085E791E06EE141E082
:101110000E94D01189838981882319F439813B8306
:101120000EC080E791E06EE141E00E94D01189831A
:101130008981882319F489818B8301C002C09B8136
:101140009E838E8126960FB6F894DEBF0FBECDBF6C
:10115000CF91DF910895DF93CF93CDB7DEB7EFE462
:10116000F0E01082EEE4F0E0108281E0CF91DF91B8
:101170000895DF93CF93CDB7DEB7AEE4B0E0EEE4F1
:10118000F0E0808183608C93ECE4F0E080E09FEFFE
:101190009183808381E0CF91DF910895DF93CF9396
:1011A00000D000D000D0CDB7DEB789837B836A83BF
:1011B0008981282F30E03E832D838D819E81009789
:1011C00031F02D813E812130310551F012C0EAE429
:1011D000F0E08A819B8180509140918380830BC095
:1011E000E8E4F0E08A819B81805091409183808384
:1011F00002C01C8202C031E03C838C8126960FB66F
:10120000F894DEBF0FBECDBFCF91DF910895DF937D
:10121000CF9300D000D000D0CDB7DEB789837B83D9
:101220006A838A819B81009711F41E823DC0898167
:10123000282F30E03D832C838C819D81009731F0F5
:101240002C813D812130310579F01CC0A9E5B0E049
:10125000E9E5F0E0808180618C938A819B819093A5
:1012600087018093860110C0A9E5B0E0E9E5F0E0D0
:10127000808188608C938A819B819093890180937F
:10128000880102C01E8210C0A9E5B0E0E9E5F0E0E7
:10129000808184608C93AFE5B0E0EFE5F0E0808181
:1012A00080688C9331E03E838E8126960FB6F89449
:1012B000DEBF0FBECDBFCF91DF910895DF93CF93F7
:1012C00000D000D0CDB7DEB789838981282F30E0E8
:1012D0003C832B838B819C81009731F02B813C8157
:1012E0002130310569F018C0A9E5B0E0E9E5F0E08A
:1012F00080818F7E8C9310928701109286010EC0A0
:10130000A9E5B0E0E9E5F0E08081877F8C93109259
:1013100089011092880102C01A8202C031E03A832A
:101320008A810F900F900F900F90CF91DF910895C9
:101330001F920F920FB60F9211242F933F934F934A
:101340005F936F937F938F939F93AF93BF93EF932D
:10135000FF93DF93CF93CDB7DEB780918601909155
:101360008701009729F0E0918601F09187010995A6
:10137000CF91DF91FF91EF91BF91AF919F918F91AD
:101380007F916F915F914F913F912F910F900FBE81
:101390000F901F9018951F920F920FB60F92112465
:1013A0002F933F934F935F936F937F938F939F936D
:1013B000AF93BF93EF93FF93DF93CF93CDB7DEB798
:1013C0008091880190918901009729F0E09188012E
:1013D000F09189010995CF91DF91FF91EF91BF9134
:1013E000AF919F918F917F916F915F914F913F91BD
:1013F0002F910F900FBE0F901F9018951F920F9274
:101400000FB60F9211242F933F934F935F936F93D7
:101410007F938F939F93AF93BF93EF93FF93DF934C
:10142000CF93CDB7DEB7ECE4F0E080E09FEF91839F
:1014300080838091860190918701009729F0E09147
:101440008601F09187010995809188019091890129
:10145000009729F0E0918801F09189010995CF91D9
:10146000DF91FF91EF91BF91AF919F918F917F910C
:101470006F915F914F913F912F910F900FBE0F9001
:101480001F901895DF93CF93CDB7DEB780918A0177
:1014900090918B01692F0E949910CF91DF9108954F
:1014A000DF93CF93CDB7DEB780918C0190918D0102
:1014B000692F0E949910CF91DF910895DF93CF9308
:1014C00000D000D000D0CDB7DEB789837B836A839C
:1014D0008981282F30E03E832D838D819E81009766
:1014E00031F02D813E812130310551F012C0EA8169
:1014F000FB818081918190938B0180938A010BC045
:10150000EA81FB818081918190938D0180938C0190
:1015100002C01C8203C00E94AB088C838C8126967B
:101520000FB6F894DEBF0FBECDBFCF91DF91089507
:10153000DF93CF93CDB7DEB728970FB6F894DEBF11
:101540000FBECDBF8B837D836C838C819D81CC014D
:10155000A0E0B0E0BC01CD010E944904DC01CB0158
:10156000BC01CD0120E030E040E853E40E941F02BE
:10157000DC01CB01BC01CD0120E030E048EC52E4BD
:101580000E941903DC01CB01BC01CD010E9449007E
:10159000DC01CB019A8389838B81282F30E0388747
:1015A0002F838F819885009731F02F8138852130E6
:1015B0003105C9F030C080918A0190918B01692F6B
:1015C00041E00E942B0D8B810E945E0929813A81A6
:1015D0008B81B9010E94CE0822E43AE08B81B901E7
:1015E0000E9407091AC080918C0190918D01692F8A
:1015F00041E00E942B0D8B810E945E0929813A8176
:101600008B81B9010E94CE0820E53AE08B81B901B7
:101610000E94070902C01E8203C00E94B9088E837F
:101620008E8128960FB6F894DEBF0FBECDBFCF9146
:10163000DF910895DF93CF93CDB7DEB72E970FB626
:10164000F894DEBF0FBECDBF8A836B834C8381E0ED
:1016500089838B81883008F0F3C18A81843008F057
:10166000EFC18A81282F30E03E872D878D859E85AA
:101670008130910509F498C02D853E8522303105D1
:101680002CF48D859E85009771F0D8C12D853E85FF
:101690002230310509F4F6C08D859E858330910591
:1016A00009F45EC1CBC18C81282F30E03C872B87A9
:1016B0008B859C858130910599F12B853C85223065
:1016C000310509F45BC08B859C85009709F06AC0E1
:1016D000AAE3B0E0EAE3F0E08081482F8B81282F75
:1016E00030E081E090E002C0880F991F2A95E2F770
:1016F000809584238C93ABE3B0E0EBE3F0E0808152
:10170000482F8B81282F30E081E090E0022E02C02C
:10171000880F991F0A94E2F7809584238C9391C1D6
:10172000A0E5B0E0E0E5F0E080818B7F8C93AAE358
:10173000B0E0EAE3F0E08081482F8B81282F30E091
:1017400081E090E002C0880F991F2A95E2F780950A
:1017500084238C93ABE3B0E0EBE3F0E08081482F8F
:101760008B81282F30E081E090E0022E02C0880FAC
:10177000991F0A94E2F7842B8C9363C1AAE3B0E02B
:10178000EAE3F0E08081482F8B81282F30E081E070
:1017900090E0022E02C0880F991F0A94E2F7842B72
:1017A0008C934FC119824DC18C81282F30E03A872C
:1017B000298789859A858130910501F129853A85A6
:1017C0002230310509F448C089859A85009709F0CF
:1017D00057C0A7E3B0E0E7E3F0E08081482F8B81BA
:1017E000282F30E081E090E0022E02C0880F991F80
:1017F0000A94E2F7809584238C9323C1A0E5B0E09E
:10180000E0E5F0E080818B7F8C93A7E3B0E0E7E335
:10181000F0E08081482F8B81282F30E081E090E03C
:1018200002C0880F991F2A95E2F7809584238C9334
:10183000A8E3B0E0E8E3F0E08081482F8B81282F17
:1018400030E081E090E0022E02C0880F991F0A94D8
:10185000E2F7842B8C93F5C0A7E3B0E0E7E3F0E078
:101860008081482F8B81282F30E081E090E0022E8C
:1018700002C0880F991F0A94E2F7842B8C93E1C071
:101880001982DFC08C81282F30E038872F838F8129
:1018900098858130910501F12F81388522303105FD
:1018A00009F448C08F819885009709F057C0A4E3D8
:1018B000B0E0E4E3F0E08081482F8B81282F30E016
:1018C00081E090E0022E02C0880F991F0A94E2F78F
:1018D000809584238C93B5C0A0E5B0E0E0E5F0E00E
:1018E00080818B7F8C93A4E3B0E0E4E3F0E080811F
:1018F000482F8B81282F30E081E090E002C0880FD4
:10190000991F2A95E2F7809584238C93A5E3B0E094
:10191000E5E3F0E08081482F8B81282F30E081E0E3
:1019200090E0022E02C0880F991F0A94E2F7842BE0
:101930008C9387C0A4E3B0E0E4E3F0E08081482F1B
:101940008B81282F30E081E090E0022E02C0880FCA
:10195000991F0A94E2F7842B8C9373C0198271C08B
:101960008C81282F30E03E832D838D819E818130B4
:10197000910501F12D813E812230310509F448C0E5
:101980008D819E81009709F057C0A1E3B0E0E1E3AB
:10199000F0E08081482F8B81282F30E081E090E0BB
:1019A000022E02C0880F991F0A94E2F780958423C3
:1019B0008C9347C0A0E5B0E0E0E5F0E080818B7F4C
:1019C0008C93A1E3B0E0E1E3F0E08081482F8B81CC
:1019D000282F30E081E090E002C0880F991F2A95FF
:1019E000E2F7809584238C93A2E3B0E0E2E3F0E099
:1019F0008081482F8B81282F30E081E090E0022EFB
:101A000002C0880F991F0A94E2F7842B8C9319C0A7
:101A1000A1E3B0E0E1E3F0E08081482F8B81282F43
:101A200030E081E090E0022E02C0880F991F0A94F6
:101A3000E2F7842B8C9305C0198203C0198201C080
:101A4000198289812E960FB6F894DEBF0FBECDBFE6
:101A5000CF91DF910895DF93CF93CDB7DEB72E9767
:101A60000FB6F894DEBF0FBECDBF8A836B834C8365
:101A700081E089838B81883008F006C18A81282F14
:101A800030E03E872D878D859E858130910509F454
:101A900050C02D853E85223031052CF48D859E85E4
:101AA000009771F0F2C02D853E852230310509F492
:101AB00079C08D859E858330910509F4ACC0E5C061
:101AC0008C81282F30E03C872B878B859C85009765
:101AD000C9F02B853C852130310549F5ABE3B0E0F9
:101AE000EBE3F0E08081482F8B81282F30E081E00C
:101AF00090E0022E02C0880F991F0A94E2F7842B0F
:101B00008C93C3C0ABE3B0E0EBE3F0E08081482FFF
:101B10008B81282F30E081E090E0022E02C0880FF8
:101B2000991F0A94E2F7809584238C93AEC01982A2
:101B3000ACC08C81282F30E03A87298789859A8527
:101B40000097C9F029853A852130310549F5A8E388
:101B5000B0E0E8E3F0E08081482F8B81282F30E06F
:101B600081E090E0022E02C0880F991F0A94E2F7EC
:101B7000842B8C938AC0A8E3B0E0E8E3F0E0808196
:101B8000482F8B81282F30E081E090E0022E02C0A8
:101B9000880F991F0A94E2F7809584238C9375C06F
:101BA000198273C08C81282F30E038872F838F8172
:101BB00098850097C9F02F8138852130310549F586
:101BC000A5E3B0E0E5E3F0E08081482F8B81282F8A
:101BD00030E081E090E0022E02C0880F991F0A9445
:101BE000E2F7842B8C9351C0A5E3B0E0E5E3F0E08D
:101BF0008081482F8B81282F30E081E090E0022EF9
:101C000002C0880F991F0A94E2F7809584238C9371
:101C10003CC019823AC08C81282F30E03E832D834E
:101C20008D819E810097C9F02D813E812130310543
:101C300049F5A2E3B0E0E2E3F0E08081482F8B8138
:101C4000282F30E081E090E0022E02C0880F991F1B
:101C50000A94E2F7842B8C9318C0A2E3B0E0E2E38D
:101C6000F0E08081482F8B81282F30E081E090E0E8
:101C7000022E02C0880F991F0A94E2F780958423F0
:101C80008C9303C0198201C0198289812E960FB6E8
:101C9000F894DEBF0FBECDBFCF91DF910895DF93E3
:101CA000CF93CDB7DEB727970FB6F894DEBF0FBE40
:101CB000CDBF8A836B835D834C8381E089838B8175
:101CC000883008F078C08C819D81009709F473C03A
:101CD0008A81282F30E03F832E834E815F814130FF
:101CE000510559F18E819F818230910534F42E8106
:101CF0003F812115310569F05CC04E815F81423022
:101D0000510579F18E819F818330910509F43DC0A1
:101D100050C0E9E3F0E08081282F30E08B81882FEC
:101D200090E0A90102C0559547958A95E2F7CA014E
:101D30008170EC81FD8180833FC0E6E3F0E080812B
:101D4000282F30E08B81882F90E0A90102C05595A3
:101D500047958A95E2F7CA018170EC81FD81808305
:101D60002BC0E3E3F0E08081282F30E08B81882FC7
:101D700090E0A90102C0559547958A95E2F7CA01FE
:101D80008170EC81FD81808317C0E0E3F0E0808109
:101D9000282F30E08B81882F90E0A90102C0559553
:101DA00047958A95E2F7CA018170EC81FD818083B5
:101DB00003C0198201C01982898127960FB6F89451
:101DC000DEBF0FBECDBFCF91DF910895DF93CF93DC
:101DD000CDB7DEB72D970FB6F894DEBF0FBECDBFDF
:101DE0008A836B8381E089838A81282F30E03D8755
:101DF0002C878C859D858130910509F44BC02C85FD
:101E00003D85223031052CF48C859D85009771F03D
:101E1000DDC02C853D852230310509F46FC08C85ED
:101E20009D858330910509F49DC0D0C08B81282FFA
:101E300030E03B872A878A859B8581309105A1F018
:101E40002A853B8522303105F1F08A859B850097F4
:101E5000F9F4EAE3F0E01082A0E5B0E0E0E5F0E0BC
:101E6000808184608C93B3C0A0E5B0E0E0E5F0E051
:101E700080818B7F8C93EAE3F0E01082EBE3F0E06B
:101E80008FEF8083A4C0EAE3F0E08FEF80839FC0F0
:101E900019829DC08B81282F30E03987288788855B
:101EA000998581309105A1F0288539852230310549
:101EB000F1F0888599850097F9F4E7E3F0E0108266
:101EC000A0E5B0E0E0E5F0E0808184608C937FC025
:101ED000A0E5B0E0E0E5F0E080818B7F8C93E7E364
:101EE000F0E01082E8E3F0E08FEF808370C0E7E37A
:101EF000F0E08FEF80836BC0198269C08B81282F3F
:101F000030E03F832E838E819F8181309105A1F047
:101F10002E813F8122303105F1F08E819F81009723
:101F2000F9F4E4E3F0E01082A0E5B0E0E0E5F0E0F1
:101F3000808184608C934BC0A0E5B0E0E0E5F0E0E8
:101F400080818B7F8C93E4E3F0E01082E5E3F0E0A6
:101F50008FEF80833CC0E4E3F0E08FEF808337C0F5
:101F6000198235C08B81282F30E03D832C838C81F2
:101F70009D8181309105A1F02C813D812230310578
:101F8000F1F08C819D810097F9F4E1E3F0E010829B
:101F9000A0E5B0E0E0E5F0E0808184608C9317C0BC
:101FA000A0E5B0E0E0E5F0E080818B7F8C93E1E399
:101FB000F0E01082E2E3F0E08FEF808308C0E1E31D
:101FC000F0E08FEF808303C0198201C019828981FC
:101FD0002D960FB6F894DEBF0FBECDBFCF91DF9127
:101FE0000895DF93CF9300D000D00F92CDB7DEB726
:101FF0008A836B8381E089838B818F3F19F08B818A
:102000008823A9F58A81282F30E03D832C838C8199
:102010009D8181309105D1F02C813D8122303105A7
:102020002CF48C819D81009761F01FC02C813D8133
:102030002230310581F08C819D818330910581F0C2
:1020400014C0EBE3F0E08B81808312C0E8E3F0E0A2
:102050008B8180830DC0E5E3F0E08B81808308C035
:10206000E2E3F0E08B81808303C0198201C0198212
:1020700089810F900F900F900F900F90CF91DF916B
:102080000895DF93CF9300D000D000D0CDB7DEB756
:102090008A837C836B8381E089838B819C81009719
:1020A000E9F18A81282F30E03E832D838D819E8146
:1020B00081309105E1F02D813E81223031052CF4F3
:1020C0008D819E81009761F027C02D813E81223055
:1020D0003105A1F08D819E8183309105B1F01CC046
:1020E000EBE3F0E08081EB81FC81808318C0E8E3C2
:1020F000F0E08081EB81FC81808311C0E5E3F0E0BA
:102100008081EB81FC8180830AC0E2E3F0E0808182
:10211000EB81FC81808303C0198201C0198289810F
:1021200026960FB6F894DEBF0FBECDBFCF91DF91DC
:102130000895DF93CF9300D000D00F92CDB7DEB7D4
:102140008A836B8381E089838A81282F30E03D83F5
:102150002C838C819D818130910549F12C813D81B9
:10216000223031052CF48C819D81009761F05BC099
:102170002C813D812230310571F18C819D8183302C
:102180009105E9F150C0ABE3B0E0EBE3F0E0808112
:10219000482F8B81282F30E081E090E0022E02C092
:1021A000880F991F0A94E2F784278C933DC0A8E317
:1021B000B0E0E8E3F0E08081482F8B81282F30E009
:1021C00081E090E0022E02C0880F991F0A94E2F786
:1021D00084278C9329C0A5E3B0E0E5E3F0E080819B
:1021E000482F8B81282F30E081E090E0022E02C042
:1021F000880F991F0A94E2F784278C9315C0A2E3F5
:10220000B0E0E2E3F0E08081482F8B81282F30E0BE
:1022100081E090E0022E02C0880F991F0A94E2F735
:1022200084278C9301C0198289810F900F900F90A1
:102230000F900F90CF91DF910895DF93CF930F927E
:10224000CDB7DEB789838981882F90E0009721F48C
:10225000E3E5F0E08BE0808381E00F90CF91DF91A8
:102260000895DF93CF9300D0CDB7DEB79A838983EB
:1022700010928F0110928E0180E00E941D11ECE5FA
:10228000F0E08DE78083A9E5B0E0E9E5F0E080814A
:1022900082608C93AFE5B0E0EFE5F0E0808180688C
:1022A0008C9320918E0130918F0189819A818217C0
:1022B0009307B8F7A9E5B0E0E9E5F0E080818D7F0C
:1022C0008C9381E00F900F90CF91DF9108951F9232
:1022D0000F920FB60F9211248F939F93DF93CF939A
:1022E000CDB7DEB780918E0190918F0101969093CA
:1022F0008F0180938E01CF91DF919F918F910F90ED
:102300000FBE0F901F901895DF93CF9300D000D091
:102310000F92CDB7DEB79D838C8381E08983EC81FA
:10232000FD819081EC81FD8183819A838B83EC8197
:10233000FD818081EC81FD819181692F42E00E94C5
:102340001A0B89838981813059F4EC81FD81808168
:10235000EC81FD819281692F42E00E941A0B8983F2
:102360008981813059F4EC81FD818081EC81FD818E
:102370009381692F42E00E941A0B8983EC81FD81D1
:1023800084819E012E5F3F4FB9010E945E0A8981C0
:102390000F900F900F900F900F90CF91DF910895B5
:1023A000DF93CF93CDB7DEB727970FB6F894DEBF94
:1023B0000FBECDBF9B838A836C834D8381E089836D
:1023C0008A819B81009709F457C08C81882309F486
:1023D00053C08C81843608F04FC08D81282F30E0A7
:1023E0003F832E838E819F81009731F02E813F8124
:1023F0002130310501F13EC0EA81FB818081EA8113
:10240000FB819181692F41E00E942B0DEA81FB81C4
:102410008081EA81FB819281692F40E00E942B0D2F
:10242000EA81FB8194818C81282F30E0892FB901CA
:102430000E94980A22C0EA81FB818081EA81FB81A7
:102440009181692F40E00E942B0DEA81FB81808100
:10245000EA81FB819281692F41E00E942B0DEA8184
:10246000FB8194818C81282F30E0892FB9010E9453
:10247000980A03C0198201C01982898127960FB674
:10248000F894DEBF0FBECDBFCF91DF910895DF93EB
:10249000CF9300D00F92CDB7DEB79B838A8381E0C4
:1024A00089838A819B810097A9F0EA81FB818081E1
:1024B000EA81FB819181692F40E00E942B0DEA8126
:1024C000FB818081EA81FB819281692F40E00E943B
:1024D0002B0D01C0198289810F900F900F90CF9121
:1024E000DF910895DF93CF9300D0CDB7DEB79A8305
:1024F000898389819A81692F42E00E941A0B0F908B
:102500000F90CF91DF910895DF93CF9300D0CDB797
:10251000DEB79A83898389819A81692F41E00E947D
:102520002B0D0F900F90CF91DF910895DF93CF93F4
:1025300000D0CDB7DEB79A83898389819A81692FCC
:1025400040E00E942B0D0F900F90CF91DF910895E6
:10255000DF93CF9300D0CDB7DEB79A83898389818B
:102560009A81692F0E9499100F900F90CF91DF915F
:102570000895DF93CF930F92CDB7DEB782E065E089
:1025800042E00E941A0B82E066E042E00E941A0BD1
:1025900082E067E042E00E941A0B82E062E041E0E4
:1025A0000E941A0B82E063E041E00E941A0B82E075
:1025B00064E041E00E941A0B82E065E041E00E9485
:1025C0002B0D82E066E041E00E942B0D82E067E087
:1025D00041E00E942B0D0F90CF91DF910895DF9382
:1025E000CF93CDB7DEB765970FB6F894DEBF0FBEB9
:1025F000CDBF988B8F8781E08C838FEF8B83CE014B
:1026000006969A8B898BEAE7F1E0FC8BEB8BF9E07D
:10261000FD8BEB89FC8900808B899C8901969C8BC2
:102620008B8BE989FA89008289899A8901969A8B2C
:10263000898B9D8991509D8BED89EE2351F78F8574
:102640009889009709F44DC085E08A8341C082E0F3
:102650006A8140E00E942B0D82E089832EC09E019A
:102660002B5F3F4F82E06981A9010E944F0E8D814F
:10267000882301F58981882F90E09C012250304009
:102680008A81882F90E0AC0145505040C901880FE5
:10269000991F820F931F9E012F5F3F4F820F931F41
:1026A000840F951FFC01359680818B838AE090E032
:1026B0000E94311189818F5F89838981853078F209
:1026C00082E06A8141E00E942B0D8A818F5F8A83BC
:1026D0008A81883008F4BBCFEF85F8898B818083AD
:1026E00001C01C828C8165960FB6F894DEBF0FBEC8
:1026F000CDBFCF91DF910895DF93CF9300D0CDB7B9
:10270000DEB79A83898389819A81692F40E00E948C
:102710001A0B0F900F90CF91DF910895DF93CF9315
:10272000CDB7DEB728970FB6F894DEBF0FBECDBF8A
:102730009E838D8378876F8381E08B831A821982D1
:102740008F8198850097A1F18D819E819E012C5FDC
:102750003F4F692FA9010E944F0E8C81882311F4ED
:102760001B8227C08D819E819E012C5F3F4F692F68
:10277000A9010E944F0E8C81813039F48A818F5FCC
:102780008A83198281E08C8308C08C81882329F494
:102790001A8289818F5F89831C828A81853019F032
:1027A00089818530F9F68C81EF81F885808301C0BD
:1027B0001B828B8128960FB6F894DEBF0FBECDBF6B
:1027C000CF91DF910895DF93CF9300D000D0CDB7A4
:1027D000DEB7198281E08B8385E08C838B819C81BD
:1027E0000E9472120E9476070E94B7060E94B912D8
:1027F000CE0102960E94DD068A81823061F48981D1
:102800000E94ED0704C0CE0102960E94DD068A8177
:102810008230C9F3EDCF8A81863019F40E949B077C
:10282000E7CF8A81843019F40E94C407E1CF8A81FE
:102830008530A1F489818F5F898304C0CE0102961F
:102840000E94DD068A818530C9F38981853011F4C3
:1028500081E0898389810E94F306CACF80E00E94CB
:10286000ED07C6CF2F923F924F925F926F927F9269
:102870008F929F92AF92BF92CF92DF92EF92FF9290
:102880000F931F93CF93DF93CDB7DEB7CA1BDB0B3C
:102890000FB6F894DEBF0FBECDBF09942A883988E1
:1028A00048885F846E847D848C849B84AA84B984E8
:1028B000C884DF80EE80FD800C811B81AA81B981F4
:1028C000CE0FD11D0FB6F894DEBF0FBECDBFED0108
:0628D0000895F894FFCF0B
:1028D60000000000000000000001020203030303E1
:1028E600040404040404040405050505050505059A
:1028F600050505050505050506060606060606067A
:102906000606060606060606060606060606060661
:102916000606060606060606070707070707070749
:102926000707070707070707070707070707070731
:102936000707070707070707070707070707070721
:102946000707070707070707070707070707070711
:1029560007070707070707070808080808080808F9
:1029660008080808080808080808080808080808E1
:1029760008080808080808080808080808080808D1
:1029860008080808080808080808080808080808C1
:1029960008080808080808080808080808080808B1
:1029A60008080808080808080808080808080808A1
:1029B6000808080808080808080808080808080891
:1029C6000808080808080808080808080808080881
:1029D6000808080808080808010401050106010797
:1029E60003020304000306070501010203040506AA
:0429F60007080900C5
:00000001FF
