:100000000C942A000C9447000C9447000C94102781
:100010000C9447000C9447000C9447000C945F0E1E
:100020000C94920E0C94C50E0C942B1C0C9447004F
:100030000C9440110C94050D0C943F0D0C9447004A
:100040000C940E1E0C9447000C9447000C94DB1388
:100050000C94470011241FBECFE5D8E0DEBFCDBF12
:1000600011E0A0E6B0E0EAECFFE402C005900D92DA
:10007000A63EB107D9F712E0A6EEB1E001C01D928D
:10008000A332B107E1F70E944A270C94E3270C94AE
:100090000000EF92FF920F931F937B018C0120E0F1
:1000A00030E040E05FE40E94C50388238CF0C80183
:1000B000B70120E030E040E05FE40E94C1010E940F
:1000C00053049B01AC01205030404040504806C0D2
:1000D000C801B7010E9453049B01AC01B901CA01D8
:1000E0001F910F91FF90EF900895A0E0B0E0EBE733
:1000F000F0E00C94AC27DC012B01FA019C919230CA
:1001000008F439C1EB018881823008F433C194309E
:1001100069F4843009F02FC111969C91119789815F
:10012000981709F428C1AEECB0E025C1843009F479
:1001300021C18230A9F4923009F01DC19A01AD01AC
:1001400088E0EA010990AE01E90109929E0181501F
:10015000C1F7E201898111969C918923818308C1AD
:10016000923009F407C112962D903C901397EB0141
:100170008A819B811496AD90BD90CD90DC901797AD
:10018000EC80FD800E811F819101281B390BB90184
:1001900037FF04C066277727621B730B6032710537
:1001A0000CF061C0121613066CF537014801062EDB
:1001B00004C096948794779467940A94D2F721E0C8
:1001C00030E040E050E004C0220F331F441F551FB1
:1001D0006A95D2F721503040404050402E213F21B7
:1001E00040235123211531054105510521F021E01E
:1001F00030E040E050E079018A01E628F72808293C
:1002000019293CC0232BD1F1260E371E350146019A
:10021000062E04C096948794779467940A94D2F734
:1002200021E030E040E050E004C0220F331F441FC3
:10023000551F6A95D2F721503040404050402A2146
:100240003B214C215D21211531054105510521F04E
:1002500021E030E040E050E059016A01A628B728CB
:10026000C828D9280BC0821593052CF01C01AA249C
:10027000BB24650103C0EE24FF24870111969C91E5
:10028000D20111968C91981709F445C0992339F041
:10029000A80197012A193B094C095D0906C0A6016E
:1002A00095012E193F09400B510B57FD08C01182D3
:1002B0003382228224833583468357831DC081E0A5
:1002C00081833382228288279927DC01821B930B4A
:1002D000A40BB50B84839583A683B7830DC0220F2F
:1002E000331F441F551F24833583468357838281E0
:1002F000938101979383828324813581468157813D
:10030000DA01C9010197A109B1098F5F9F4FAF4F72
:10031000BF4328F30BC0918333822282EA0CFB1C7B
:100320000C1D1D1DE482F5820683178383E0808304
:10033000248135814681578157FF1AC0C901AA27F8
:1003400097FDA095BA2F81709070A070B0705695EF
:10035000479537952795822B932BA42BB52B848318
:100360009583A683B7838281938101969383828349
:10037000DF0101C0D201CD01CDB7DEB7E2E10C94BF
:10038000C827A0E2B0E0E7ECF1E00C94B82769835D
:100390007A838B839C832D833E834F835887E9E048
:1003A000EE2EF12CEC0EFD1ECE010196B7010E943F
:1003B00044068E010F5E1F4FCE010596B8010E94C4
:1003C00044068A8991E089278A8BC701B801AE016A
:1003D000475E5F4F0E9475000E946F05A096E6E0A1
:1003E0000C94D427A0E2B0E0E8EFF1E00C94B82739
:1003F00069837A838B839C832D833E834F835887C5
:10040000F9E0EF2EF12CEC0EFD1ECE010196B701A6
:100410000E9444068E010F5E1F4FCE010596B80163
:100420000E944406C701B801AE01475E5F4F0E94BB
:1004300075000E946F05A096E6E00C94D427A0E218
:10044000B0E0E5E2F2E00C94AC2769837A838B8319
:100450009C832D833E834F835887CE010196BE0136
:10046000675F7F4F0E944406CE010596BE016F5E16
:100470007F4F0E9444069985923088F089898230A6
:10048000C8F0943019F4823051F404C0843029F457
:10049000923081F48EEC90E0C6C0923049F420E0B6
:1004A0009A858A89981321E02A87CE010996BBC0D4
:1004B000823049F420E09A858A89981321E02A8BBA
:1004C000CE014196B0C02D843E844F8458886D88FB
:1004D0007E888F88988CEE24FF248701AA24BB2471
:1004E000650140E050E060E070E0E0E0F0E0C10174
:1004F00081709070892BE9F0E60CF71C081D191D1E
:100500009A01AB012A0D3B1D4C1D5D1D80E090E062
:10051000A0E0B0E0E614F7040805190520F481E036
:1005200090E0A0E0B0E0BA01A901480F591F6A1F8E
:100530007B1FAA0CBB1CCC1CDD1C97FE08C081E0F5
:1005400090E0A0E0B0E0A82AB92ACA2ADB2A3196B6
:10055000E032F10549F0660C771C881C991C569412
:10056000479437942794C3CFFA85EA892B893C892D
:100570008B859C85280F391F2E5F3F4F17C0CA01FE
:1005800081709070892B61F016950795F794E79428
:1005900080E090E0A0E0B0E8E82AF92A0A2B1B2BC3
:1005A00076956795579547952F5F3F4F77FDE7CF36
:1005B0000CC0440F551F661F771F17FD4160EE0CDE
:1005C000FF1C001F111F21503040403090E05907A0
:1005D00090E0690790E4790760F32B8F3C8FDB0193
:1005E000CA018F779070A070B07080349105A1051A
:1005F000B10561F447FD0AC0E114F10401051105DC
:1006000029F0405C5F4F6F4F7F4F40781A8EFE1786
:1006100011F081E08A8F4D8F5E8F6F8F78A383E01A
:10062000898FCE0149960E946F05A096E2E10C9455
:10063000C827A8E1B0E0EFE1F3E00C94B4276983A8
:100640007A838B839C832D833E834F835887B9E0C5
:10065000EB2EF12CEC0EFD1ECE010196B7010E948F
:1006600044068E010F5E1F4FCE010596B8010E9411
:1006700044062985223008F47EC03989323010F4CE
:10068000B8017CC08A859A8989278A87243011F02D
:10069000223031F4231709F06EC06EEC70E06EC0AA
:1006A000343039F41D861E861F86188A1C861B86E8
:1006B00004C0323021F484E08987B7015FC02B8504
:1006C0003C858B899C89281B390B3C872B87ED84C3
:1006D000FE840F851889AD88BE88CF88D88CEA142F
:1006E000FB040C051D0540F4EE0CFF1C001F111F40
:1006F000215030403C872B8720E030E040E050E044
:1007000080E090E0A0E0B0E460E070E0EA14FB0478
:100710000C051D0540F0282B392B4A2B5B2BEA18C2
:10072000FB080C091D09B695A79597958795EE0CC2
:10073000FF1C001F111F6F5F7F4F6F31710531F775
:10074000DA01C9018F779070A070B0708034910584
:10075000A105B10561F427FD0AC0E114F10401050A
:10076000110529F0205C3F4F4F4F5F4F20782D87B8
:100770003E874F87588BBE01675F7F4FCB010E943A
:100780006F056896EAE00C94D027A8E1B0E0EBECA6
:10079000F3E00C94B82769837A838B839C832D8341
:1007A0003E834F83588789E0E82EF12CEC0EFD1E26
:1007B000CE010196B7010E9444068E010F5E1F4FC5
:1007C000CE010596B8010E9444068985823040F02A
:1007D0008989823028F0C701B8010E94BC0601C097
:1007E0008FEF6896E6E00C94D427A8E0B0E0EBEF3A
:1007F000F3E00C94B5279B01AC0183E08983DA0117
:10080000C9018827B7FD83959927AA27BB27B82E4A
:10081000211531054105510519F482E089833AC05B
:100820008823A9F0203080E0380780E0480780E87E
:10083000580729F460E070E080E09FEC30C0EE24BF
:10084000FF248701E21AF30A040B150B02C0790199
:100850008A018EE1C82ED12CDC82CB82ED82FE8211
:100860000F831887C801B7010E9420050197181649
:10087000190684F4082E04C0EE0CFF1C001F111F83
:100880000A94D2F7ED82FE820F831887C81AD90A1C
:10089000DC82CB82BA82CE0101960E946F05289637
:1008A000E9E00C94D127ACE0B0E0E9E5F4E00C9489
:1008B000BC2769837A838B839C83CE010196BE011A
:1008C0006B5F7F4F0E9444068D81823061F18230E0
:1008D00050F1843021F48E81882351F12EC02F8174
:1008E000388537FD20C06E812F3131051CF066231D
:1008F000F9F023C08EE190E0821B930B29853A85A5
:100900004B855C8504C056954795379527958A9504
:10091000D2F76623B1F050954095309521953F4F21
:100920004F4F5F4F0EC020E030E040E050E009C084
:100930002FEF3FEF4FEF5FE704C020E030E040E0F3
:1009400050E8B901CA012C96E2E00C94D827A8E03F
:10095000B0E0EDEAF4E00C94B4277B018C01611562
:1009600071058105910519F482E0898360C083E0F7
:1009700089838EE1C82ED12CDC82CB82ED82FE826F
:100980000F831887C801B7010E942005FC01319729
:10099000F7FF3BC0222733272E1B3F0B570168016F
:1009A000022E04C0D694C794B794A7940A94D2F7A1
:1009B00040E050E060E070E081E090E0A0E0B0E076
:1009C00004C0880F991FAA1FBB1F2A95D2F7019751
:1009D000A109B1098E219F21A023B1230097A10570
:1009E000B10521F041E050E060E070E04A295B2968
:1009F0006C297D294D835E836F8378878EE190E03B
:100A00008E1B9F0B9C838B8312C0309781F00E2E20
:100A100004C0EE0CFF1C001F111F0A94D2F7ED82D8
:100A2000FE820F831887CE1ADF0ADC82CB821A82FD
:100A3000CE0101960E946F052896EAE00C94D0271B
:100A4000EF92FF920F931F937B018C0180E0E816D9
:100A500080E0F80681E0080780E0180788F48FEF4F
:100A6000E816F1040105110531F028F088E090E066
:100A7000A0E0B0E017C080E090E0A0E0B0E012C0DD
:100A800080E0E81680E0F80680E0080781E01807BB
:100A900028F088E190E0A0E0B0E004C080E190E0C0
:100AA000A0E0B0E020E230E040E050E0281B390B4D
:100AB0004A0B5B0B04C016950795F794E7948A954B
:100AC000D2F7F701EA52FF4F8081281B3109410913
:100AD0005109C9011F910F91FF90EF900895DF9286
:100AE000EF92FF920F931F93FC01E480F580068143
:100AF0001781D1808081823048F480E090E0A0E1CD
:100B0000B0E0E82AF92A0A2B1B2BA5C0843009F48F
:100B10009FC0823021F4EE24FF24870105C0E11438
:100B2000F1040105110519F4E0E0F0E096C06281DE
:100B300073819FEF623879070CF05BC022E83FEFCA
:100B4000261B370B2A3131052CF020E030E040E045
:100B500050E02AC0B801A701022E04C0769567951F
:100B6000579547950A94D2F781E090E0A0E0B0E075
:100B700004C0880F991FAA1FBB1F2A95D2F701979F
:100B8000A109B1098E219F21A023B1230097A105BE
:100B9000B10521F081E090E0A0E0B0E09A01AB0166
:100BA000282B392B4A2B5B2BDA01C9018F779070E8
:100BB000A070B07080349105A105B10539F427FF0C
:100BC00009C0205C3F4F4F4F5F4F04C0215C3F4F37
:100BD0004F4F5F4FE0E0F0E02030A0E03A07A0E0A8
:100BE0004A07A0E45A0710F0E1E0F0E079018A0139
:100BF00027C06038710564F5FB01E158FF4FD8014B
:100C0000C7018F779070A070B07080349105A105F6
:100C1000B10539F4E7FE0DC080E490E0A0E0B0E05B
:100C200004C08FE390E0A0E0B0E0E80EF91E0A1FD8
:100C30001B1F17FF05C016950795F794E79431968B
:100C400087E016950795F794E7948A95D1F705C044
:100C5000EE24FF248701EFEFF0E06E2F6795662703
:100C60006795902F9F77D794DD24D7948E2F869504
:100C7000492F462B582F5D29B701CA011F910F91AB
:100C8000FF90EF90DF900895FC01DB0140815181DE
:100C90002281622F6F7770E0221F2227221F93810B
:100CA000892F880F822B282F30E0991F9927991FB1
:100CB00011969C93119721153105A9F54115510500
:100CC0006105710511F482E037C082E89FEF139649
:100CD0009C938E9312979A01AB0167E0220F331F0A
:100CE000441F551F6A95D1F783E08C930DC0220FE6
:100CF000331F441F551F12968D919C911397019796
:100D000013969C938E931297203080E0380780E0F2
:100D1000480780E4580758F314962D933D934D935C
:100D20005C93179708952F3F310579F441155105CC
:100D30006105710519F484E08C93089564FF03C084
:100D400081E08C9312C01C9210C02F573040139634
:100D50003C932E93129783E08C9387E0440F551FAA
:100D6000661F771F8A95D1F7706414964D935D9333
:100D70006D937C93179708951F93DC01FB019C9161
:100D8000923008F447C08081823008F443C0943028
:100D900051F411961C91843099F58181682F70E08F
:100DA000611B71093FC0843021F0923031F48230F0
:100DB000B9F18181882389F12DC011961C91119779
:100DC0008230F1F081811817D9F412962D913C915F
:100DD0001397828193818217930794F0281739071C
:100DE000BCF014968D919D910D90BC91A02D248105
:100DF000358146815781281739074A075B0718F460
:100E0000112341F00AC082179307A407B50740F4E5
:100E1000112319F061E070E005C06FEF7FEF02C0B1
:100E200060E070E0CB011F910895DF93CF93CDB7C1
:100E3000DEB729970FB6F894DEBF0FBECDBF9F83F4
:100E40008E83798768871D821C821B821A828C811F
:100E50008F5F8C838D818F5F8D838D81282F30E014
:100E60008E819F81FC01E20FF31F8081882359F05E
:100E70008D81282F30E08E819F81FC01E20FF31FCE
:100E800080818D3021F71D828B818F5F8B838D81D7
:100E90008F5F8D838D81282F30E088859985FC01B7
:100EA000E20FF31F8081882359F08D81282F30E0D5
:100EB00088859985FC01E20FF31F80818D3021F731
:100EC0001D829B818C81981701F51D821AC08D812E
:100ED000282F30E08E819F81FC01E20FF31F4081BB
:100EE0008D81282F30E088859985FC01E20FF31F62
:100EF0008081481751F48A818F5F8A838D818F5F4B
:100F00008D839D818C81981710F39C818A8198171D
:100F100031F48A81882319F081E0898301C0198224
:100F2000898129960FB6F894DEBF0FBECDBFCF9151
:100F3000DF910895EF92FF920F931F93DF93CF936A
:100F4000CDB7DEB72D970FB6F894DEBF0FBECDBF7D
:100F50009A8789877C876B87188681E090E0A0E07C
:100F6000B0E08C839D83AE83BF83EB85FC851082CC
:100F70001182128213821B8203C088858F5F88874B
:100F80008885282F30E089859A85FC01E20FF31FC0
:100F90008081882391F71A8258C098858A81292FE9
:100FA000281B822F8150898315C08C819D81AE8141
:100FB000BF812AE030E040E050E0BC01CD010E945A
:100FC0005727DC01CB018C839D83AE83BF8389814E
:100FD000815089838981882341F7EB85FC85E080F6
:100FE000F180028113818B81282F30E089859A85D9
:100FF000FC01E20FF31F8081882F90E0C097AA27A1
:1010000097FDA095BA2F2C813D814E815F81BC0157
:10101000CD010E945727DC01CB018E0D9F1DA01F23
:10102000B11FEB85FC8580839183A283B3838B8181
:101030008F5F8B8381E090E0A0E0B0E08C839D83A4
:10104000AE83BF838A818F5F8A839A818885981750
:1010500008F4A3CF2D960FB6F894DEBF0FBECDBF18
:10106000CF91DF911F910F91FF90EF900895EF9234
:10107000FF920F931F93DF93CF93CDB7DEB76697A1
:101080000FB6F894DEBF0FBECDBF9A8B898B8DEC67
:101090009CECACECBDE389839A83AB83BC8380E09A
:1010A00090E0A0E0B0E08D839E83AF83B8878D8110
:1010B0009E81AF81B88589879A87AB87BC878985F0
:1010C0009A85AB85BC858D879E87AF87B88B8989CC
:1010D0009A890E94D00A8DE090E00E94BB0939C035
:1010E0006D857E858F85988920E030E040E251E46F
:1010F0000E941F02DC01CB017C018D01E989FA8984
:101100008081882F90E0C097AA2797FDA095BA2FDD
:10111000BC01CD010E94F5039B01AC01C801B701E0
:101120000E94F201DC01CB018D879E87AF87B88BCF
:101130008D859E85AF85B889BC01CD010E94DE09F1
:101140008DE090E00E94BB0989899A8901969A8B6B
:10115000898BE989FA8980818E3211F689899A8989
:1011600001969A8B898B49C0E989FA898081882FF9
:1011700090E0C097AA2797FDA095BA2FBC01CD019A
:101180000E94F503DC01CB01BC01CD0129813A812C
:101190004B815C810E941F02DC01CB019C01AD01EF
:1011A00069857A858B859C850E94F201DC01CB01E3
:1011B00089879A87AB87BC8769817A818B819C817B
:1011C0002DEC3CEC4CEC5DE30E941F02DC01CB01FA
:1011D00089839A83AB83BC8389899A8901969A8B88
:1011E000898B89859A85AB85BC85BC01CD010E9420
:1011F000DE098DE090E00E94BB09E989FA898081CF
:10120000882309F0B1CF6D857E858F8598892985E2
:101210003A854B855C850E94F201DC01CB018D8310
:101220009E83AF83B88766960FB6F894DEBF0FBE75
:10123000CDBFCF91DF911F910F91FF90EF90089557
:10124000DF93CF93CDB7DEB727970FB6F894DEBF05
:101250000FBECDBF6C837D838E839F8381E08B83A4
:10126000A0E4B0E0E0E4F0E0808180688C93A0E44A
:10127000B0E0E0E4F0E080818F7B8C93ABE2B0E003
:10128000EBE2F0E080818D7F8C938C819D81AE813B
:10129000BF81880F991FAA1FBB1F880F991FAA1F04
:1012A000BB1F880F991FAA1FBB1F880F991FAA1F5A
:1012B000BB1F9C01AD0180E092E1AAE7B0E0BC0158
:1012C000CD010E948A27DA01C90101979A83898397
:1012D000A0E4B0E0E0E4F0E0808182608C93A0E4E0
:1012E000B0E0E0E4F0E0808184608C93AAE2B0E0BA
:1012F000EAE2F0E080818B7F8C93A0E4B0E0E0E450
:10130000F0E080818F7E8C93A0E4B0E0E0E4F0E038
:1013100080818F7D8C93A0E4B0E0E0E4F0E08081F8
:10132000877F8C93E9E2F0E089818083E0E4F0E05C
:1013300089819A81892F99278083AAE2B0E0EAE225
:10134000F0E0808180618C93AAE2B0E0EAE2F0E014
:10135000808188608C938B81813019F481E0809347
:10136000E6018B8127960FB6F894DEBF0FBECDBF86
:10137000CF91DF910895DF93CF9300D0CDB7DEB743
:101380008A838091E601813089F4EBE2F0E080818C
:10139000829586958770882F90E081709070009775
:1013A000A1F3ECE2F0E08A81808302C088E08983C7
:1013B00089810F900F90CF91DF9108950F931F9324
:1013C000DF93CF93CDB7DEB7CA57D0400FB6F894AE
:1013D000DEBF0FBECDBFFE01ED58FF4F60837183AE
:1013E00082839383E7E3F0E08FEF8083A8E3B0E0AC
:1013F000FE01ED58FF4F80818C9384E6FE013F96FD
:10140000DF01282F1D922A95E9F781E08F83188646
:1014100019861A861B861C861D861E861D82FE0165
:10142000ED58FF4F80819181A281B3810097A10582
:10143000B10509F05FC08D81282F30E0CE010F96F5
:10144000FC01E20FF31F80E380838D818F5F8D832A
:1014500051C0FE01ED58FF4F80819181A281B3817F
:101460002AE030E040E050E0BC01CD010E948A2734
:10147000DC01CB0189838D81A82FB0E0EA96BFAF54
:10148000AEAFEA9789818A3038F08981B82FB95A8E
:10149000E896BFAFE89706C08981E82FE05DE8963F
:1014A000EFAFE897CE010F96EA96EEADFFADEA9763
:1014B000E80FF91FE8962FADE89720838D818F5FA5
:1014C0008D838E010D581F4FFE01ED58FF4F808117
:1014D0009181A281B3812AE030E040E050E0BC017C
:1014E000CD010E948A27DA01C901F8018083918326
:1014F000A283B383FE01ED58FF4F80819181A281C9
:10150000B3810097A105B10509F0A3CF8D81282FE4
:1015100030E0CE010F96FC01E20FF31F10821C8217
:101520008D8181508B8328C08C81882F90E0FE01B3
:101530003F96E80FF91F80818A838C81882F90E085
:10154000DE011F96A80FB91F8B81882F90E0FE0146
:101550003F96E80FF91F80818C938B81882F90E054
:10156000FE013F96E80FF91F8A8180838C818F5F8F
:101570008C838B8181508B839C818B819817A0F207
:10158000CE010F960E94D00AC658DF4F0FB6F894CE
:10159000DEBF0FBECDBFCF91DF911F910F91089598
:1015A000DF93CF9300D000D000D0CDB7DEB79E83BD
:1015B0008D8381E08C831A8219828091E6018130CB
:1015C000F9F48D819E810097C1F02D813E81898142
:1015D0009A81F901E80FF91F80818B838B810E942A
:1015E000BB0989819A8101969A8389838B818D3089
:1015F00049F08B81882349F705C087E08C8302C0BE
:1016000088E08C838C8126960FB6F894DEBF0FBEDF
:10161000CDBFCF91DF910895DF93CF9300D00F928C
:10162000CDB7DEB79B838A8381E089838091E60111
:10163000813099F48A819B81009761F0EBE2F0E0C0
:1016400080818823DCF7ECE2F0E08081EA81FB8195
:10165000808305C087E0898302C088E0898389810F
:101660000F900F900F90CF91DF910895EF92FF921E
:101670000F931F93DF93CF93CDB7DEB766970FB667
:10168000F894DEBF0FBECDBF9D8B8C8B188681E09A
:1016900090E0A0E0B0E08C839D83AE83BF83EC89B3
:1016A000FD891082118212821382CE0109960E9456
:1016B000D50B1B8203C088858F5F88878885282F7C
:1016C00030E0CE010996FC01E20FF31F80818D30DE
:1016D00091F71A8258C098858A81292F281B822F5A
:1016E0008150898315C08C819D81AE81BF812AE0A4
:1016F00030E040E050E0BC01CD010E945727DC0102
:10170000CB018C839D83AE83BF8389818150898384
:101710008981882341F7EC89FD89E080F18002818D
:1017200013818B81282F30E0CE010996FC01E20F56
:10173000F31F8081882F90E0C097AA2797FDA0957E
:10174000BA2F2C813D814E815F81BC01CD010E9469
:101750005727DC01CB018E0D9F1DA01FB11FEC8907
:10176000FD8980839183A283B3838B818F5F8B8379
:1017700081E090E0A0E0B0E08C839D83AE83BF83E6
:101780008A818F5F8A839A818885981708F4A3CF0E
:1017900066960FB6F894DEBF0FBECDBFCF91DF9136
:1017A0001F910F91FF90EF900895DF93CF9300D09A
:1017B00000D000D0CDB7DEB79E838D8381E08B83D0
:1017C0008D819E819A8389838091E6018130C1F465
:1017D0008D819E81009789F0CE0104960E940C0BAA
:1017E0008C81E981FA81808389819A8101969A832B
:1017F00089838C818D3081F705C087E08B8302C09F
:1018000088E08B838B8126960FB6F894DEBF0FBEDF
:10181000CDBFCF91DF910895DF93CF93CDB7DEB7E2
:1018200027970FB6F894DEBF0FBECDBF9E838D8382
:101830006F8381E08B838D819E819A8389838091E0
:10184000E6018130F1F48D819E810097B9F0CE01DF
:1018500004960E940C0B8C81E981FA818083898136
:101860009A8101969A8389838F8181508F838C819D
:101870008D3049F08F81882351F705C087E08B8335
:1018800002C088E08B838B8127960FB6F894DEBF69
:101890000FBECDBFCF91DF910895DF93CF9300D0DE
:1018A0000F92CDB7DEB79B838A8381E089838091D5
:1018B000E6018130E1F48A819B810097A9F08A8159
:1018C0009B819093E8018093E701AAE2B0E0EAE20D
:1018D000F0E0808180688C93AFE5B0E0EFE5F0E068
:1018E000808180688C9305C087E0898302C088E08E
:1018F000898389810F900F900F90CF91DF91089588
:10190000DF93CF9300D00F92CDB7DEB79B838A834E
:1019100081E089838091E6018130E1F48A819B81B5
:101920000097A9F08A819B819093EA018093E90155
:10193000AAE2B0E0EAE2F0E0808180648C93AFE557
:10194000B0E0EFE5F0E0808180688C9305C087E02F
:10195000898302C088E0898389810F900F900F905E
:10196000CF91DF910895DF93CF93CDB7DEB710927B
:10197000E8011092E701AAE2B0E0EAE2F0E080813B
:101980008F778C93CF91DF910895DF93CF93CDB76D
:10199000DEB71092EA011092E901AAE2B0E0EAE2B1
:1019A000F0E080818F7B8C93CF91DF910895DF935E
:1019B000CF93CDB7DEB7AAE2B0E0EAE2F0E08081F3
:1019C0008F7E8C93AAE2B0E0EAE2F0E08081877F2C
:1019D0008C931092EA011092E9011092E8011092A2
:1019E000E701AAE2B0E0EAE2F0E080818F778C9331
:1019F000AAE2B0E0EAE2F0E080818F7B8C9381E0A4
:101A00008093E601CF91DF9108951F920F920FB658
:101A10000F9211242F933F934F935F936F937F9374
:101A20008F939F93AF93BF93EF93FF93DF93CF93E6
:101A30000F92CDB7DEB78091E7019091E801009752
:101A400031F0E091E701F091E801099504C0ECE282
:101A5000F0E0808189830F90CF91DF91FF91EF912A
:101A6000BF91AF919F918F917F916F915F914F91B6
:101A70003F912F910F900FBE0F901F9018951F92BE
:101A80000F920FB60F9211242F933F934F935F93B2
:101A90006F937F938F939F93AF93BF93EF93FF9336
:101AA000DF93CF93CDB7DEB78091E9019091EA0142
:101AB000009729F0E091E901F091EA010995CF91B1
:101AC000DF91FF91EF91BF91AF919F918F917F91A6
:101AD0006F915F914F913F912F910F900FBE0F909B
:101AE0001F901895DF93CF93CDB7DEB7EFE4F0E00A
:101AF0001082EEE4F0E0108281E0CF91DF91089552
:101B0000DF93CF93CDB7DEB7AEE4B0E0EEE4F0E024
:101B1000808183608C93ECE4F0E080E09FEF918320
:101B2000808381E0CF91DF910895DF93CF9300D040
:101B300000D000D0CDB7DEB789837B836A838981EB
:101B4000282F30E03E832D838D819E81009731F0D8
:101B50002D813E812130310551F012C0EAE4F0E0E0
:101B60008A819B8180509140918380830BC0E8E4FF
:101B7000F0E08A819B81805091409183808302C0F4
:101B80001C8202C031E03C838C8126960FB6F8940B
:101B9000DEBF0FBECDBFCF91DF910895DF93CF930E
:101BA00000D000D000D0CDB7DEB789837B836A83B5
:101BB0008A819B81009711F41E823DC08981282F64
:101BC00030E03D832C838C819D81009731F02C8106
:101BD0003D812130310579F01CC0A9E5B0E0E9E58F
:101BE000F0E0808180618C938A819B819093EC01ED
:101BF0008093EB0110C0A9E5B0E0E9E5F0E0808159
:101C000088608C938A819B819093EE018093ED0193
:101C100002C01E8210C0A9E5B0E0E9E5F0E08081D5
:101C200084608C93AFE5B0E0EFE5F0E08081806800
:101C30008C9331E03E838E8126960FB6F894DEBFFA
:101C40000FBECDBFCF91DF910895DF93CF9300D02A
:101C500000D0CDB7DEB789838981282F30E03C835F
:101C60002B838B819C81009731F02B813C8121302B
:101C7000310569F018C0A9E5B0E0E9E5F0E0808140
:101C80008F7E8C931092EC011092EB010EC0A9E5AF
:101C9000B0E0E9E5F0E08081877F8C931092EE015F
:101CA0001092ED0102C01A8202C031E03A838A81AB
:101CB0000F900F900F900F90CF91DF9108951F928A
:101CC0000F920FB60F9211242F933F934F935F9370
:101CD0006F937F938F939F93AF93BF93EF93FF93F4
:101CE000DF93CF93CDB7DEB78091EB019091EC01FC
:101CF000009729F0E091EB01F091EC010995CF916B
:101D0000DF91FF91EF91BF91AF919F918F917F9163
:101D10006F915F914F913F912F910F900FBE0F9058
:101D20001F9018951F920F920FB60F9211242F93A8
:101D30003F934F935F936F937F938F939F93AF9353
:101D4000BF93EF93FF93DF93CF93CDB7DEB780912F
:101D5000ED019091EE01009729F0E091ED01F091F5
:101D6000EE010995CF91DF91FF91EF91BF91AF9176
:101D70009F918F917F916F915F914F913F912F91A3
:101D80000F900FBE0F901F9018951F920F920FB6D5
:101D90000F9211242F933F934F935F936F937F93F1
:101DA0008F939F93AF93BF93EF93FF93DF93CF9363
:101DB000CDB7DEB7ECE4F0E080E09FEF9183808365
:101DC0008091EB019091EC01009729F0E091EB01FB
:101DD000F091EC0109958091ED019091EE01009751
:101DE00029F0E091ED01F091EE010995CF91DF919D
:101DF000FF91EF91BF91AF919F918F917F916F91E3
:101E00005F914F913F912F910F900FBE0F901F90B8
:101E10001895DF93CF9300D0CDB7DEB78A8381E0EA
:101E2000898386ED91E00E94AE1FADE2B0E0EDE265
:101E3000F0E080818E7F8C93ADE2B0E0EDE2F0E0E7
:101E400080818D7F8C93AEE2B0E0EEE2F0E08081A5
:101E50008E7F8C93ADE2B0E0EDE2F0E080818B7F8D
:101E60008C93ADE2B0E0EDE2F0E08081877F8C936F
:101E7000ADE2B0E0EDE2F0E0808180628C938A8197
:101E8000813021F5ADE2B0E0EDE2F0E080818061EB
:101E90008C93A7E3B0E0E7E3F0E0808180628C936D
:101EA000A7E3B0E0E7E3F0E0808180618C93A8E3F2
:101EB000B0E0E8E3F0E0808180618C93A7E3B0E0DC
:101EC000E7E3F0E0808180688C9314C08A818230DF
:101ED00079F4ADE2B0E0EDE2F0E080818F7E8C93AA
:101EE000A7E3B0E0E7E3F0E0808180648C9302C078
:101EF00085E089838981813051F4ADE2B0E0EDE283
:101F0000F0E0808180648C938A818093EF018981E5
:101F10000F900F90CF91DF910895DF93CF9300D072
:101F20000F92CDB7DEB78B8381E08A838091EF017A
:101F30008823A9F0A8E3B0E0E8E3F0E080818F7E99
:101F40008C93EFE2F0E08B818083EEE2F0E0808121
:101F50008823DCF7EFE2F0E08081898302C086E02D
:101F60008A838A810F900F900F90CF91DF9108950F
:101F7000DF93CF9300D000D0CDB7DEB79C838B83A7
:101F800081E08A8319828091EF01882329F18B8176
:101F90009C810097F1F00EC08981282F30E08B8161
:101FA0009C81FC01E20FF31F80810E948D0F8981CB
:101FB0008F5F89838981282F30E08B819C81FC0190
:101FC000E20FF31F8081882339F780E00E948D0F94
:101FD00005C087E08A8302C086E08A838A810F90E9
:101FE0000F900F900F90CF91DF910895DF93CF93D3
:101FF00000D00F92CDB7DEB79B838A8381E08983BF
:102000008091EF01882399F08A819B81009761F08C
:10201000EEE2F0E080818823DCF7EFE2F0E08081FF
:10202000EA81FB81808305C087E0898302C086E066
:10203000898389810F900F900F90CF91DF91089540
:10204000DF93CF9300D000D00F92CDB7DEB79D8342
:102050008C8381E08A8319828091EF01882331F19A
:102060008C819D810097F9F0CE0103960E94F60FB6
:102070008981282F30E08C819D81FC01E20FF31FC4
:102080008B81808389818F5F89838B81882361F72E
:102090008981282F30E08C819D81FC01E20FF31FA4
:1020A0008B81808305C087E08A8302C086E08A83B3
:1020B0008A810F900F900F900F900F90CF91DF912A
:1020C0000895DF93CF9300D00F92CDB7DEB79B83F7
:1020D0008A8381E089838091EF018823E1F08A81FE
:1020E0009B810097A9F08A819B819093F101809355
:1020F000F001ADE2B0E0EDE2F0E0808180688C9329
:10210000AFE5B0E0EFE5F0E0808180688C9305C03A
:1021100087E0898302C086E0898389810F900F90D0
:102120000F90CF91DF910895DF93CF93CDB7DEB7B6
:102130001092F1011092F001ADE2B0E0EDE2F0E0BA
:1021400080818F778C93CF91DF910895DF93CF9328
:10215000CDB7DEB7ADE2B0E0EDE2F0E080818F7B9D
:102160008C931092F1011092F001ADE2B0E0EDE23B
:10217000F0E080818F778C931092EF01CF91DF9107
:102180000895DF93CF9300D000D000D0CDB7DEB755
:102190009E838D83CE0104960E94F60FCE01039696
:1021A0000E94F60FCE0102960E94F60FCE01019614
:1021B0000E94F60F89819A81AB81BC81ED81FE81FD
:1021C00080839183A283B38326960FB6F894DEBFF3
:1021D0000FBECDBFCF91DF910895DF93CF93CDB7E1
:1021E000DEB72C970FB6F894DEBF0FBECDBF698760
:1021F0007A878B879C8789858C8389859A85AB852F
:10220000BC85892F9A2FAB2FBB278B8389859A8515
:10221000AB85BC85CD01AA27BB278A8389859A8592
:10222000AB85BC858B2F9927AA27BB2789838985F6
:102230009A85AB85BC858D839E83AF83B88789855E
:102240000E94BB098885882F90E0A0E0B0E0BC0127
:10225000CD010E94DE0988850E948D0F8F810E942A
:102260008D0F8E810E948D0F8D810E948D0F2C9677
:102270000FB6F894DEBF0FBECDBFCF91DF910895AA
:10228000DF93CF93CDB7DEB78091F0019091F1014C
:10229000009729F0E091F001F091F1010995CF91BB
:1022A000DF910895DF93CF93CDB7DEB78091F20130
:1022B0009091F301692F0E94041BCF91DF91089543
:1022C000DF93CF93CDB7DEB78091F4019091F50104
:1022D000692F0E94041BCF91DF910895DF93CF9364
:1022E00000D000D000D0CDB7DEB789837B836A836E
:1022F0008981282F30E03E832D838D819E81009738
:1023000031F02D813E812130310551F012C0EA813A
:10231000FB81808191819093F3018093F2010BC046
:10232000EA81FB81808191819093F5018093F40192
:1023300002C01C8203C00E94720D8C838C81269681
:102340000FB6F894DEBF0FBECDBFCF91DF910895D9
:10235000DF93CF93CDB7DEB72C970FB6F894DEBFDF
:102360000FBECDBF8D834E835F83688779876E8173
:102370007F81888599850E94A704DC01CB01BC017F
:10238000CD0120E030E040E853E40E941F02DC0170
:10239000CB01BC01CD0120E030E048EC52E40E94CA
:1023A0001903DC01CB01BC01CD010E944900DC0115
:1023B000CB0189839A83AB83BC838D81282F30E046
:1023C0003C872B878B859C85009731F02B853C853E
:1023D00021303105C9F030C08091F2019091F301B4
:1023E000692F41E00E9496178D810E94250E298158
:1023F0003A818D81B9010E94950D22E531E18D81EF
:10240000B9010E94CE0D1AC08091F4019091F5019E
:10241000692F41E00E9496178D810E94250E298127
:102420003A818D81B9010E94950D20E631E18D81BF
:10243000B9010E94CE0D02C01A8603C00E94800D11
:102440008A878A852C960FB6F894DEBF0FBECDBF63
:10245000CF91DF910895DF93CF930F92CDB7DEB781
:1024600081E08983E0E2F0E088E48083E2E2F0E06A
:1024700082E08083A6E5B0E0E6E5F0E0808180645C
:102480008C93A6E5B0E0E6E5F0E0808181608C9376
:10249000AFE5B0E0EFE5F0E0808180688C93A6E5E1
:1024A000B0E0E6E5F0E0808184608C9386EF91E017
:1024B0000E94AE1F88ED91E00E94AE1F89810F90AF
:1024C000CF91DF910895DF93CF93CDB7DEB7E1E2EF
:1024D000F0E08081887FCF91DF910895DF93CF93E3
:1024E00000D00F92CDB7DEB78A836B8381E08983FA
:1024F000E6E5F0E080818823DCF78091DA0188301E
:1025000021F08091DA01803171F4E3E2F0E09A8108
:102510008B81892B8083A6E5B0E0E6E5F0E0808141
:102520008F7080688C93E6E5F0E080818823DCF78B
:1025300089810F900F900F90CF91DF910895DF93D5
:10254000CF9300D0CDB7DEB78A8381E08983E3E201
:10255000F0E08A818083A6E5B0E0E6E5F0E08081E6
:102560008F7080688C93E6E5F0E080818823DCF74B
:1025700089810F900F90CF91DF910895DF93CF93D2
:102580000F92CDB7DEB781E089838091DA01883F71
:1025900069F4A6E5B0E0E6E5F0E0808180628C9326
:1025A000E6E5F0E080818823DCF702C086E08983DD
:1025B00089810F90CF91DF910895DF93CF930F9290
:1025C000CDB7DEB781E08983E6E5F0E0808188233E
:1025D000DCF78091DA01883221F08091DA018033D2
:1025E00049F4A6E5B0E0E6E5F0E080818F70806A0E
:1025F0008C9302C085E0898389810F90CF91DF9110
:102600000895DF93CF9300D00F92CDB7DEB79B83B1
:102610008A8381E08983E6E5F0E080818823DCF726
:102620008091DA01803421F08091DA018035C1F4A3
:1026300086EF91E00E94C41FA6E5B0E0E6E5F0E079
:1026400080818F70806C8C93E6E5F0E08081882338
:10265000DCF7E3E2F0E08081EA81FB8180830EC059
:102660008091DA01883451F487E08983A6E5B0E0EF
:10267000E6E5F0E080818F7080698C9389810F900E
:102680000F900F90CF91DF910895DF93CF9300D0FB
:102690000F92CDB7DEB79B838A8381E08983E6E51D
:1026A000F0E080818823DCF78091DA01803421F02A
:1026B0008091DA018035A1F4A6E5B0E0E6E5F0E02E
:1026C00080818F7080688C93E6E5F0E080818823BC
:1026D000DCF7E3E2F0E08081EA81FB8180830EC0D9
:1026E0008091DA01883451F487E08983A6E5B0E06F
:1026F000E6E5F0E080818F7080698C9389810F908E
:102700000F900F90CF91DF910895DF93CF930F92A9
:10271000CDB7DEB781E089838091DA01883021F47A
:102720008091DA01803149F4A6E5B0E0E6E5F0E019
:1027300080818F7080698C9302C085E0898388EFE7
:102740008093DA0189810F90CF91DF910895DF9313
:10275000CF9300D00F92CDB7DEB79A838983E6E599
:10276000F0E080818823DCF7A6E5B0E0E6E5F0E064
:1027700080818F70806C8C938091DA01803821F099
:102780008091DA018838C1F7A6E5B0E0E6E5F0E02F
:1027900080818F70806C8C9388EF8093DA01E3E204
:1027A000F0E08081E981FA8180830F900F900F9093
:1027B000CF91DF9108951F920F920FB60F921124BF
:1027C0008F93EF93FF93DF93CF93CDB7DEB7E1E223
:1027D000F0E08081887F8093DA01CF91DF91FF91D3
:1027E000EF918F910F900FBE0F901F901895DF9370
:1027F000CF93CDB7DEB72B970FB6F894DEBF0FBEE1
:10280000CDBF8A836B8381E089838A81282F30E062
:102810003B872A878A859B858130910509F47EC094
:102820002A853B852230310509F4EBC08A859B85DA
:10283000009709F01EC1ABE5B0E0EBE5F0E0808168
:102840008F7B8C93A1E3B0E0E1E3F0E080818B7FAC
:102850008C938B81282F30E039872887888599854C
:102860008130910521F128853985223031052CF4FC
:1028700088859985009761F047C028853985223081
:10288000310521F1888599858330910571F13CC02E
:10289000A5E5B0E0E5E5F0E080818E7F8C93A5E5CD
:1028A000B0E0E5E5F0E080818D7F8C932FC0A5E559
:1028B000B0E0E5E5F0E0808181608C93A5E5B0E0D3
:1028C000E5E5F0E080818D7F8C9320C0A5E5B0E048
:1028D000E5E5F0E080818E7F8C93A5E5B0E0E5E54D
:1028E000F0E0808182608C9311C0A5E5B0E0E5E561
:1028F000F0E0808181608C93A5E5B0E0E5E5F0E053
:10290000808182608C9302C083E08983ABE5B0E074
:10291000EBE5F0E0808180648C93ADC0ABE5B0E086
:10292000EBE5F0E080818F778C93A1E3B0E0E1E309
:10293000F0E08081877F8C938B81282F30E03F836C
:102940002E838E819F818130910521F12E813F81DF
:10295000223031052CF48E819F81009761F047C0B1
:102960002E813F812230310521F18E819F8183307C
:10297000910571F13CC0A5E5B0E0E5E5F0E08081AE
:102980008B7F8C93A5E5B0E0E5E5F0E08081877F63
:102990008C932FC0A5E5B0E0E5E5F0E08081846090
:1029A0008C93A5E5B0E0E5E5F0E08081877F8C932E
:1029B00020C0A5E5B0E0E5E5F0E080818B7F8C9359
:1029C000A5E5B0E0E5E5F0E0808188608C9311C07A
:1029D000A5E5B0E0E5E5F0E0808184608C93A5E5B5
:1029E000B0E0E5E5F0E0808188608C9302C083E090
:1029F0008983ABE5B0E0EBE5F0E0808180688C9303
:102A00003AC0ABE5B0E0EBE5F0E080818F7D8C93E0
:102A1000A7E3B0E0E7E3F0E080818B7F8C938B81CC
:102A2000282F30E03D832C838C819D81823091055D
:102A300031F02C813D812330310549F010C0A4E5EF
:102A4000B0E0E4E5F0E080818F7B8C930AC0A4E5E0
:102A5000B0E0E4E5F0E0808180648C9302C083E024
:102A60008983ABE5B0E0EBE5F0E0808180628C9398
:102A700002C082E08983AFE5B0E0EFE5F0E080815D
:102A800080688C9389812B960FB6F894DEBF0FBEB9
:102A9000CDBFCF91DF910895DF93CF93CDB7DEB750
:102AA0002E970FB6F894DEBF0FBECDBF8A836B831F
:102AB0004C8381E089838B81883008F02CC28A8125
:102AC000843008F028C28A81282F30E03E872D8785
:102AD0008D859E858130910509F498C02D853E85B0
:102AE000223031052CF48D859E85009771F011C23E
:102AF0002D853E852230310509F409C18D859E85DD
:102B00008330910509F484C104C28C81282F30E000
:102B10003C872B878B859C858130910599F12B858E
:102B20003C852230310509F45BC08B859C8500977C
:102B300009F06AC0AAE3B0E0EAE3F0E08081482F40
:102B40008B81282F30E081E090E002C0880F991F30
:102B50002A95E2F7809584238C93ABE3B0E0EBE316
:102B6000F0E08081482F8B81282F30E081E090E0D9
:102B7000022E02C0880F991F0A94E2F780958423E1
:102B80008C93CAC1A0E5B0E0E0E5F0E080818B7FE6
:102B90008C93AAE3B0E0EAE3F0E08081482F8B81D8
:102BA000282F30E081E090E002C0880F991F2A951D
:102BB000E2F7809584238C93ABE3B0E0EBE3F0E0A5
:102BC0008081482F8B81282F30E081E090E0022E19
:102BD00002C0880F991F0A94E2F7842B8C939CC142
:102BE000AAE3B0E0EAE3F0E08081482F8B81282F50
:102BF00030E081E090E0022E02C0880F991F0A9415
:102C0000E2F7842B8C9388C1198286C18C81282F8E
:102C100030E03A87298789859A858130910599F135
:102C200029853A852230310509F45BC089859A856A
:102C3000009709F06AC0A7E3B0E0E7E3F0E0808125
:102C4000482F8B81282F30E081E090E002C0880F70
:102C5000991F2A95E2F7809584238C93A8E3B0E02E
:102C6000E8E3F0E08081482F8B81282F30E081E07D
:102C700090E0022E02C0880F991F0A94E2F7809517
:102C800084238C9349C1A0E5B0E0E0E5F0E08081C9
:102C90008B7F8C93A7E3B0E0E7E3F0E08081482FDF
:102CA0008B81282F30E081E090E002C0880F991FCF
:102CB0002A95E2F7809584238C93A8E3B0E0E8E3BB
:102CC000F0E08081482F8B81282F30E081E090E078
:102CD000022E02C0880F991F0A94E2F7842B8C936E
:102CE0001BC1A7E3B0E0E7E3F0E08081482F8B81D0
:102CF000282F30E081E090E0022E02C0880F991F5B
:102D00000A94E2F7842B8C9307C1198205C18C8148
:102D1000282F30E038872F838F8198858130910567
:102D200099F12F8138852230310509F45BC08F81FC
:102D30009885009709F06AC0A4E3B0E0E4E3F0E00E
:102D40008081482F8B81282F30E081E090E002C005
:102D5000880F991F2A95E2F7809584238C93A5E329
:102D6000B0E0E5E3F0E08081482F8B81282F30E050
:102D700081E090E0022E02C0880F991F0A94E2F7CA
:102D8000809584238C93C8C0A0E5B0E0E0E5F0E036
:102D900080818B7F8C93A4E3B0E0E4E3F0E080815A
:102DA000482F8B81282F30E081E090E002C0880F0F
:102DB000991F2A95E2F7809584238C93A5E3B0E0D0
:102DC000E5E3F0E08081482F8B81282F30E081E01F
:102DD00090E0022E02C0880F991F0A94E2F7842B1C
:102DE0008C939AC0A4E3B0E0E4E3F0E08081482F44
:102DF0008B81282F30E081E090E0022E02C0880F06
:102E0000991F0A94E2F7842B8C9386C0198284C0A0
:102E10008C81282F30E03E832D838D819E818130EF
:102E2000910599F12D813E812230310509F45BC075
:102E30008D819E81009709F06AC0A1E3B0E0E1E3D3
:102E4000F0E08081482F8B81282F30E081E090E0F6
:102E500002C0880F991F2A95E2F7809584238C93EE
:102E6000ABE3B0E0EBE3F0E08081482F8B81282FCB
:102E700030E081E090E0022E02C0880F991F0A9492
:102E8000E2F7809584238C9347C0A0E5B0E0E0E5AD
:102E9000F0E080818B7F8C93A1E3B0E0E1E3F0E090
:102EA0008081482F8B81282F30E081E090E002C0A4
:102EB000880F991F2A95E2F7809584238C93A2E3CB
:102EC000B0E0E2E3F0E08081482F8B81282F30E0F2
:102ED00081E090E0022E02C0880F991F0A94E2F769
:102EE000842B8C9319C0A1E3B0E0E1E3F0E0808192
:102EF000482F8B81282F30E081E090E0022E02C025
:102F0000880F991F0A94E2F7842B8C9305C01982CD
:102F100003C0198201C0198289812E960FB6F894D8
:102F2000DEBF0FBECDBFCF91DF910895DF93CF936A
:102F3000CDB7DEB72E970FB6F894DEBF0FBECDBF6C
:102F40008A836B834C8381E089838B81883008F08E
:102F500006C18A81282F30E03E872D878D859E858A
:102F60008130910509F450C02D853E852230310510
:102F70002CF48D859E85009771F0F2C02D853E85DD
:102F80002230310509F479C08D859E858330910505
:102F900009F4ACC0E5C08C81282F30E03C872B873A
:102FA0008B859C850097C9F02B853C8521303105A8
:102FB00049F5ABE3B0E0EBE3F0E08081482F8B8193
:102FC000282F30E081E090E0022E02C0880F991F88
:102FD0000A94E2F7842B8C93C3C0ABE3B0E0EBE33D
:102FE000F0E08081482F8B81282F30E081E090E055
:102FF000022E02C0880F991F0A94E2F7809584235D
:103000008C93AEC01982ACC08C81282F30E03A87F7
:10301000298789859A850097C9F029853A852130C5
:10302000310549F5A8E3B0E0E8E3F0E08081482FFE
:103030008B81282F30E081E090E0022E02C0880FC3
:10304000991F0A94E2F7842B8C938AC0A8E3B0E01E
:10305000E8E3F0E08081482F8B81282F30E081E089
:1030600090E0022E02C0880F991F0A94E2F7809523
:1030700084238C9375C0198273C08C81282F30E013
:1030800038872F838F8198850097C9F02F813885E5
:103090002130310549F5A5E3B0E0E5E3F0E08081BA
:1030A000482F8B81282F30E081E090E0022E02C073
:1030B000880F991F0A94E2F7842B8C9351C0A5E3E3
:1030C000B0E0E5E3F0E08081482F8B81282F30E0ED
:1030D00081E090E0022E02C0880F991F0A94E2F767
:1030E000809584238C933CC019823AC08C81282F10
:1030F00030E03E832D838D819E810097C9F02D8124
:103100003E812130310549F5A2E3B0E0E2E3F0E091
:103110008081482F8B81282F30E081E090E0022EC3
:1031200002C0880F991F0A94E2F7842B8C9318C071
:10313000A2E3B0E0E2E3F0E08081482F8B81282F0A
:1031400030E081E090E0022E02C0880F991F0A94BF
:10315000E2F7809584238C9303C0198201C0198201
:1031600089812E960FB6F894DEBF0FBECDBFCF91EA
:10317000DF910895DF93CF93CDB7DEB727970FB6D2
:10318000F894DEBF0FBECDBF8A836B835D834C8313
:1031900081E089838B81883008F078C08C819D81A3
:1031A000009709F473C08A81282F30E03F832E8373
:1031B0004E815F814130510559F18E819F8182306E
:1031C000910534F42E813F812115310569F05CC0F1
:1031D0004E815F814230510579F18E819F8183302C
:1031E000910509F43DC050C0E9E3F0E08081282F4B
:1031F00030E08B81882F90E0A90102C0559547955A
:103200008A95E2F7CA018170EC81FD8180833FC01D
:10321000E6E3F0E08081282F30E08B81882F90E07A
:10322000A90102C0559547958A95E2F7CA018170B8
:10323000EC81FD8180832BC0E3E3F0E08081282FC7
:1032400030E08B81882F90E0A90102C05595479509
:103250008A95E2F7CA018170EC81FD81808317C0F5
:10326000E0E3F0E08081282F30E08B81882F90E030
:10327000A90102C0559547958A95E2F7CA01817068
:10328000EC81FD81808303C0198201C0198289818C
:1032900027960FB6F894DEBF0FBECDBFCF91DF915A
:1032A0000895DF93CF93CDB7DEB72D970FB6F8947F
:1032B000DEBF0FBECDBF8A836B8381E089838A81A5
:1032C000282F30E03D872C878C859D8581309105A6
:1032D00009F44BC02C853D85223031052CF48C85BA
:1032E0009D85009771F0DDC02C853D85223031052C
:1032F00009F46FC08C859D858330910509F49DC0CC
:10330000D0C08B81282F30E03B872A878A859B8518
:1033100081309105A1F02A853B8522303105F1F0FD
:103320008A859B850097F9F4EAE3F0E01082A0E536
:10333000B0E0E0E5F0E0808184608C93B3C0A0E56C
:10334000B0E0E0E5F0E080818B7F8C93EAE3F0E091
:103350001082EBE3F0E08FEF8083A4C0EAE3F0E0BB
:103360008FEF80839FC019829DC08B81282F30E012
:10337000398728878885998581309105A1F028852E
:10338000398522303105F1F0888599850097F9F467
:10339000E7E3F0E01082A0E5B0E0E0E5F0E0808156
:1033A00084608C937FC0A0E5B0E0E0E5F0E0808130
:1033B0008B7F8C93E7E3F0E01082E8E3F0E08FEF9F
:1033C000808370C0E7E3F0E08FEF80836BC01982E9
:1033D00069C08B81282F30E03F832E838E819F81AF
:1033E00081309105A1F02E813F8122303105F1F02D
:1033F0008E819F810097F9F4E4E3F0E01082A0E56C
:10340000B0E0E0E5F0E0808184608C934BC0A0E503
:10341000B0E0E0E5F0E080818B7F8C93E4E3F0E0C6
:103420001082E5E3F0E08FEF80833CC0E4E3F0E05E
:103430008FEF808337C0198235C08B81282F30E011
:103440003D832C838C819D8181309105A1F02C815D
:103450003D8122303105F1F08C819D810097F9F496
:10346000E1E3F0E01082A0E5B0E0E0E5F0E080818B
:1034700084608C9317C0A0E5B0E0E0E5F0E08081C7
:103480008B7F8C93E1E3F0E01082E2E3F0E08FEFDA
:10349000808308C0E1E3F0E08FEF808303C01982EE
:1034A00001C0198289812D960FB6F894DEBF0FBE38
:1034B000CDBFCF91DF910895DF93CF9300D000D09F
:1034C0000F92CDB7DEB78A836B8381E089838B81CE
:1034D0008F3F19F08B818823A9F58A81282F30E04E
:1034E0003D832C838C819D8181309105D1F02C818D
:1034F0003D81223031052CF48C819D81009761F053
:103500001FC02C813D812230310581F08C819D814D
:103510008330910581F014C0EBE3F0E08B81808370
:1035200012C0E8E3F0E08B8180830DC0E5E3F0E0BA
:103530008B81808308C0E2E3F0E08B81808303C04D
:10354000198201C0198289810F900F900F900F90FE
:103550000F90CF91DF910895DF93CF9300D000D0EB
:1035600000D0CDB7DEB78A837C836B8381E089830B
:103570008B819C810097E9F18A81282F30E03E837E
:103580002D838D819E8181309105E1F02D813E81D9
:10359000223031052CF48D819E81009761F027C087
:1035A0002D813E8122303105A1F08D819E818330B5
:1035B0009105B1F01CC0EBE3F0E08081EB81FC8170
:1035C000808318C0E8E3F0E08081EB81FC81808398
:1035D00011C0E5E3F0E08081EB81FC8180830AC0CB
:1035E000E2E3F0E08081EB81FC81808303C01982FB
:1035F00001C01982898126960FB6F894DEBF0FBEEE
:10360000CDBFCF91DF910895DF93CF9300D000D04D
:103610000F92CDB7DEB78A836B8381E089838A817D
:10362000282F30E03D832C838C819D818130910552
:1036300049F12C813D81223031052CF48C819D8112
:10364000009761F05BC02C813D812230310571F122
:103650008C819D8183309105E9F150C0ABE3B0E0EE
:10366000EBE3F0E08081482F8B81282F30E081E070
:1036700090E0022E02C0880F991F0A94E2F7842777
:103680008C933DC0A8E3B0E0E8E3F0E08081482FF0
:103690008B81282F30E081E090E0022E02C0880F5D
:1036A000991F0A94E2F784278C9329C0A5E3B0E020
:1036B000E5E3F0E08081482F8B81282F30E081E026
:1036C00090E0022E02C0880F991F0A94E2F7842727
:1036D0008C9315C0A2E3B0E0E2E3F0E08081482FD4
:1036E0008B81282F30E081E090E0022E02C0880F0D
:1036F000991F0A94E2F784278C9301C0198289816B
:103700000F900F900F900F900F90CF91DF91089531
:10371000DF93CF93CDB7DEB7E3E5F0E08BE08083B6
:1037200081E0CF91DF910895DF93CF9300D000D057
:103730000F92CDB7DEB79A8389837C836B838091A8
:10374000DB01823021F48091DB018D8329C082E08E
:103750008093DB0189819A819093F9018093F8012C
:103760008B819C810097D9F08B819C819093FD0186
:103770008093FC01ECE5F0E08DE78083A9E5B0E003
:10378000E9E5F0E0808182608C93AFE5B0E0EFE5A1
:10379000F0E0808180688C9381E08D8301C01D8280
:1037A0008D810F900F900F900F900F90CF91DF9120
:1037B0000895DF93CF9300D00F92CDB7DEB79A83F1
:1037C00089838091DB01823021F48091DB018B833E
:1037D0003BC082E08093DB011092FB011092FA0162
:1037E00089819A819093F9018093F8010E94881B46
:1037F000E2E5F0E01082ECE5F0E08DE78083A9E5FA
:10380000B0E0E9E5F0E0808182608C93AFE5B0E064
:10381000EFE5F0E0808180688C932091FA0130918F
:10382000FB018091F8019091F90182179307A8F7A5
:10383000A9E5B0E0E9E5F0E080818D7F8C9381E03F
:103840008093DB0181E08B838B810F900F900F9031
:10385000CF91DF9108951F920F920FB60F9211240E
:103860002F933F934F935F936F937F938F939F9388
:10387000AF93BF93EF93FF93DF93CF93CDB7DEB7B3
:103880008091FA019091FB0101969093FB01809346
:10389000FA012091FA013091FB018091F801909199
:1038A000F90128173907C9F48091FC019091FD01B5
:1038B000009799F01092FB011092FA01A9E5B0E08F
:1038C000E9E5F0E080818D7F8C9381E08093DB01DE
:1038D000E091FC01F091FD010995CF91DF91FF91FD
:1038E000EF91BF91AF919F918F917F916F915F9178
:1038F0004F913F912F910F900FBE0F901F901895F1
:10390000DF93CF930F92CDB7DEB781E08983A7E233
:10391000B0E0E7E2F0E080818F738C93A7E2B0E043
:10392000E7E2F0E0808180648C93A7E2B0E0E7E218
:10393000F0E080818F7D8C93A7E2B0E0E7E2F0E0D9
:103940008081887F8C93A7E2B0E0E7E2F0E080819D
:1039500087608C9389810F90CF91DF910895DF93D9
:10396000CF9300D00F92CDB7DEB79B838A8381E0DF
:1039700089838A819B81009709F455C0A7E2B0E052
:10398000E7E2F0E08081807E8C93A7E2B0E0E7E29E
:10399000F0E09081EA81FB818181892B8C93A6E202
:1039A000B0E0E6E2F0E0808180688C93EA81FB8100
:1039B0008281883041F4A6E2B0E0E6E2F0E0808166
:1039C00080648C9332C0A6E2B0E0E6E2F0E0808151
:1039D00080628C93A0E5B0E0E0E5F0E080818F713B
:1039E0008C93A0E5B0E0E0E5F0E08081282FEA814B
:1039F000FB818281882F90E0880F991F8295929594
:103A0000907F9827807F9827822B8C93EA81FB8177
:103A10008281882351F4A6E2B0E0E6E2F0E0808102
:103A200080648C9302C087E5898389810F900F9011
:103A30000F90CF91DF910895DF93CF9300D00F9235
:103A4000CDB7DEB79B838A8381E089838A819B819E
:103A5000009709F44AC0E6E2F0E0808182958F7019
:103A6000882F90E0817090700097A9F3E7E2F0E072
:103A70008081829586958770882F90E08170907004
:103A80008823C9F0E4E2F0E08081829586958695EE
:103A90008370282F30E0E5E2F0E08081882F90E00D
:103AA000880F991F880F991F822B932BEA81FB8126
:103AB0009183808312C0E4E2F0E08081282F30E01F
:103AC000E5E2F0E08081882F90E0982F8827822B14
:103AD000932BEA81FB8191838083A6E2B0E0E6E24A
:103AE000F0E080818F7E8C9302C087E58983898195
:103AF0000F900F900F90CF91DF910895DF93CF93A8
:103B000000D000D00F92CDB7DEB79D838C8381E0CB
:103B100089831B821A828C819D810097A1F0CE013E
:103B200002960E941C1D813059F48A819B81880F66
:103B3000991F880F991FEC81FD819183808305C0B7
:103B400084E5898302C087E5898389810F900F907E
:103B50000F900F900F90CF91DF910895DF93CF9347
:103B600000D00F92CDB7DEB79B838A8381E0898333
:103B70008A819B81009741F18A819B819093FF010B
:103B80008093FE01AFE5B0E0EFE5F0E08081806872
:103B90008C93A6E2B0E0E6E2F0E0808188608C934E
:103BA000EFE5F0E08081882364F4E6E2F0E08081D4
:103BB000869586958695882F90E081709070009705
:103BC00029F485E5898302C087E5898389810F907F
:103BD0000F900F90CF91DF910895DF93CF930F92C5
:103BE000CDB7DEB781E08983A6E2B0E0E6E2F0E09F
:103BF0008081877F8C93E6E2F0E0808186958695D0
:103C00008695882F90E081709070882311F086E56A
:103C1000898389810F90CF91DF9108951F920F9230
:103C20000FB60F9211242F933F934F935F936F938F
:103C30007F938F939F93AF93BF93EF93FF93DF9304
:103C4000CF93CDB7DEB78091FE019091FF01009731
:103C500029F0E091FE01F091FF010995CF91DF91EC
:103C6000FF91EF91BF91AF919F918F917F916F9154
:103C70005F914F913F912F910F900FBE0F901F902A
:103C80001895DF93CF93CDB7DEB780E060E040E0DA
:103C90000E944C150E94801CCF91DF910895DF9304
:103CA000CF93CDB7DEB72B970FB6F894DEBF0FBE1C
:103CB000CDBF998788877B876A8781E08C831B8249
:103CC0001A82198288859985009709F447C08A85E8
:103CD0009B85009709F442C0E885F9859081E885C5
:103CE000F98581819D838E8388E08F83CE0105963F
:103CF0000E94AF1C813011F183E08C8331C08A8532
:103D00009B850E947E1DEA85FB85808191812AE04A
:103D100030E0B9010E947627CB01EA85FB859183CB
:103D2000808389818F5F8983EA85FB85208131814A
:103D30008A819B81820F931F9B838A83898184362A
:103D4000F0F28A819B8124E630E0B9010E94762757
:103D5000CB01EA85FB859183808302C082E08C835E
:103D60008C812B960FB6F894DEBF0FBECDBFCF91DE
:103D7000DF910895DF93CF9300D000D00F92CDB79D
:103D8000DEB79D838C8381E08983EC81FD81908106
:103D9000EC81FD8183819A838B83EC81FD8180811D
:103DA000EC81FD819181692F42E00E944C1589834D
:103DB0008981813059F4EC81FD818081EC81FD8124
:103DC0009281692F42E00E944C158983898181305C
:103DD00059F4EC81FD818081EC81FD819381692F13
:103DE00042E00E944C158983EC81FD8184819E0113
:103DF0002E5F3F4FB9010E946E1189810F900F9085
:103E00000F900F900F90CF91DF910895DF93CF9394
:103E1000CDB7DEB727970FB6F894DEBF0FBECDBF84
:103E20009B838A836C834D8381E089838A819B8114
:103E3000009709F45DC08C81882309F459C08C81F6
:103E4000843608F055C08D81282F30E03F832E83C3
:103E50008E819F81009731F02E813F812130310585
:103E600019F144C0EA81FB818081EA81FB81918163
:103E7000692F41E00E949617EA81FB818081EA81E7
:103E8000FB819281692F40E00E949617EA81FB81B5
:103E900094818C81282F30E040E050E0892FBA01D6
:103EA000A9010E94A81125C0EA81FB818081EA81D5
:103EB000FB819181692F40E00E949617EA81FB8186
:103EC0008081EA81FB819281692F41E00E949617EF
:103ED000EA81FB8194818C81282F30E040E050E022
:103EE000892FBA01A9010E94A81103C0198201C03B
:103EF0001982898127960FB6F894DEBF0FBECDBF19
:103F0000CF91DF910895DF93CF9300D00F92CDB77B
:103F1000DEB79B838A8381E089838A819B810097B6
:103F2000A9F0EA81FB818081EA81FB819181692F7F
:103F300040E00E949617EA81FB818081EA81FB8143
:103F40009281692F40E00E94961701C019828981F1
:103F50000F900F900F90CF91DF910895DF93CF9343
:103F600000D0CDB7DEB79A838983E981FA81808159
:103F7000E981FA819181692F42E00E944C150F90EE
:103F80000F90CF91DF910895DF93CF9300D0CDB7FD
:103F9000DEB79A838983E981FA818081E981FA8198
:103FA0009181692F41E00E9496170F900F90CF9159
:103FB000DF910895DF93CF9300D0CDB7DEB79A831A
:103FC0008983E981FA818081E981FA819181692F70
:103FD00040E00E9496170F900F90CF91DF910895C7
:103FE000DF93CF9300D0CDB7DEB79A838983E98181
:103FF000FA818081E981FA819181692F0E94041BF5
:104000000F900F90CF91DF910895DF93CF930F9290
:10401000CDB7DEB781E0898380E061E042E00E94B5
:104020004C1589838981813031F480E062E042E07F
:104030000E944C1589838981813031F480E063E0EE
:1040400042E00E944C1589838981813031F480E0FF
:1040500064E042E00E944C1589838981813031F40B
:1040600080E065E042E00E944C15898389818130BF
:1040700031F480E066E042E00E944C15898389813A
:10408000813031F480E067E042E00E944C15898382
:104090008981813021F483E30E947720898389819B
:1040A000813021F482E30E947720898389818130E5
:1040B00021F488E20E94772089838981813021F46C
:1040C0008CE00E94772089838981813021F486E009
:1040D0000E94772089838981813021F481E00E94C8
:1040E0007720898389810F90CF91DF910895DF93A5
:1040F000CF9300D00F92CDB7DEB78B8381E08A8358
:104100008B8182958F708170898380E064E0498122
:104110000E9496178A838A81813061F48B8182950F
:10412000869587708170898380E065E049810E946F
:1041300096178A838A81813061F48B818295869576
:10414000869583708170898380E066E049810E9452
:1041500096178A81813051F48B81881F8827881FA8
:10416000898380E067E049810E9496178A818130C7
:1041700031F480E061E040E00E9496178A838A81F2
:10418000813031F480E062E040E00E9496178A833B
:104190008A81813031F480E063E041E00E9496172B
:1041A0008A838A81813051F482E090E00E94D91B99
:1041B00080E063E040E00E9496178A838A81813024
:1041C00049F48B818170898380E064E049810E9499
:1041D00096178A838A81813049F48B818695817014
:1041E000898380E065E049810E9496178A81813049
:1041F00051F48B81869586958170898380E066E095
:1042000049810E9496178A81813059F48B81869565
:10421000869586958170898380E067E049810E9458
:1042200096178A81813031F480E061E040E00E949D
:1042300096178A838A81813031F480E062E040E021
:104240000E9496178A838A81813031F480E063E08E
:1042500041E00E9496178A838A81813051F482E07E
:1042600090E00E94D91B80E063E040E00E94961736
:104270008A838A81813029F485E090E00E94D91BED
:104280008A838A810F900F900F90CF91DF910895CC
:10429000DF93CF9300D00F92CDB7DEB78B8381E051
:1042A0008A838B8182958F708170898380E064E03E
:1042B00049810E9496178A838A81813061F48B81BB
:1042C0008295869587708170898380E065E0498159
:1042D0000E9496178A838A81813061F48B8182954E
:1042E0008695869583708170898380E066E0498138
:1042F0000E9496178A81813051F48B81881F88270C
:10430000881F898380E067E049810E9496178A812F
:10431000813031F480E061E041E00E9496178A83A9
:104320008A81813031F480E062E040E00E9496179B
:104330008A838A81813031F480E063E041E00E9429
:1043400096178A838A81813051F482E090E00E943E
:10435000D91B80E063E040E00E9496178A838A813F
:10436000813049F48B818170898380E064E04981E8
:104370000E9496178A838A81813049F48B818695C1
:104380008170898380E065E049810E9496178A8167
:10439000813051F48B81869586958170898380E088
:1043A00066E049810E9496178A81813059F48B8199
:1043B0008695869586958170898380E067E049813E
:1043C0000E9496178A81813031F480E061E041E0FB
:1043D0000E9496178A838A81813031F480E062E0FE
:1043E00040E00E9496178A838A81813031F480E010
:1043F00063E041E00E9496178A838A81813051F4FC
:1044000082E090E00E94D91B80E063E040E00E94DF
:1044100096178A8385E090E00E94D91B8A838A815F
:104420000F900F900F90CF91DF910895DF93CF936E
:1044300000D000D00F92CDB7DEB79D838C8381E092
:104440008B838C819D81009711F41B821DC08C8110
:104450009D819A83898310C0E981FA8180810E94BD
:1044600048218B8381E090E00E94D91B8B83898156
:104470009A8101969A838983E981FA8180818823D0
:1044800019F08B81813041F38B810F900F900F9049
:104490000F900F90CF91DF910895DF93CF9300D0CD
:1044A00000D0CDB7DEB79C838B8381E090E09A8308
:1044B000898389819A819C01220F331FC901880F4A
:1044C000991F880F991FF901E80FF91F8B819C81B3
:1044D0002AE030E0B9010E9476278E0F9F1F9A8351
:1044E00089838B819C812AE030E0B9010E94762784
:1044F000CB019C838B838B819C810097D1F614C068
:1045000089819A812AE030E0B9010E947627805D96
:104510000E94482189819A812AE030E0B9010E94F5
:104520007627CB019A83898389819A81823091058C
:1045300038F70F900F900F900F90CF91DF91089563
:10454000DF93CF9300D000D00F92CDB7DEB78A8330
:104550006B8381E089838B81803110F0198218C0D0
:104560008A81282F30E03D832C838C819D810097A8
:1045700031F02C813D812130310529F008C08B813B
:1045800080688B8305C08B81806C8B8301C019820E
:104590008981813021F48B810E94772089838981F0
:1045A0000F900F900F900F900F90CF91DF91089583
:1045B000DF93CF930F92CDB7DEB782E065E042E0A4
:1045C0000E944C1582E066E042E00E944C1582E0B9
:1045D00067E042E00E944C1582E062E041E00E9408
:1045E0004C1582E063E041E00E944C1582E064E0FB
:1045F00041E00E944C1582E065E041E00E94961780
:1046000082E066E041E00E94961782E067E041E0C8
:104610000E9496170F90CF91DF910895DF93CF936B
:10462000CDB7DEB765970FB6F894DEBF0FBECDBF2E
:10463000988B8F8781E08C838FEF8B83CE010696DA
:104640009A8B898BEDEDF1E0FC8BEB8BF9E0FD8B28
:10465000EB89FC8900808B899C8901969C8B8B8BD4
:10466000E989FA89008289899A8901969A8B898BCE
:104670009D8991509D8BED89EE2351F78F85988907
:10468000009709F44DC085E08A8341C082E06A81C9
:1046900040E00E94961782E089832EC09E012B5F26
:1046A0003F4F82E06981A9010E94BA188D81882359
:1046B00001F58981882F90E09C01225030408A8149
:1046C000882F90E0AC0145505040C901880F991FD8
:1046D000820F931F9E012F5F3F4F820F931F840F06
:1046E000951FFC01359680818B838AE090E00E94C3
:1046F000D91B89818F5F89838981853078F282E037
:104700006A8141E00E9496178A818F5F8A838A813D
:10471000883008F4BBCFEF85F8898B81808301C096
:104720001C828C8165960FB6F894DEBF0FBECDBF9C
:10473000CF91DF910895DF93CF93CDB7DEB781E0BE
:1047400064E040E00E944C1581E065E040E00E949A
:104750004C1581E066E042E00E944C1581E067E084
:1047600040E00E944C1581E00E94090F81E0CF914A
:10477000DF910895DF93CF9300D00F92CDB7DEB7CE
:104780009B838A8381E064E09E012F5F3F4FA901F4
:104790000E94BA188981882321F48A819B810E9412
:1047A000B80F81E00F900F900F90CF91DF91089597
:1047B000DF93CF93CDB7DEB760E875E280E090E09D
:1047C0000E94200981E0CF91DF910895DF93CF937C
:1047D00000D0CDB7DEB79A83898380E690E00E944F
:1047E000D00A89819A8169E070E00E940C0C8BE705
:1047F00090E00E94D00A89819A810A9669E070E06F
:104800000E940C0C8DE00E94BB098CE990E00E9494
:10481000D00A89819A81469664E070E00E940C0C6F
:104820008DE00E94BB0981E00F900F90CF91DF9146
:104830000895DF93CF9300D0CDB7DEB79A838983F5
:1048400089819A810E944D0C81E00F900F90CF9149
:10485000DF910895DF93CF93CDB7DEB70E94B30CFD
:1048600081E0CF91DF910895DF93CF93CDB7DEB78D
:104870000E942B12CF91DF910895DF93CF93CDB794
:10488000DEB728970FB6F894DEBF0FBECDBF8C837E
:104890007E836D834F838C81882F90E0880F991FD2
:1048A000806A8B838D819E81892F99278A838D8150
:1048B00089830E94BE128B8160E00E946E128A8101
:1048C0000E949F1289810E949F128F810E949F12D5
:1048D0000E94851328960FB6F894DEBF0FBECDBF99
:1048E000CF91DF910895DF93CF93CDB7DEB72997AE
:1048F0000FB6F894DEBF0FBECDBF8C837E836D8371
:1049000058874F838C81882F90E0880F991F806A89
:104910008B838D819E81892F99278A838D818983BD
:104920000E94BE128B8160E00E946E128A810E94FA
:104930009F1289810E949F120E94DD128B8161E08B
:104940000E946E128F8198850E9445130E948513E4
:104950008AE090E00E94D91B29960FB6F894DEBF3A
:104960000FBECDBFCF91DF910895DF93CF93CDB729
:10497000DEB72A970FB6F894DEBF0FBECDBF8D838A
:104980007F836E83598748878D81882F90E0880FB9
:10499000991F806A8C838E819F81892F99278B83B1
:1049A0008E818A8319820E94BE128C8160E00E94EF
:1049B0006E128B810E949F128A810E949F120EC0EC
:1049C0008981282F30E088859985FC01E20FF31F4B
:1049D00080810E949F1289818F5F89838981282F1E
:1049E00030E088859985FC01E20FF31F80818823E0
:1049F00019F089818F3321F780E00E949F120E9475
:104A000085138AE090E00E94D91B2A960FB6F8948D
:104A1000DEBF0FBECDBFCF91DF910895DF93CF935F
:104A2000CDB7DEB72B970FB6F894DEBF0FBECDBF64
:104A30008E8378876F835A8749878E81882F90E08D
:104A4000880F991F806A8C838F819885892F992779
:104A50008B838F818A8319820E94BE128C8160E0D1
:104A60000E946E128B810E949F128A810E949F1267
:104A70000E94DD128C8161E00E946E128981282FD4
:104A800030E089859A85820F931F0E9401138981E6
:104A90008F5F89838981882F90E09C01215030406D
:104AA00089859A85FC01E20FF31F8081882331F705
:104AB000CE0105960E9445130E9485132B960FB6D2
:104AC000F894DEBF0FBECDBFCF91DF910895DF9385
:104AD000CF93CDB7DEB72C970FB6F894DEBF0FBEDD
:104AE000CDBF8D837F836E83288739874A875B8715
:104AF00088859985AA85BB8589839A83AB83BC8386
:104B00009C812E813F818D81B901492F0E943D24D6
:104B10008AE090E00E94D91B8E819F819C012F5FCB
:104B20003F4F9B818D81B901492F0E943D248AE02E
:104B300090E00E94D91B8E819F819C012E5F3F4F88
:104B40009A818D81B901492F0E943D248AE090E02D
:104B50000E94D91B8E819F819C012D5F3F4F9981BF
:104B60008D81B901492F0E943D248AE090E00E9486
:104B7000D91B2C960FB6F894DEBF0FBECDBFCF91D8
:104B8000DF910895DF93CF93CDB7DEB72A970FB6A5
:104B9000F894DEBF0FBECDBF8D837F836E835987B0
:104BA00048872E813F81AE014C5F5F4F8D81B901F7
:104BB0000E9473248AE090E00E94D91B8E819F811D
:104BC0009C012F5F3F4FAE014D5F5F4F8D81B9015B
:104BD0000E9473248AE090E00E94D91B8E819F81FD
:104BE0009C012E5F3F4FAE014E5F5F4F8D81B9013B
:104BF0000E9473248AE090E00E94D91B8E819F81DD
:104C00009C012D5F3F4F8D81B9019E012F5F3F4F6A
:104C1000A9010E9473248AE090E00E94D91B898137
:104C20009A81AB81BC81E885F98580839183A283D9
:104C3000B3832A960FB6F894DEBF0FBECDBFCF91D7
:104C4000DF910895DF93CF930F92CDB7DEB70E9427
:104C5000D8230E949B230E94342487ED96E20E9471
:104C6000192482E063E00E94F71380E06FEF70E0A8
:104C70009E012F5F3F4FA9010E9473248AE090E0BC
:104C80000E94D91B8981813A69F081E08093DC011F
:104C900082E080931C0280E06FEF70E041EA0E94A6
:104CA0003D2418C021E032E080E061E070E0A9011D
:104CB0000E940E252BE032E080E061E270E0A90165
:104CC0000E940E2527E132E080E061E470E0A90156
:104CD0000E940E2581E062E040E00E944C150F909A
:104CE000CF91DF910895DF93CF9300D000D0CDB75F
:104CF000DEB78091DC01282F30E03C832B838B8151
:104D00009C818130910531F02B813C81223031052D
:104D100069F1EFCF0E942A248AEA90E09093200262
:104D200080931F0281E092E00E94E62321E032E0BE
:104D300080E061E070E0A9010E94B5242BE032E040
:104D400080E061E270E0A9010E94B52427E132E031
:104D500080E061E470E0A9010E94B52482E08093C4
:104D6000DC0187ED96E20E941924C3CF80910002F6
:104D7000282F30E03A83298389819A81009731F086
:104D800029813A812130310541F00EC08BE092E05B
:104D90009093200280931F02ACCF87E192E0909322
:104DA000200280931F02A5CF10920002A2CFDF93B2
:104DB000CF93CDB7DEB72A970FB6F894DEBF0FBEFC
:104DC000CDBFCE0101960E94D50BCE0101960E9467
:104DD000D00A27EB30E0CE010196B9010E941507F9
:104DE000882321F081E08093DC0111C02DEB30E0BD
:104DF000CE010196B9010E941507882321F082E0B7
:104E00008093DC0104C082EC90E00E94D00A2A96D4
:104E10000FB6F894DEBF0FBECDBFCF91DF910895DE
:104E20001F920F920FB60F9211242F933F934F931F
:104E30005F936F937F938F939F93AF93BF93EF9302
:104E4000FF93DF93CF93CDB7DEB780911F02909190
:104E500020020E94B80F809100028F5F80930002B1
:104E6000AAE5B0E0EAE5F0E080818F7D8C93CF91F8
:104E7000DF91FF91EF91BF91AF919F918F917F91C2
:104E80006F915F914F913F912F910F900FBE0F90B7
:104E90001F901895DF93CF93CDB7DEB70E942226DF
:104EA0000E94732680E090E0CF91DF910895629F89
:104EB000D001739FF001829FE00DF11D649FE00D12
:104EC000F11D929FF00D839FF00D749FF00D659F73
:104ED000F00D9927729FB00DE11DF91F639FB00D72
:104EE000E11DF91FBD01CF0111240895AA1BBB1BB1
:104EF00051E107C0AA1FBB1FA617B70710F0A61BDA
:104F0000B70B881F991F5A95A9F780959095BC01FA
:104F1000CD010895A1E21A2EAA1BBB1BFD010DC0F5
:104F2000AA1FBB1FEE1FFF1FA217B307E407F50759
:104F300020F0A21BB30BE40BF50B661F771F881F35
:104F4000991F1A9469F760957095809590959B01CB
:104F5000AC01BD01CF0108952F923F924F925F9215
:104F60006F927F928F929F92AF92BF92CF92DF9279
:104F7000EF92FF920F931F93CF93DF93CDB7DEB7DE
:104F8000CA1BDB0B0FB6F894DEBF0FBECDBF099472
:104F90002A88398848885F846E847D848C849B84C9
:104FA000AA84B984C884DF80EE80FD800C811B81D7
:104FB000AA81B981CE0FD11D0FB6F894DEBF0FBE06
:0A4FC000CDBFED010895F894FFCF76
:104FCA00456E746572204361726420486F6C646533
:104FDA0072204E616D653A200D0A00456E74657245
:104FEA00205072696D617279204163636F756E74C6
:104FFA00204E756D6265723A200D0A00456E746521
:10500A00722050494E3A200D0A00494E4143434509
:10501A00535349424C450041444D494E005553456E
:10502A00520057524F4E4720494E505554000000E7
:10503A00000000000000000102020303030304044D
:10504A00040404040404050505050505050505050C
:10505A0005050505050506060606060606060606EC
:10506A0006060606060606060606060606060606D6
:10507A0006060606060607070707070707070707BC
:10508A0007070707070707070707070707070707A6
:10509A000707070707070707070707070707070796
:1050AA000707070707070707070707070707070786
:1050BA00070707070707080808080808080808086C
:1050CA000808080808080808080808080808080856
:1050DA000808080808080808080808080808080846
:1050EA000808080808080808080808080808080836
:1050FA000808080808080808080808080808080826
:10510A000808080808080808080808080808080815
:10511A000808080808080808080808080808080805
:10512A0008080808080808080808080808080808F5
:10513A0008080808080800070001F801020102032C
:06514A0004050607080938
:00000001FF
