:100000000C942A000C943F000C943F000C943F0089
:100010000C943F000C943F000C943F000C943F0064
:100020000C943F000C943F000C943F000C943F0054
:100030000C943F000C943F000C943F000C943F0044
:100040000C943F000C943F000C943F000C943F0034
:100050000C943F0011241FBECFE5D8E0DEBFCDBF1A
:1000600010E0A0E6B0E0E2E9F4E002C005900D92F5
:10007000A236B107D9F70E9441000C9447020C94B4
:100080000000CF93DF931F92CDB7DEB780E690E0FC
:100090000E94670041E060E083E00E947D0044E050
:1000A00061E083E00E947D0080E895E20E94E50126
:1000B000CE0101960E941202813021F489810E94B2
:1000C0000C02F6CF80E690E00E947200F1CF00971C
:1000D00039F0FC01618144E080810E947D00089537
:1000E00080E00895009739F0FC01618141E0808152
:1000F0000E945601089580E00895683008F0CAC053
:100100008130C1F138F0823009F464C0833009F4E1
:1001100091C0C2C0413021F080F04430F9F0BEC03F
:100120002AB381E090E002C0880F991F6A95E2F738
:10013000809582238ABB81E008952AB381E090E014
:1001400002C0880F991F6A95E2F7982F9095922325
:100150009ABB9BB3892B8BBB81E008952AB381E0C6
:1001600090E002C0880F991F6A95E2F7822B8ABB44
:1001700081E00895413021F080F04430F9F090C0E2
:1001800027B381E090E002C0880F991F6A95E2F7DB
:100190008095822387BB81E0089527B381E090E0BA
:1001A00002C0880F991F6A95E2F7982F90959223C5
:1001B00097BB98B3892B88BB81E0089527B381E072
:1001C00090E002C0880F991F6A95E2F7822B87BBE7
:1001D00081E00895413021F080F04430F9F062C0B0
:1001E00024B381E090E002C0880F991F6A95E2F77E
:1001F0008095822384BB81E0089524B381E090E060
:1002000002C0880F991F6A95E2F7982F9095922364
:1002100094BB95B3892B85BB81E0089524B381E01D
:1002200090E002C0880F991F6A95E2F7822B84BB89
:1002300081E00895413021F080F04430F9F034C07D
:1002400021B381E090E002C0880F991F6A95E2F720
:100250008095822381BB81E0089521B381E090E005
:1002600002C0880F991F6A95E2F7982F9095922304
:1002700091BB92B3892B82BB81E0089521B381E0C9
:1002800090E002C0880F991F6A95E2F7822B81BB2C
:1002900081E0089580E0089580E0089580E0089569
:1002A00080E0089580E0089580E00895683008F0C7
:1002B00080C0813031F138F0823009F440C08330A1
:1002C00009F45AC078C041110DC02BB381E090E011
:1002D00002C0880F991F6A95E2F7809582238BBB35
:1002E00081E00895413009F068C02BB381E090E0CF
:1002F00002C0880F991F6A95E2F7822B8BBB81E0C1
:10030000089541110DC028B381E090E002C0880F2C
:10031000991F6A95E2F78095822388BB81E0089552
:10032000413009F04CC028B381E090E002C0880F52
:10033000991F6A95E2F7822B88BB81E008954111ED
:100340000DC025B381E090E002C0880F991F6A9527
:10035000E2F78095822385BB81E00895413089F5DD
:1003600025B381E090E002C0880F991F6A95E2F7FB
:10037000822B85BB81E0089541110DC022B381E03D
:1003800090E002C0880F991F6A95E2F7809582235A
:1003900082BB81E008954130B1F422B381E090E066
:1003A00002C0880F991F6A95E2F7822B82BB81E019
:1003B000089580E0089580E0089580E0089580E049
:1003C000089580E0089580E00895A0E0B0E0880FEF
:1003D000991FAA1FBB1F880F991FAA1FBB1F9C0133
:1003E000AD01220F331F441F551F220F331F441F1F
:1003F000551F60E072E18AE790E00E9425022150DB
:10040000310986E880BD30BD29B98AB188608AB9D2
:100410008AB180618AB908955D9BFECF8CB95E9BDD
:10042000FECF0895009759F05F9BFECF5C9909C0FD
:100430005B9909C02CB1FC01208381E0089580E024
:10044000089582E0089583E00895A1E21A2EAA1B80
:10045000BB1BFD010DC0AA1FBB1FEE1FFF1FA21774
:10046000B307E407F50720F0A21BB30BE40BF50B71
:10047000661F771F881F991F1A9469F760957095FA
:10048000809590959B01AC01BD01CF010895F89432
:02049000FFCF9C
:02049200010463
:00000001FF
