:100000000C942A000C9447000C9447000C94470071
:100010000C9447000C9447000C9447000C94470044
:100020000C9447000C9447000C9471070C94A4079F
:100030000C9447000C9423040C945D040C9447002A
:100040000C9447000C9447000C9447000C949709BB
:100050000C94470011241FBECFE5D8E0DEBFCDBF12
:1000600010E0A0E6B0E0E6E9F2E202C005900D92F1
:10007000A636B107D9F710E0A6E6B0E001C01D92A0
:10008000A537B107E1F70E94F3100C9449110C94C5
:100090000000DF93CF93CDB7DEB727970FB6F89464
:1000A000DEBF0FBECDBF6C837D838E839F8381E0D7
:1000B0008B83A0E4B0E0E0E4F0E0808180688C9382
:1000C000A0E4B0E0E0E4F0E080818F7B8C93ABE2D1
:1000D000B0E0EBE2F0E080818D7F8C938C819D819C
:1000E000AE81BF81880F991FAA1FBB1F880F991F60
:1000F000AA1FBB1F880F991FAA1FBB1F880F991F1C
:10010000AA1FBB1F9C01AD0180E092E1AAE7B0E00D
:10011000BC01CD010E942711DA01C90101979A8320
:100120008983A0E4B0E0E0E4F0E0808182608C9319
:10013000A0E4B0E0E0E4F0E0808184608C93AAE287
:10014000B0E0EAE2F0E080818B7F8C93A0E4B0E045
:10015000E0E4F0E080818F7E8C93A0E4B0E0E0E406
:10016000F0E080818F7D8C93A0E4B0E0E0E4F0E0EB
:100170008081877F8C93E9E2F0E089818083E0E4ED
:10018000F0E089819A81892F99278083AAE2B0E0E3
:10019000EAE2F0E0808180618C93AAE2B0E0EAE2DA
:1001A000F0E0808188608C938B81813019F481E04C
:1001B000809366008B8127960FB6F894DEBF0FBE42
:1001C000CDBFCF91DF910895DF93CF9300D0CDB70E
:1001D000DEB78A8380916600813089F4EBE2F0E03B
:1001E0008081829586958770882F90E081709070CD
:1001F0000097A1F3ECE2F0E08A81808302C088E0FE
:10020000898389810F900F90CF91DF9108950F938B
:100210001F93DF93CF93CDB7DEB7CA57D0400FB649
:10022000F894DEBF0FBECDBFFE01ED58FF4F6083D7
:1002300071838283938384E6FE013F96DF01282F3A
:100240001D922A95E9F781E08F83188619861A8610
:100250001B861C861D861E861D82FE01ED58FF4FE3
:1002600080819181A281B3810097A105B10509F038
:100270005FC08D81282F30E0CE010F96FC01E20F88
:10028000F31F80E380838D818F5F8D8351C0FE01DA
:10029000ED58FF4F80819181A281B3812AE030E047
:1002A00040E050E0BC01CD010E942711DC01CB01F0
:1002B00089838D81A82FB0E0EA96BFAFAEAFEA97F1
:1002C00089818A3038F08981B82FB95AE896BFAF52
:1002D000E89706C08981E82FE05DE896EFAFE897E0
:1002E000CE010F96EA96EEADFFADEA97E80FF91F43
:1002F000E8962FADE89720838D818F5F8D838E01E7
:100300000D581F4FFE01ED58FF4F80819181A28152
:10031000B3812AE030E040E050E0BC01CD010E9412
:100320002711DA01C901F80180839183A283B38385
:10033000FE01ED58FF4F80819181A281B38100972A
:10034000A105B10509F0A3CF8D81282F30E0CE01A2
:100350000F96FC01E20FF31F10821C828D818150E9
:100360008B8328C08C81882F90E0FE013F96E80F98
:10037000F91F80818A838C81882F90E0DE011F968F
:10038000A80FB91F8B81882F90E0FE013F96E80FE0
:10039000F91F80818C938B81882F90E0FE013F961E
:1003A000E80FF91F8A8180838C818F5F8C838B811A
:1003B00081508B839C818B819817A0F2CE010F9680
:1003C0000E94EE01C658DF4F0FB6F894DEBF0FBE95
:1003D000CDBFCF91DF911F910F910895DF93CF9300
:1003E00000D000D000D0CDB7DEB79E838D8381E0F2
:1003F0008C831A821982809166008130E1F48D81AC
:100400009E810097A9F02D813E8189819A81F90111
:10041000E80FF91F80818B838B810E94E400898122
:100420009A8101969A8389838B81882361F705C01D
:1004300087E08C8302C088E08C838C8126960FB67F
:10044000F894DEBF0FBECDBFCF91DF910895DF934B
:10045000CF9300D00F92CDB7DEB79B838A8381E024
:10046000898380916600813099F48A819B8100970D
:1004700061F0EBE2F0E080818823DCF7ECE2F0E071
:100480008081EA81FB81808305C087E0898302C087
:1004900088E0898389810F900F900F90CF91DF9131
:1004A0000895EF92FF920F931F93DF93CF93CDB7F1
:1004B000DEB766970FB6F894DEBF0FBECDBF9D8B3B
:1004C0008C8B188681E090E0A0E0B0E08C839D8367
:1004D000AE83BF83EC89FD89108211821282138260
:1004E000CE0109960E94F0021B8203C088858F5FAF
:1004F00088878885282F30E0CE010996FC01E20F1D
:10050000F31F80818D3091F71A8258C098858A81B7
:10051000292F281B822F8150898315C08C819D81B2
:10052000AE81BF812AE030E040E050E0BC01CD0167
:100530000E940811DC01CB018C839D83AE83BF83B5
:100540008981815089838981882341F7EC89FD89DC
:10055000E080F180028113818B81282F30E0CE0171
:100560000996FC01E20FF31F8081882F90E0C0976D
:10057000AA2797FDA095BA2F2C813D814E815F81DE
:10058000BC01CD010E940811DC01CB018E0D9F1D25
:10059000A01FB11FEC89FD8980839183A283B3835F
:1005A0008B818F5F8B8381E090E0A0E0B0E08C8353
:1005B0009D83AE83BF838A818F5F8A839A8188857A
:1005C000981708F4A3CF66960FB6F894DEBF0FBE57
:1005D000CDBFCF91DF911F910F91FF90EF900895C4
:1005E000DF93CF9300D000D000D0CDB7DEB79E838D
:1005F0008D8381E08B838D819E819A838983809115
:1006000066008130D9F48D819E810097A1F0CE01E2
:1006100004960E9427028C81E981FA818083898176
:100620009A8101969A8389838C818D3081F7E98143
:10063000FA81108205C087E08B8302C088E08B833B
:100640008B8126960FB6F894DEBF0FBECDBFCF913B
:10065000DF910895DF93CF93CDB7DEB727970FB61D
:10066000F894DEBF0FBECDBF9E838D836F8381E084
:100670008B838D819E819A838983809166008130EE
:10068000F1F48D819E810097B9F0CE0104960E940D
:1006900027028C81E981FA81808389819A81019680
:1006A0009A8389838F8181508F838C818D3049F02B
:1006B0008F81882351F705C087E08B8302C088E0D3
:1006C0008B838B8127960FB6F894DEBF0FBECDBF0C
:1006D000CF91DF910895DF93CF9300D00F92CDB7E4
:1006E000DEB79B838A8381E08983809166008130B5
:1006F000E1F48A819B810097A9F08A819B81909384
:10070000680080936700AAE2B0E0EAE2F0E080814E
:1007100080688C93AFE5B0E0EFE5F0E08081806821
:100720008C9305C087E0898302C088E08983898132
:100730000F900F900F90CF91DF910895DF93CF939B
:1007400000D00F92CDB7DEB79B838A8381E0898387
:10075000809166008130E1F48A819B810097A9F045
:100760008A819B8190936A0080936900AAE2B0E03D
:10077000EAE2F0E0808180648C93AFE5B0E0EFE5E1
:10078000F0E0808180688C9305C087E0898302C097
:1007900088E0898389810F900F900F90CF91DF912E
:1007A0000895DF93CF93CDB7DEB710926800109213
:1007B0006700AAE2B0E0EAE2F0E080818F778C93F4
:1007C000CF91DF910895DF93CF93CDB7DEB710922D
:1007D0006A0010926900AAE2B0E0EAE2F0E08081EB
:1007E0008F7B8C93CF91DF910895DF93CF93CDB71B
:1007F000DEB7AAE2B0E0EAE2F0E080818F7E8C937F
:10080000AAE2B0E0EAE2F0E08081877F8C93109268
:100810006A00109269001092680010926700AAE2C4
:10082000B0E0EAE2F0E080818F778C93AAE2B0E05A
:10083000EAE2F0E080818F7B8C9381E08093660018
:10084000CF91DF9108951F920F920FB60F9211244E
:100850002F933F934F935F936F937F938F939F93C8
:10086000AF93BF93EF93FF93DF93CF930F92CDB7E7
:10087000DEB78091670090916800009731F0E091B9
:100880006700F0916800099504C0ECE2F0E0808117
:1008900089830F90CF91DF91FF91EF91BF91AF913D
:1008A0009F918F917F916F915F914F913F912F9188
:1008B0000F900FBE0F901F9018951F920F920FB6BA
:1008C0000F9211242F933F934F935F936F937F93D6
:1008D0008F939F93AF93BF93EF93FF93DF93CF9348
:1008E000CDB7DEB78091690090916A00009729F03A
:1008F000E0916900F0916A000995CF91DF91FF9135
:10090000EF91BF91AF919F918F917F916F915F9187
:100910004F913F912F910F900FBE0F901F90189500
:10092000DF93CF9300D000D00F92CDB7DEB79B837B
:100930008A8381E089838A819B81009709F4CCC0F6
:100940008A819B8190936C0080936B00EA81FB818C
:100950008081282F30E03D832C838C819D818230E3
:10096000910509F45CC02C813D812330310554F49C
:100970008C819D810097C1F02C813D812130310512
:1009800011F1A4C08C819D818430910509F481C04E
:100990002C813D81243031052CF18C819D81853065
:1009A000910509F459C092C0A3E5B0E0E3E5F0E099
:1009B00080818F7B8C93A3E5B0E0E3E5F0E080815C
:1009C000877F8C9385C0A3E5B0E0E3E5F0E080810C
:1009D0008F7B8C93A3E5B0E0E3E5F0E08081886055
:1009E0008C9376C0A3E5B0E0E3E5F0E0808180641D
:1009F0008C93A3E5B0E0E3E5F0E0808188608C9320
:100A0000A3E5B0E0E3E5F0E0808180618C93A3E5AD
:100A1000B0E0E3E5F0E0808180628C9359C0A3E50B
:100A2000B0E0E3E5F0E0808180648C93A3E5B0E082
:100A3000E3E5F0E0808188608C93A3E5B0E0E3E536
:100A4000F0E080818F7E8C93A3E5B0E0E3E5F0E0F9
:100A5000808180628C933CC0A3E5B0E0E3E5F0E0E8
:100A6000808180648C93A3E5B0E0E3E5F0E08081D1
:100A7000877F8C93A3E5B0E0E3E5F0E080818061BF
:100A80008C93A3E5B0E0E3E5F0E0808180628C9395
:100A90001FC0A3E5B0E0E3E5F0E0808180648C93C3
:100AA000A3E5B0E0E3E5F0E08081877F8C93A3E5E8
:100AB000B0E0E3E5F0E080818F7E8C93A3E5B0E0C9
:100AC000E3E5F0E0808180628C9302C08DEF898342
:100AD000E2E5F0E0108202C08CEF898389810F90FB
:100AE0000F900F900F900F90CF91DF910895DF93AB
:100AF000CF9300D0CDB7DEB78A8381E08983E2E56A
:100B0000F0E08A81808389810F900F90CF91DF91EF
:100B10000895DF93CF9300D00F92CDB7DEB79B83BC
:100B20008A8381E089838A819B81009739F0E2E59D
:100B3000F0E08081EA81FB81808302C08CEF8983B1
:100B400089810F900F900F90CF91DF910895DF93DF
:100B5000CF9300D0CDB7DEB78A8381E08983ECE5FF
:100B6000F0E08A81808389810F900F90CF91DF918F
:100B70000895DF93CF9300D00F92CDB7DEB79B835C
:100B80008A8381E089838A819B810097A9F08A8189
:100B90009B8190936E0080936D00AFE5B0E0EFE530
:100BA000F0E0808180688C93A9E5B0E0E9E5F0E0B1
:100BB000808181608C9302C08CEF898389810F9042
:100BC0000F900F90CF91DF910895DF93CF9300D0D6
:100BD0000F92CDB7DEB79B838A8381E089838A81B8
:100BE0009B810097A9F08A819B81909370008093EC
:100BF0006F00AFE5B0E0EFE5F0E0808180688C93B6
:100C0000A9E5B0E0E9E5F0E0808182608C9302C064
:100C10008CEF898389810F900F900F90CF91DF9196
:100C20000895DF93CF9300D00F92CDB7DEB781E068
:100C3000898380916B0090916C00009709F4F0C05B
:100C4000E0916B00F0916C008181282F30E03B83B4
:100C50002A838A819B818330910509F470C02A819F
:100C60003B812430310584F48A819B818130910558
:100C7000D1F12A813B81223031050CF04AC08A81B2
:100C80009B810097D1F0C9C02A813B812530310575
:100C900009F481C08A819B81853091050CF465C07F
:100CA0002A813B812630310509F48BC08A819B81E2
:100CB0008730910509F49BC0B0C0A3E5B0E0E3E53F
:100CC000F0E080818E7F8C93A3E5B0E0E3E5F0E077
:100CD00080818D7F8C93A3E5B0E0E3E5F0E0808137
:100CE0008B7F8C939FC0A3E5B0E0E3E5F0E08081CB
:100CF00081608C93A3E5B0E0E3E5F0E080818D7F37
:100D00008C93A3E5B0E0E3E5F0E080818B7F8C93EA
:100D100089C0A3E5B0E0E3E5F0E080818E7F8C93AD
:100D2000A3E5B0E0E3E5F0E0808182608C93A3E589
:100D3000B0E0E3E5F0E080818B7F8C9373C0A3E5A6
:100D4000B0E0E3E5F0E0808181608C93A3E5B0E062
:100D5000E3E5F0E0808182608C93A3E5B0E0E3E519
:100D6000F0E080818B7F8C935DC0A3E5B0E0E3E58C
:100D7000F0E080818E7F8C93A3E5B0E0E3E5F0E0C6
:100D800080818D7F8C93A3E5B0E0E3E5F0E0808186
:100D900084608C9347C0A3E5B0E0E3E5F0E0808198
:100DA00081608C93A3E5B0E0E3E5F0E080818D7F86
:100DB0008C93A3E5B0E0E3E5F0E0808184608C9360
:100DC00031C0A3E5B0E0E3E5F0E080818E7F8C9355
:100DD000A3E5B0E0E3E5F0E0808182608C93A3E5D9
:100DE000B0E0E3E5F0E0808184608C931BC0A3E574
:100DF000B0E0E3E5F0E0808181608C93A3E5B0E0B2
:100E0000E3E5F0E0808182608C93A3E5B0E0E3E568
:100E1000F0E0808184608C9305C08FEF898302C0ED
:100E20008EEF898389810F900F900F90CF91DF9182
:100E30000895DF93CF930F92CDB7DEB781E089831A
:100E400080916B0090916C000097B1F0A3E5B0E049
:100E5000E3E5F0E080818E7F8C93A3E5B0E0E3E5ED
:100E6000F0E080818D7F8C93A3E5B0E0E3E5F0E0D6
:100E700080818B7F8C9302C08EEF898389810F9054
:100E8000CF91DF910895DF93CF930F92CDB7DEB767
:100E900081E0898310926E0010926D00A9E5B0E0A8
:100EA000E9E5F0E080818E7F8C9389810F90CF916E
:100EB000DF910895DF93CF930F92CDB7DEB781E036
:100EC00089831092700010926F00A9E5B0E0E9E507
:100ED000F0E080818D7F8C9389810F90CF91DF919D
:100EE00008951F920F920FB60F9211242F933F93E4
:100EF0004F935F936F937F938F939F93AF93BF9322
:100F0000EF93FF93DF93CF93CDB7DEB780916F0060
:100F100090917000009729F0E0916F00F0917000BF
:100F20000995CF91DF91FF91EF91BF91AF919F9183
:100F30008F917F916F915F914F913F912F910F9082
:100F40000FBE0F901F9018951F920F920FB60F9221
:100F500011242F933F934F935F936F937F938F93BE
:100F60009F93AF93BF93EF93FF93DF93CF93CDB74F
:100F7000DEB780916D0090916E00009729F0E091AE
:100F80006D00F0916E000995CF91DF91FF91EF9187
:100F9000BF91AF919F918F917F916F915F914F9191
:100FA0003F912F910F900FBE0F901F901895DF93D8
:100FB000CF930F92CDB7DEB781E0898380916B002C
:100FC00090916C00009741F0E3E5F0E01082109200
:100FD0006C0010926B0002C08EEF898389810F90A4
:100FE000CF91DF910895DF93CF930F92CDB7DEB706
:100FF00081E08983E0E2F0E088E48083E2E2F0E0EF
:1010000082E08083A6E5B0E0E6E5F0E080818064E0
:101010008C93A6E5B0E0E6E5F0E0808181608C93FA
:10102000AFE5B0E0EFE5F0E0808180688C93A6E565
:10103000B0E0E6E5F0E0808184608C9389810F90D8
:10104000CF91DF910895DF93CF93CDB7DEB7E1E283
:10105000F0E08081887FCF91DF910895DF93CF9377
:1010600000D00F92CDB7DEB78A836B8381E089838E
:10107000E6E5F0E080818823DCF780916400883029
:1010800021F080916400803171F4E3E2F0E09A8114
:101090008B81892B8083A6E5B0E0E6E5F0E08081D6
:1010A0008F7080688C93E6E5F0E080818823DCF720
:1010B00089810F900F900F90CF91DF910895DF936A
:1010C000CF9300D0CDB7DEB78A8381E08983E3E296
:1010D000F0E08A818083A6E5B0E0E6E5F0E080817B
:1010E0008F7080688C93E6E5F0E080818823DCF7E0
:1010F00089810F900F90CF91DF910895DF93CF9367
:101100000F92CDB7DEB781E0898380916400883F7C
:1011100069F4A6E5B0E0E6E5F0E0808180628C93BA
:10112000E6E5F0E080818823DCF702C086E0898371
:1011300089810F90CF91DF910895DF93CF930F9224
:10114000CDB7DEB781E08983E6E5F0E080818823D2
:10115000DCF780916400883221F080916400803354
:1011600049F4A6E5B0E0E6E5F0E080818F70806AA2
:101170008C9302C085E0898389810F90CF91DF91A4
:101180000895DF93CF9300D00F92CDB7DEB79B8346
:101190008A8381E08983E6E5F0E080818823DCF7BB
:1011A00080916400803421F0809164008035A1F446
:1011B000A6E5B0E0E6E5F0E080818F70806C8C936E
:1011C000E6E5F0E080818823DCF7E3E2F0E080816F
:1011D000EA81FB8180830EC080916400883451F4E1
:1011E00087E08983A6E5B0E0E6E5F0E080818F70D6
:1011F00080698C9389810F900F900F90CF91DF9130
:101200000895DF93CF9300D00F92CDB7DEB79B83C5
:101210008A8381E08983E6E5F0E080818823DCF73A
:1012200080916400803421F0809164008035A1F4C5
:10123000A6E5B0E0E6E5F0E080818F7080688C93F1
:10124000E6E5F0E080818823DCF7E3E2F0E08081EE
:10125000EA81FB8180830EC080916400883451F460
:1012600087E08983A6E5B0E0E6E5F0E080818F7055
:1012700080698C9389810F900F900F90CF91DF91AF
:101280000895DF93CF930F92CDB7DEB781E08983C6
:1012900080916400883021F480916400803149F4A9
:1012A000A6E5B0E0E6E5F0E080818F7080698C9380
:1012B00002C085E0898388EF8093640089810F9064
:1012C000CF91DF910895DF93CF9300D00F92CDB7E8
:1012D000DEB79A838983E6E5F0E080818823DCF736
:1012E000A6E5B0E0E6E5F0E080818F70806C8C933D
:1012F00080916400803821F0809164008838C1F7C3
:10130000A6E5B0E0E6E5F0E080818F70806C8C931C
:1013100088EF80936400E3E2F0E08081E981FA8164
:1013200080830F900F900F90CF91DF9108951F92BF
:101330000F920FB60F9211248F93EF93FF93DF93C9
:10134000CF93CDB7DEB7E1E2F0E08081887F809374
:101350006400CF91DF91FF91EF918F910F900FBEBD
:101360000F901F901895DF93CF93CDB7DEB72E97D0
:101370000FB6F894DEBF0FBECDBF8A836B834C835C
:1013800081E089838B81883008F02DC28A81282FE3
:1013900030E03E872D878D859E858130910509F44B
:1013A00099C02D853E85223031052CF48D859E8592
:1013B000009771F015C22D853E852230310509F464
:1013C0000BC18D859E858330910509F487C108C2C4
:1013D0008C81282F30E03C872B878B859C85813042
:1013E000910599F12B853C852230310509F45BC0CC
:1013F0008B859C85009709F06AC0AAE3B0E0EAE318
:10140000F0E08081482F8B81282F30E081E090E050
:1014100002C0880F991F2A95E2F7809584238C9348
:10142000ABE3B0E0EBE3F0E08081482F8B81282F25
:1014300030E081E090E0022E02C0880F991F0A94EC
:10144000E2F7809584238C93D0C1A0E5B0E0E0E57D
:10145000F0E080818B7F8C93AAE3B0E0EAE3F0E0D8
:101460008081482F8B81282F30E081E090E002C0FE
:10147000880F991F2A95E2F7809584238C93ABE31C
:10148000B0E0EBE3F0E08081482F8B81282F30E043
:1014900081E090E0022E02C0880F991F0A94E2F7C3
:1014A000842B8C93A2C1AAE3B0E0EAE3F0E0808150
:1014B000482F8B81282F30E081E090E0022E02C07F
:1014C000880F991F0A94E2F7842B8C938EC18DEFBD
:1014D00089838BC18C81282F30E03A8729878985C1
:1014E0009A858130910599F129853A852230310517
:1014F00009F45BC089859A85009709F06AC0A7E363
:10150000B0E0E7E3F0E08081482F8B81282F30E0C6
:1015100081E090E002C0880F991F2A95E2F780953C
:1015200084238C93A8E3B0E0E8E3F0E08081482FC7
:101530008B81282F30E081E090E0022E02C0880FDE
:10154000991F0A94E2F7809584238C934EC1A0E5FD
:10155000B0E0E0E5F0E080818B7F8C93A7E3B0E022
:10156000E7E3F0E08081482F8B81282F30E081E095
:1015700090E002C0880F991F2A95E2F78095842396
:101580008C93A8E3B0E0E8E3F0E08081482F8B8102
:10159000282F30E081E090E0022E02C0880F991FD2
:1015A0000A94E2F7842B8C9320C1A7E3B0E0E7E331
:1015B000F0E08081482F8B81282F30E081E090E09F
:1015C000022E02C0880F991F0A94E2F7842B8C9395
:1015D0000CC18DEF898309C18C81282F30E03887B9
:1015E0002F838F8198858130910599F12F813885DE
:1015F0002230310509F45BC08F819885009709F08E
:101600006AC0A4E3B0E0E4E3F0E08081482F8B817E
:10161000282F30E081E090E002C0880F991F2A95C2
:10162000E2F7809584238C93A5E3B0E0E5E3F0E056
:101630008081482F8B81282F30E081E090E0022EBE
:1016400002C0880F991F0A94E2F7809584238C9337
:10165000CCC0A0E5B0E0E0E5F0E080818B7F8C932A
:10166000A4E3B0E0E4E3F0E08081482F8B81282FF1
:1016700030E081E090E002C0880F991F2A95E2F7E0
:10168000809584238C93A5E3B0E0E5E3F0E08081CE
:10169000482F8B81282F30E081E090E0022E02C09D
:1016A000880F991F0A94E2F7842B8C939EC0A4E3C1
:1016B000B0E0E4E3F0E08081482F8B81282F30E018
:1016C00081E090E0022E02C0880F991F0A94E2F791
:1016D000842B8C938AC08DEF898387C08C81282FBF
:1016E00030E03E832D838D819E818130910599F17B
:1016F0002D813E812230310509F45BC08D819E81B0
:10170000009709F06AC0A1E3B0E0E1E3F0E0808176
:10171000482F8B81282F30E081E090E002C0880FB5
:10172000991F2A95E2F7809584238C93ABE3B0E070
:10173000EBE3F0E08081482F8B81282F30E081E0BF
:1017400090E0022E02C0880F991F0A94E2F780955C
:1017500084238C934AC0A0E5B0E0E0E5F0E080810E
:101760008B7F8C93A1E3B0E0E1E3F0E08081482F30
:101770008B81282F30E081E090E002C0880F991F14
:101780002A95E2F7809584238C93A2E3B0E0E2E30C
:10179000F0E08081482F8B81282F30E081E090E0BD
:1017A000022E02C0880F991F0A94E2F7842B8C93B3
:1017B0001CC0A1E3B0E0E1E3F0E08081482F8B8121
:1017C000282F30E081E090E0022E02C0880F991FA0
:1017D0000A94E2F7842B8C9308C08DEF898305C0AF
:1017E0008EEF898302C08FEF898389812E960FB691
:1017F000F894DEBF0FBECDBFCF91DF910895DF9388
:10180000CF93CDB7DEB72E970FB6F894DEBF0FBEDD
:10181000CDBF8A836B834C8381E089838B81883041
:1018200008F00DC18A81282F30E03E872D878D85F5
:101830009E858130910509F451C02D853E85223069
:1018400031052CF48D859E85009771F0F5C02D85AE
:101850003E852230310509F47BC08D859E8583301D
:10186000910509F4AFC0E8C08C81282F30E03C8797
:101870002B878B859C850097C9F02B853C85213073
:10188000310549F5ABE3B0E0EBE3F0E08081482FB0
:101890008B81282F30E081E090E0022E02C0880F7B
:1018A000991F0A94E2F7842B8C93CBC0ABE3B0E092
:1018B000EBE3F0E08081482F8B81282F30E081E03E
:1018C00090E0022E02C0880F991F0A94E2F78095DB
:1018D00084238C93B6C08BEF8983B3C08C81282F6F
:1018E00030E03A87298789859A850097C9F029854C
:1018F0003A852130310549F5A8E3B0E0E8E3F0E0AE
:101900008081482F8B81282F30E081E090E0022EEB
:1019100002C0880F991F0A94E2F7842B8C9391C020
:10192000A8E3B0E0E8E3F0E08081482F8B81282F26
:1019300030E081E090E0022E02C0880F991F0A94E7
:10194000E2F7809584238C937CC08BEF898379C0E8
:101950008C81282F30E038872F838F8198850097DE
:10196000C9F02F8138852130310549F5A5E3B0E074
:10197000E5E3F0E08081482F8B81282F30E081E083
:1019800090E0022E02C0880F991F0A94E2F7842B80
:101990008C9357C0A5E3B0E0E5E3F0E08081482FE9
:1019A0008B81282F30E081E090E0022E02C0880F6A
:1019B000991F0A94E2F7809584238C9342C08BEFA1
:1019C00089833FC08C81282F30E03E832D838D8119
:1019D0009E810097C9F02D813E812130310549F566
:1019E000A2E3B0E0E2E3F0E08081482F8B81282F72
:1019F00030E081E090E0022E02C0880F991F0A9427
:101A0000E2F7842B8C931DC0A2E3B0E0E2E3F0E0A8
:101A10008081482F8B81282F30E081E090E0022EDA
:101A200002C0880F991F0A94E2F7809584238C9353
:101A300008C08BEF898305C08EEF898302C08FEFCA
:101A4000898389812E960FB6F894DEBF0FBECDBF75
:101A5000CF91DF910895DF93CF93CDB7DEB727976E
:101A60000FB6F894DEBF0FBECDBF8A836B835D8354
:101A70004C8381E089838B81883008F080C08C8121
:101A80009D81009709F47BC08B81883008F074C079
:101A90008A81282F30E03F832E834E815F81413041
:101AA000510559F18E819F818230910534F42E8148
:101AB0003F812115310569F05CC04E815F81423064
:101AC000510579F18E819F818330910509F43DC0E4
:101AD00050C0E9E3F0E08081282F30E08B81882F2F
:101AE00090E0A90102C0559547958A95E2F7CA0191
:101AF0008170EC81FD81808344C0E6E3F0E0808169
:101B0000282F30E08B81882F90E0A90102C05595E5
:101B100047958A95E2F7CA018170EC81FD81808347
:101B200030C0E3E3F0E08081282F30E08B81882F04
:101B300090E0A90102C0559547958A95E2F7CA0140
:101B40008170EC81FD8180831CC0E0E3F0E0808146
:101B5000282F30E08B81882F90E0A90102C0559595
:101B600047958A95E2F7CA018170EC81FD818083F7
:101B700008C08EEF898305C08FEF898302C08CEF88
:101B80008983898127960FB6F894DEBF0FBECDBF3B
:101B9000CF91DF910895DF93CF93CDB7DEB72D9727
:101BA0000FB6F894DEBF0FBECDBF8A836B8381E092
:101BB00089838A81282F30E03D872C878C859D85FD
:101BC0008130910509F44CC02C853D8522303105CA
:101BD0002CF48C859D85009771F0E1C02C853D85A6
:101BE0002230310509F471C08C859D8583309105C3
:101BF00009F4A0C0D4C08B81282F30E03B872A870E
:101C00008A859B8581309105A1F02A853B8522300C
:101C10003105F1F08A859B850097F9F4EAE3F0E05D
:101C20001082A0E5B0E0E0E5F0E0808184608C9374
:101C3000B8C0A0E5B0E0E0E5F0E080818B7F8C9358
:101C4000EAE3F0E01082EBE3F0E08FEF8083A9C0DD
:101C5000EAE3F0E08FEF8083A4C08DEF8983A1C019
:101C60008B81282F30E039872887888599858130B6
:101C70009105A1F02885398522303105F1F088855C
:101C800099850097F9F4E7E3F0E01082A0E5B0E071
:101C9000E0E5F0E0808184608C9383C0A0E5B0E053
:101CA000E0E5F0E080818B7F8C93E7E3F0E0108249
:101CB000E8E3F0E08FEF808374C0E7E3F0E08FEFBC
:101CC00080836FC08DEF89836CC08B81282F30E0BB
:101CD0003F832E838E819F8181309105A1F02E81DB
:101CE0003F8122303105F1F08E819F810097F9F418
:101CF000E4E3F0E01082A0E5B0E0E0E5F0E0808110
:101D000084608C934EC0A0E5B0E0E0E5F0E0808117
:101D10008B7F8C93E4E3F0E01082E5E3F0E08FEF5B
:101D200080833FC0E4E3F0E08FEF80833AC08DEF23
:101D3000898337C08B81282F30E03D832C838C81B1
:101D40009D8181309105A1F02C813D8122303105AA
:101D5000F1F08C819D810097F9F4E1E3F0E01082CD
:101D6000A0E5B0E0E0E5F0E0808184608C9319C0EC
:101D7000A0E5B0E0E0E5F0E080818B7F8C93E1E3CB
:101D8000F0E01082E2E3F0E08FEF80830AC0E1E34D
:101D9000F0E08FEF808305C08DEF898302C08EEF66
:101DA000898389812D960FB6F894DEBF0FBECDBF13
:101DB000CF91DF910895DF93CF9300D000D00F92A1
:101DC000CDB7DEB78A836B8381E089838A81282F30
:101DD00030E03D832C838C819D8181309105D1F051
:101DE0002C813D81223031052CF48C819D8100971E
:101DF00061F01FC02C813D812230310581F08C8142
:101E00009D818330910581F014C0EBE3F0E08B817C
:101E1000808311C0E8E3F0E08B8180830CC0E5E3B0
:101E2000F0E08B81808307C0E2E3F0E08B81808368
:101E300002C08EEF898389810F900F900F900F90D1
:101E40000F90CF91DF910895DF93CF9300D000D012
:101E500000D0CDB7DEB78A837C836B8381E0898332
:101E60008B819C81009709F43EC08A81282F30E045
:101E70003E832D838D819E8181309105E1F02D81FE
:101E80003E81223031052CF48D819E81009761F0D6
:101E900027C02D813E8122303105A1F08D819E81A8
:101EA00083309105B1F01CC0EBE3F0E08081EB8161
:101EB000FC8180831AC0E8E3F0E08081EB81FC8143
:101EC000808313C0E5E3F0E08081EB81FC818083B7
:101ED0000CC0E2E3F0E08081EB81FC81808305C0EF
:101EE0008EEF898302C08CEF8983898126960FB695
:101EF000F894DEBF0FBECDBFCF91DF910895DF9381
:101F0000CF9300D000D00F92CDB7DEB78A836B831A
:101F100081E089838B81883008F072C08A81282F04
:101F200030E03D832C838C819D818130910549F186
:101F30002C813D81223031052CF48C819D810097CC
:101F400061F05BC02C813D812230310571F18C81C3
:101F50009D8183309105E9F150C0ABE3B0E0EBE344
:101F6000F0E08081482F8B81282F30E081E090E0E5
:101F7000022E02C0880F991F0A94E2F784278C93DF
:101F800041C0A8E3B0E0E8E3F0E08081482F8B8116
:101F9000282F30E081E090E0022E02C0880F991FC8
:101FA0000A94E2F784278C932DC0A5E3B0E0E5E323
:101FB000F0E08081482F8B81282F30E081E090E095
:101FC000022E02C0880F991F0A94E2F784278C938F
:101FD00019C0A2E3B0E0E2E3F0E08081482F8B81FA
:101FE000282F30E081E090E0022E02C0880F991F78
:101FF0000A94E2F784278C9305C08EEF898302C090
:102000008FEF898389810F900F900F900F900F9021
:10201000CF91DF910895DF93CF9300D000D00F923E
:10202000CDB7DEB79D838C8310927400109273003D
:1020300081E0898381E08A8383E08B83CE010296ED
:102040000E94900489838981813029F48CE70E9461
:10205000A705898302C08FEF89838981813031F49C
:1020600085E590E10E94E505898302C08FEF8983B1
:102070008981813021F40E941106898302C08FEF8B
:10208000898320917300309174008C819D81821727
:102090009307B8F70E945A0789810F900F900F900D
:1020A0000F900F90CF91DF910895DF93CF93CDB72D
:1020B000DEB7809173009091740001969093740044
:1020C00080937300CF91DF910895DF93CF9300D079
:1020D000CDB7DEB79A83898389819A81692F42E0DF
:1020E0000E94B3090F900F90CF91DF910895DF9375
:1020F000CF9300D0CDB7DEB79A83898389819A8147
:10210000692F41E00E94FF0B0F900F90CF91DF915C
:102110000895DF93CF9300D0CDB7DEB79A8389833C
:1021200089819A81692F40E00E94FF0B0F900F90E8
:10213000CF91DF910895DF93CF9300D0CDB7DEB775
:102140009A83898389819A81692F0E947F0F0F90DA
:102150000F90CF91DF910895DF93CF9300D00F922E
:10216000CDB7DEB79B838A8381E089838A819B8197
:10217000692F40E00E94B309898389810F900F90F5
:102180000F90CF91DF910895DF93CF93CDB7DEB756
:1021900028970FB6F894DEBF0FBECDBF9E838D8308
:1021A00078876F8381E08B831A8219828F8198856B
:1021B000009771F08D819E819E012C5F3F4F692FAA
:1021C000A9010E942B0D8AE090E00E940B1001C033
:1021D0001B828B8128960FB6F894DEBF0FBECDBF51
:1021E000CF91DF910895DF93CF930F92CDB7DEB7F4
:1021F00080E062E00E94CB0D0E94F307CE010196C1
:102200000E946309998180E0692F0E94DB0EFFCF55
:10221000629FD001739FF001829FE00DF11D649FCA
:10222000E00DF11D929FF00D839FF00D749FF00D56
:10223000659FF00D9927729FB00DE11DF91F639FF7
:10224000B00DE11DF91FBD01CF0111240895A1E2D8
:102250001A2EAA1BBB1BFD010DC0AA1FBB1FEE1F20
:10226000FF1FA217B307E407F50720F0A21BB30B6B
:10227000E40BF50B661F771F881F991F1A9469F7E7
:1022800060957095809590959B01AC01BD01CF0143
:062290000895F894FFCF51
:0622960001070001F80041
:00000001FF
